:020000040810E2
:100000000080041005C41008A5B81008ADB8100889
:10001000B5B81008BDB81008C5B810080000000039
:10002000000000000000000000000000CDB8100833
:10003000DBB8100800000000E9B81008F7B8100895
:1000400055C4100855C4100855C4100855C41008EC
:1000500055C4100855C4100855C4100855C41008DC
:1000600055C4100855C4100855C4100855C41008CC
:1000700055C4100855C4100855C4100855C41008BC
:1000800055C4100855C4100855C4100855C41008AC
:1000900055C4100855C4100855C4100855C410089C
:1000A00055C4100855C4100855C4100855C410088C
:1000B00055C4100855C4100855C4100855C410087C
:1000C00055C4100855C4100855C4100855C410086C
:1000D00055C4100855C4100855C4100855C410085C
:1000E00055C4100855C410080000000055C410087D
:1000F00055C4100855C4100855C4100855C410083C
:1001000055C4100855C4100855C4100855C410082B
:1001100055C4100855C4100855C4100855C410081B
:1001200055C4100855C4100855C4100855C410080B
:1001300055C4100855C4100855C4100855C41008FB
:1001400055C4100855C4100800000000000000004D
:1001500055C4100855C4100855C4100855C41008DB
:1001600055C4100855C4100855C4100855C41008CB
:1001700055C4100855C4100855C4100800000000EC
:1001800055C4100855C4100855C4100855C41008AB
:1001900055C4100855C4100855C4100855C410089B
:1001A00055C4100855C4100855C4100855C410088B
:1001B00055C4100855C4100855C4100855C410087B
:1001C00055C4100855C4100855C4100855C410086B
:1001D00055C4100855C4100855C4100855C410085B
:1001E00055C4100855C4100855C4100855C410084B
:1001F00055C4100855C4100855C4100855C410083B
:1002000055C4100855C4100855C4100855C410082A
:1002100055C4100855C4100855C4100855C410081A
:1002200055C4100855C4100855C4100855C410080A
:1002300055C4100855C4100855C4100855C41008FA
:1002400055C4100855C4100855C4100855C41008EA
:1002500055C4100855C4100855C4100855C41008DA
:1002600055C4100855C4100855C4100855C41008CA
:1002700055C4100855C4100855C4100855C41008BA
:1002800055C4100855C4100855C4100800000000DB
:0802900055C4100855C4100804
:1002C0000348044B834202D0034B03B118477047E5
:1002D0000402001004020010000000000548064B54
:1002E0001B1AD90F01EBA301491002D0034B03B134
:1002F00018477047040200100402001000000000BC
:1003000010B5064C237843B9FFF7DAFF044B13B15D
:100310000448AFF300800123237010BD484C001047
:100320000000000098C4110808B5044B1BB1044933
:100330000448AFF30080BDE80840CFE700000000AC
:100340004C4C001098C4110851EC100B204A21F0BD
:10035000004393421FD900B51E4A934285B008D985
:1003600002460B4608F038FF41EC100B05B05DF873
:1003700004FB684600F030F800F0030001289DED12
:10038000021B9DED000B17D0022809D0B8B901203F
:1003900000F0DAFEEAE79FED0C1B002000F0D4BE6F
:1003A000012000F0D1FE53EC102B03F1004300EECE
:1003B000903A05B05DF804FB01F04EF8D6E701F085
:1003C0004BF8F0E7AFF300800000000000000000F1
:1003D000FB21E93FFFFFEF7F2DE9F04F53EC102B9E
:1003E000874923F000458D4291B0044640F28E804B
:1003F00084498D421E462AD8002E1046194676A3FF
:10040000D3E9002340F3A88108F0E6FE7E4B9D422D
:1004100006460F4600F08B8071A3D3E9002308F055
:10042000DBFE8046894642464B463046394608F058
:10043000D3FE6BA3D3E9002308F0CEFEC4E9008904
:10044000C4E902010127384611B0BDE8F08F6F49B9
:100450008D4240F286806E498D425FD84FEA255A20
:10046000AAF2164AA5EB0A5110469046894609F0B1
:100470001BFB08F0FFFF02460B4640464946CDE90C
:100480000A2308F0A9FE634B002209F05DF88946B3
:10049000804609F009FB08F0EDFF02460B46404696
:1004A0004946CDE90C2308F097FE5A4B002209F08B
:1004B0004BF8CDE90E0110AF03254FF000084FF0C7
:1004C000000977E9020142464B46AB46013D09F07F
:1004D000A3FA0028F5D1504B019302230093524612
:1004E0005B4621460AA800F08BF9002E0746AADADF
:1004F0006168226801F10043E168C4E90023A26851
:1005000001F10043C4E9022347429CE70020002197
:1005100084ED000BC4E90201002794E71046194658
:1005200008F05AFEC4E90201C4E90001F4E72EA371
:10053000D3E9002308F050FE2DA3D3E9002306469B
:100540000F4608F049FE8046894642464B463046F3
:10055000394608F041FE26A3D3E9002308F03CFE0B
:100560006CE701F0AFF859EC108B23A3D3E900231B
:100570004046494608F0E8FF284B002208F02EFECE
:1005800009F092FA074608F075FF02460B46CDE9DE
:10059000042311A3D3E9002308F0D6FF02460B463B
:1005A0004046494608F018FE0DA3D3E900238246D1
:1005B0008B46DDE9040108F0C7FF1F2FCDE90201DA
:1005C00030DC174B7A1E53F82230AB422AD0024659
:1005D0000B469DE0AFF3008000004054FB21F93F43
:1005E0003163621A61B4D03D0000601A61B4D03D3D
:1005F0007370032E8A19A33B83C8C96D305FE43F33
:10060000FB21E93F7BD90240FB21F93FFB21394126
:10061000FFFFEF7F0000704184FA11080000E03F07
:1006200004FA1108DDE902235046594608F0D4FDCA
:100630002B150793C1F30A53C3EB1553102B8046B8
:1006400089466BDD64A3D3E90023DDE9040108F0EA
:100650007BFF8046894642464B465046594608F045
:10066000BBFD02460B4650465946CDE9082392464B
:100670009B4608F0B1FD42464B4608F0ADFD58A33D
:10068000D3E9002380468946DDE9040108F05CFFD8
:1006900042464B4608F0A0FD02460B4650465946DE
:1006A000CDE9022308F098FD079AC1F30A53D31A43
:1006B000312B804689464CDD4CA3D3E90023DDE98C
:1006C000040108F041FF8046894642464B465046A9
:1006D000594608F081FD82468B4652465B46DDE96D
:1006E000080108F079FD42464B4608F075FD41A32C
:1006F000D3E9002380468946DDE9040108F024FFA0
:1007000042464B4608F068FD02460B46CDE90223FF
:100710005046594608F060FD8046894642464B46A1
:10072000C4E900895046594608F056FDDDE9022328
:1007300008F052FD002EC4E90201BFF684AE09F1B3
:100740000043C4E9008301F10043C4E902037F428E
:1007500079E6DDE908ABE1E708F040FD224B9D4278
:1007600006460F4618D01AA3D3E9002308F036FD39
:100770008046894642464B463046394608F02CFDB5
:1007800013A3D3E9002308F029FDC4E90089C4E9D3
:1007900002014FF0FF3756E60FA3D3E9002308F01C
:1007A0001DFD0FA3D3E9002306460F4608F016FDF2
:1007B0008046894642464B463046394608F00CFD95
:1007C00007A3D3E9002308F009FDDEE7AFF30080BB
:1007D0003163621A61B4D03D0000601A61B4D03D4B
:1007E0007370032E8A19A33BFB21F93F0000002EF2
:1007F0008A19A33BC14920259A837B390000000058
:100800002DE9F04FADF5197D9C460B91BD4BA2999A
:10081000049053F82130059312F1140F0CF1FF33BB
:100820000393C0F2AD82B849D31E81FB0301DB17ED
:10083000C3EBA10308930133A3EB8303DB00D618BA
:10084000089A039BD41A059AD7181DD40137DDF8EE
:100850008CA2274420AD4FF000084FF00009E3467A
:1008600008E05AF8240008F005FE0134BC42E5E82F
:10087000020108D0002CF4DA013440464946BC425B
:10088000E5E80201F6D1DC46059B002BB8BF4FEA34
:10089000CC0738DB20AB03EBCC0A059BDDF80C90D2
:1008A000029663444FEACC070093049BCDE906C748
:1008B0000DF5E07B03EBCC084B46D9469B46039BEA
:1008C000002BC0F2A281049E57460024002577E940
:1008D0000223F6E8020108F037FE02460B462046E6
:1008E000294608F07BFC464504460D46EFD1009BA7
:1008F0000BF1010B9B45E9E802450AF1080ADED13C
:10090000DDE906C7029E049B059A009203EB070BE4
:100910000CAB03EB8203043B09930CAB03EB8207A4
:10092000CDF828C0009A98AB03EBC203002A53E924
:1009300028454FEAC2082CDD0DF5E07AD0440DF1D0
:10094000300902960697714B00222046294608F08E
:10095000FBFD09F0A9F808F08DFD6D4B002206465D
:100960000F4608F0F1FD02460B462046294608F0E6
:1009700033FC09F099F878E9022349F8040B394669
:10098000304608F02BFCD04504460D46DBD1029ED4
:10099000069F45EC104B304600F04AFB55EC104BDF
:1009A00000224FF07F532046294608F0CDFD41EC50
:1009B000100B00F0CDFC574B51EC100B002208F04F
:1009C000C3FD02460B462046294608F005FC0D46AD
:1009D000044609F069F8824608F04CFD02460B46D1
:1009E0002046294608F0F8FB002E8046894640F351
:1009F0009380009B0CAA581EC6F1180352F82020C1
:100A000042FA03F404FA03F3D21AC6F117010CAB4D
:100A100042FA01F5002D43F82020A24400F3DC80C7
:100A2000002200234046494608F0F6FF002800F067
:100A30005782009B059A93420CDD0CAA02EB8303BC
:100A4000002253F8041DBB4242EA0102F9D1002AF8
:100A500040F0DE80059B0CAA013B52F82330002BAE
:100A600040F0CE80099A012352F8041D0133002979
:100A7000FAD0009A13440132914600990A980293E1
:100A80000144089802EB000A0AF1804AA3980AF18F
:100A9000FF3A00EB8A0A20A800EBC108CDE90667FF
:100AA00070A901EBC20200925AF8040F08F0E2FCB0
:100AB000039B002BE8E8020120DB049E474600244C
:100AC000002577E90223F6E8020108F03DFD024621
:100AD0000B462046294608F081FB5E4504460D463C
:100AE000EFD1009BE3E802450093029B09F1010965
:100AF0009945D9DDDDE90667009313E70024002559
:100B0000EFE700BF90FB1108ABAAAA2A0000703ED5
:100B1000000070410000204055D1009B0CAA013B11
:100B200052F82350ED15002D7FF77AAF009B002B74
:100B30000AF1010A40F343820CAB002253F8044B44
:100B4000002C3BD0C4F1807443F8044C6FF07F401C
:100B5000009C03E01968411A43F8041B01329442D7
:100B6000F8DC0124002E0DDD012E3ED0022E09D12D
:100B7000009B5A1E0CAB0CA953F82230C3F315038B
:100B800041F82230022D7FF44BAF42464B46944948
:100B9000002008F021FB80468946002C3FF440AF3E
:100BA00030469FED8D0B00F043FA4046494653EC2A
:100BB000102B08F011FB8046894631E7009901327D
:100BC0009142BBDCCEE7874B002208F043FF0028B0
:100BD00040F0C480054623E7009B002B0AF1010A80
:100BE000D8BF0024A8DC012EC0D1009B5A1E0CAB3C
:100BF0000CA953F82230C3F3160341F82230C1E7A1
:100C0000009B5A1C9146134637E7002400256EE6E8
:100C1000009A0CAB541ECDE9035A53F82430183E09
:100C20005BB902F18043013B0CAA02EB830353F84A
:100C3000042D013C183E002AF9D030469FED660B8A
:100C400000F0F6F9002C57EC106BC0F2C48104F1EF
:100C5000010A0CAB03EB8A054FEACA0270ABDFF85E
:100C6000889103EBCA0A4FF00008934655F8040D2B
:100C700008F000FC32463B4608F066FC4B466AE949
:100C8000020142463046394608F05EFC0CAB9D42FC
:100C900006460F46EAD1ABF1080370A95A4601EBAC
:100CA000030A0DF590784FF00009CDE9064243465E
:100CB0005246A346CA46DDF81490CDF81480B9F127
:100CC000000FC0F28380DFF82481009317460026CE
:100CD00000240025029201E0564510DCF7E80223CB
:100CE000F8E8020108F030FC02460B46204629468F
:100CF00008F074FA0136B14504460D46ECDA009B63
:100D0000029A0BF1FF3BBBF1FF3FE3E802450AF11A
:100D1000010AA2F10802D2D1A29BDDF81480022BB5
:100D2000DDE9064264DC002B2FDC10D108EB020465
:100D30000020002174E9022308F050FA4445F9D15B
:100D4000039B002B40F037810B9BC3E90001049B00
:100D500003F007000DF5197DBDE8F08F009B002B17
:100D60000AF1010AC8BF02253FF7E6AE42464B46EC
:100D70001B49002008F030FA0225804689464FE6DC
:100D800000216FF01703089159E508EB02050026D2
:100D9000002775E902233046394608F01FFA454519
:100DA00006460F46F5D13B46D5E90001324608F02C
:100DB00013FA039B002B00F0E2800B9D07F1004328
:100DC000C5E90063002C40F0DE80E7E00024002548
:100DD00097E700BFAFF30080000000000000F03F85
:100DE0000000F03F0000E03F0000703EA0FB110853
:100DF000A29B032BABD1002C00F0FD8008EBC405B7
:100E00004FEAC40AD5E90067CDE905A50095A946D2
:100E1000029479E902453046394622462B4608F0CD
:100E2000DDF9B246BB4606460F4632463B462046F3
:100E3000294608F0D1F952465B4608F0CFF9C14582
:100E4000C9E90201C9E90067E3D1029C012CDDE98F
:100E500005A500F0D080D5E90045009E08F1080BFB
:100E6000474676E902892046294642464B46CDE967
:100E7000004508F0B3F904460D4622462B4640468D
:100E8000494608F0A9F9DDE9002308F0A7F9B345C0
:100E9000C6E90201C6E90045E3D10AF10804B846F3
:100EA0003C4407F110050020002174E9022308F0FA
:100EB00095F9A542F9D1039BD8E90067D8E9024525
:100EC000002B47D10B9BC3E90401C3E90067C3E9C9
:100ED0000245049B03F007000DF5197DBDE8F08F76
:100EE000704249EC108BCDE9035A00F0A1F855ECA3
:100EF000104B4B4B00222046294608F0ABFDF8B1C1
:100F0000484B00222046294608F01EFB08F0CCFD85
:100F1000074608F0AFFA424B002208F015FB0246E4
:100F20000B462046294608F057F908F0BDFD009B06
:100F30000CAA5C1C42F82300183642F824707CE6A8
:100F40002046294608F0B0FD009B0CAA1C4642F83A
:100F5000230072E632460B9E07F10043C6E90023E8
:100F600005F10043C6E9024301F10043C6E9040369
:100F7000049B03F007000DF5197DBDE8F08F0B9B76
:100F8000C3E900676CB14AAE0125F6E802230135DA
:100F900008F024F9AC42F8DA039B13B101F10043E5
:100FA00019460B9BC3E90201049B03F007000DF5F2
:100FB000197DBDE8F08F01F100431946C4E6022D0A
:100FC0007FF42EAD02460B460020174908F004F9C5
:100FD0008046894624E5A29B022B06DC002B0DDC13
:100FE0007FF4B5AE00200021AAE6A29B032B7FF47C
:100FF000AEAE0DF59078002000215CE7039BDDE9A3
:10100000480133B10B9C00224FF00043C4E9002398
:10101000C4E70B9C00220023C4E90023C1E700BF02
:10102000000070410000703E0000F03F0000000032
:1010300070B555EC104BC5F30A5206462B4672BBF1
:1010400025F00043234329D03B4B2046294600226C
:1010500008F07AFA394B9E4204460D4652DBC1F342
:101060000A520B46363A4CF250318E4223DC16447B
:1010700040F2FE7296421EDC002E34DC16F1350F73
:1010800038DB6FF31E53363643EA065520462C4BA9
:101090002946002208F058FA41EC100B70BD40F2CE
:1010A000FF718A42DFD122462046294608F096F891
:1010B00041EC100B70BD002D17A1D1E9000107DB39
:1010C00015A3D3E9002308F03FFA41EC100B70BDE3
:1010D00013A1D1E9000110A3D3E9002308F034FAE9
:1010E00041EC100BF3E76FF31E5343EA065545EC52
:1010F000104B70BD002D0CA1D1E9000102DA0CA14A
:10110000D1E9000108A3D3E9002308F01DFA41EC5E
:10111000100B70BDAFF300809C7500883CE4377EF7
:101120009C7500883CE437FE59F3F8C21F6EA50198
:1011300059F3F8C21F6EA58100005043B03CFFFF79
:101140000000903C000000002DE9F04F55EC104BE2
:1011500025F0004385B0B3F1795F8DED001B80462B
:1011600006D22046294608F09FFC002800F08A801D
:1011700022462B462046294608F0E6F906460F4649
:1011800032463B462046294608F0DEF943A3D3E920
:10119000002382468B463046394608F0D5F941A3F4
:1011A000D3E9002308F018F832463B4608F0CCF9A2
:1011B0003EA3D3E9002308F011F832463B4608F07D
:1011C000C3F93CA3D3E9002308F006F832463B46B6
:1011D00008F0BAF939A3D3E9002307F0FFFFCDE9FE
:1011E0000201B8F1000F35D0DDE900012A4B0022E1
:1011F00008F0AAF9DDE9022380468946504659469F
:1012000008F0A2F902460B464046494607F0E4FFC3
:1012100032463B4608F098F9DDE9002307F0DCFF91
:101220001BA3D3E9002306460F465046594608F053
:101230008BF902460B463046394607F0CFFF02468F
:101240000B462046294607F0C7FF41EC100B05B0BE
:10125000BDE8F08F02460B463046394608F074F977
:101260000BA3D3E9002307F0B7FF52465B4608F013
:101270006BF922462B4607F0B1FF41EC100B05B08D
:10128000BDE8F08F45EC104B05B0BDE8F08F00BF16
:10129000495555555555C53F0000E03F7CD5CF5ABF
:1012A0003AD9E53DEB9C2B8AE6E55A3E7DFEB157E7
:1012B000E31DC73ED561C119A0012A3FA6F8101150
:1012C0001111813F0000000051EC100B1E4A21F06B
:1012D000004393421ED900B51C4A934285B008D9F9
:1012E00002460B4607F078FF41EC100B05B05DF8A5
:1012F00004FB6846FFF770F800F0030001289DED3D
:10130000021B9DED000B14D0022807D0A0B900F0FD
:10131000A3F8EBE79FED0A1B00F09EB800F09CF8E5
:1013200053EC102B03F1004300EE903A05B05DF84A
:1013300004FBFFF709FFF3E70120FFF705FFD5E7FF
:101340000000000000000000FB21E93FFFFFEF7FED
:1013500051EC100BC1F30A532DE9F041A3F2FF3514
:10136000132D0C46064632DC002D20DB384B43FAA9
:1013700005F801EA080303430F462DD032A3D3E951
:10138000002307F02BFF0022002308F06DFB40B183
:10139000002C03DA4FF480132B411F4427EA080482
:1013A00000262346324643EC102BBDE8F08126A3ED
:1013B000D3E9002307F012FF0022002308F054FBBA
:1013C0000028EED0002C2ADB00263446E9E7332D36
:1013D00006DDB5F5806F1BD041EC100BBDE8F08148
:1013E000A3F213434FF0FF37DF400742F4D016A3B8
:1013F000D3E9002307F0F2FE0022002308F034FBBB
:101400000028CED0002C334610DB23EA0706C8E7BD
:1014100002460B4607F0E2FE41EC100BDEE724F03B
:10142000004426430DD14FF00044BAE7142D06D0F6
:10143000C5F134050122AA401344B342E5D2013478
:10144000E3E7044C0026ACE79C7500883CE4377E5B
:10145000FFFF0F000000F0BF2DE9F04F57EC106BBD
:1014600027F00048B8F1795F5BEC11AB85B071D221
:101470003046394608F018FB002800F0F480324668
:101480003B463046394608F05FF879A3D3E900239C
:1014900004460D4608F058F877A3D3E9002307F077
:1014A0009DFE22462B4608F04FF875A3D3E9002392
:1014B00007F092FE22462B4608F046F872A3D3E9C5
:1014C000002307F08BFE22462B4608F03DF870A360
:1014D000D3E9002307F080FE22462B4608F034F8BB
:1014E0006DA3D3E9002307F079FE22462B4608F0CE
:1014F0002BF8CDE900016E4B00222046294608F06A
:1015000023F8DDE90023804689462046294608F075
:101510001BF844464D468046894652465B46304657
:10152000394608F011F802460B464046494607F096
:1015300053FE02460B462046294607F04DFE024662
:101540000B4600205B4907F047FE41EC100B05B04D
:10155000BDE8F08F32463B463046394607F0F4FF8F
:1015600043A3D3E9002304460D4607F0EDFF42A351
:10157000D3E9002307F032FE22462B4607F0E4FFB2
:101580003FA3D3E9002307F027FE22462B4607F0AE
:10159000DBFF3DA3D3E9002307F020FE22462B46C4
:1015A00007F0D2FF3AA3D3E9002307F015FE224645
:1015B0002B4607F0C9FF38A3D3E9002307F00EFE3E
:1015C0002B46224607F0C0FF3B4B9845CDE9000172
:1015D00091D93A4B98453DD8A8F5001300223549DA
:1015E00000209046994607F0F7FDCDE90201304B07
:1015F00000222046294607F0A7FF42464B4607F047
:10160000EBFDDDE90023804689462046294607F0A8
:101610009BFF44464D468046894652465B463046CF
:10162000394607F091FF02460B464046494607F00F
:10163000D3FD02460B462046294607F0CDFD024663
:101640000B46DDE9020107F0C7FD41EC100B05B0C8
:10165000BDE8F08F9FED127BDFF864908DED027B8B
:101660004FF00008C3E79FED100B05B0BDE8F08F09
:10167000D43888BEE9FAA8BDC4B1B4BD9EEE213EFF
:10168000AD529C804F7E923E9015CB19A001FA3E40
:101690007751C1166CC1563F4C5555555555A53F10
:1016A000000000000000E73F000000000000F03FE5
:1016B0000000E03F0000F03F3233D33F0000E93F3D
:1016C0000000D23F51EC100B024621F0004343ECE6
:1016D000102B70470CB410B59CB01EAB0291069154
:1016E0006FF0004104910791084953F8042B0591CC
:1016F000002402A901931B9400F0A4FA029B1C7021
:101700001CB0BDE8104002B0704700BF0802FFFFE8
:101710000EB430B59CB06FF000411FAB049107913F
:101720000A4953F8042B029000240690084D0868DB
:10173000019302A905951B9400F084FA029B1C708A
:101740001CB0BDE8304003B0704700BF0C00001073
:101750000802FFFF0000000038B5124B1D682A6B1D
:1017600004461AB10023C2E9044338BD182003F02F
:10177000CFF90246286378B101200021C2E90401B3
:10178000094B0A480A499160C2E900030B2393817F
:101790000023C2E9044338BD064B0748462100F048
:1017A000D9F800BF0C00001034126DE60E33CDAB3B
:1017B000ECDE050094001208AC0012081C4B10B5BA
:1017C0001C68226B8AB113691A4954691A4803FBD1
:1017D00001F100FB0411A3FB0030013341EB0001D8
:1017E000C2E9043121F0004010BD182003F090F947
:1017F0000246206388B1114C114B0E48114991608B
:101800009FED097BC2E900430B2393810E4B0146F8
:1018100082ED047BC2E9043110BD0C4B0C4852210F
:1018200000F098F8AFF30080010000000000000015
:101830000C0000102DF451582D7F954C0E33CDAB7C
:1018400034126DE6ECDE05002E7F954C94001208F4
:10185000AC00120888420ED98B1883420BD900EBDA
:10186000020C002A6ED0624613F801CD02F801CDB9
:101870009942F9D170470F2A0FD8034602F1FF3C75
:10188000002A5FD00CF1010C013B8C4411F8012BB4
:1018900003F8012F6145F9D1704740EA01039B0726
:1018A00051D1A2F1100370B501F1200C23F00F0506
:1018B00001F1100E00F11004AC441B095EF8105C3D
:1018C00044F8105C5EF80C5C44F80C5C5EF8085C54
:1018D00044F8085C5EF8045C44F8045C0EF1100EF9
:1018E000E64504F11004E9D1013312F00C0F01EBCD
:1018F000031102F00F0400EB031328D0043C24F082
:1019000003064FEA940C1E441C1F8E465EF8045BCF
:1019100044F8045FB442F9D10CF1010402F003026F
:1019200003EB840301EB840102F1FF3C4AB10CF1AB
:10193000010C013B8C4411F8012B03F8012F614588
:10194000F9D170BD704702F1FF3C03469AE7224689
:10195000EAE700BF00B50B4C25681446EE681A464E
:1019600085B003460D464CB107490095CDE90114F9
:101970003046064903F030FB01F032F904490C46C9
:10198000F3E700BF0C000010D8001208E8001208AE
:10199000E400120808B513460022FFF7DBFF00BF82
:1019A000014B1868704700BF0C00001011F0FF01D8
:1019B000034600F0030239D08ABB026810B501EB80
:1019C000012E0EEB0E4E8EEA0204A2F1013323EA41
:1019D0000203A4F1013222EA0402134313F0803F10
:1019E0000FD150F8044F84EA0E0CA4F10133ACF18E
:1019F000013223EA040322EA0C02134313F0803F6E
:101A0000EFD0037823B936E010F8013F002B32D035
:101A10009942F9D110BD8A4228D09A0729D01A7864
:101A200018460133002AF6D110467047CAB9026839
:101A3000A2F1013323EA020313F0803F08D150F8EA
:101A4000042FA2F1013323EA020313F0803FF6D002
:101A500003785BB110F8013F002BFBD17047990769
:101A600005D0184613F8012B002AF8D17047184604
:101A7000DDE71846A1E7184610BD00BF2DE9F04785
:101A80008F681D46AF420B680C46164636D8B1F932
:101A90000CC01CF4906F0ED13D46184631462A46C4
:101AA000FFF7D8FEA368DF1B2368A7602B44002044
:101AB0002360BDE8F0874A69096902EB42025F1AB8
:101AC00002EBD2726B1C52103B44934292BF914680
:101AD00099461A461CF4806F804611D0114601F0D9
:101AE0007FFD824600B321693A4602F0E7FDA389F3
:101AF00023F4906343F08003A38105E02F46CCE7F5
:101B000003F07EFA824658B10AEB0703A9EB0707F8
:101B1000A760C4F810A0C4F8149023602F46BCE757
:101B20002169404602F064FEA3890C2243F0400381
:101B3000C8F800204FF0FF30A381BAE72DE9F04F3D
:101B40009368176883B09246002B74D04FF0000B57
:101B50008B680A6881460C465D4645E0B4F90C3056
:101B600013F4906F2CD0D4E90401161A01EB410252
:101B700002EBD272711C52102944914292BF9046DE
:101B800088460A465B0539D51146484601F028FDCE
:101B9000019000283DD03246216902F08FFDA289D4
:101BA000019B22F4906242F08002A2819819A8EB76
:101BB0000606A660C4F8148023612060A8462E465D
:101BC00032465946FFF746FEDAF80810A368226845
:101BD000A3EB08033244491BA3602260CAF8081033
:101BE00049B3D7E900B5083798461046002DF8D01C
:101BF0009D421E46B2D2A8462E46E1E7014648461F
:101C000003F0FEF903460028D0D12169484602F0CE
:101C1000EFFDA3890C2243F04003C9F800204FF0E8
:101C2000FF30A38100220023CAF80820CAF804303C
:101C300003B0BDE8F08F00200023CAF8043003B0E1
:101C4000BDE8F08F2DE9F04F1C468B891D069DB035
:101C500088468146934603D50B69002B00F0F1803E
:101C60000023099343F22003ADF829309BF800309C
:101C70007D4D03940126002B73D0DA4603E01AF859
:101C8000013F002B75D0252BF9D1BAEB0B0473D192
:101C90009AF80020002A64D000234FF0FF32CDE9EB
:101CA00005230AF1010A049307938DF853301A9320
:101CB00005E0049A06FA03F31A430492A246544636
:101CC000052214F8011B284603F0EAFDA346431B36
:101CD0000028EED1049BD80644BF20228DF8532063
:101CE00019079AF8001044BF2B228DF853202A2997
:101CF00050D1039A11680432002903927CDB0791CA
:101D00009AF801102E295BD0584C0322204603F08C
:101D1000C7FD38B1049B001B4022824013430BF1E6
:101D2000010B04931BF8011B51488DF82810062263
:101D300003F0B6FD002865D04E4B002B55D003AA0A
:101D400000924D4B424604A9484601F035F907463A
:101D50007A1C06D0099B3B4409939BF80030002B6A
:101D60008BD1B8F80C305B067AD409981DB0BDE869
:101D7000F08FBAEB0B04F4D023465A46414648464E
:101D8000FFF77CFE0130ECD0099B9AF80020234439
:101D900009937FE7A1F13002092A88BFD346B1D861
:101DA000079B00E00134217803EB830302EB43033C
:101DB000A1F13002092AF5D92E290793A346A3D110
:101DC0009BF801102A2927D1039B9BF802101A685F
:101DD00005920433002A0BF102000393B8BF4FF0C1
:101DE000FF338346B8BF05938EE7039B073323F089
:101DF000070308330393ADE7494243F00203079119
:101E000004937DE703AA00921B4B424604A948466F
:101E100003F034FA07469BE7A1F130020023092AB8
:101E200005930BF1010B3FF66FAF1BF8011F03EB9E
:101E3000830302EB4303A1F13002092AF5D905938C
:101E400062E7402101F0CCFBC8F80000C8F81000A0
:101E500018B14023C8F8143002E70C23C9F8003049
:101E60004FF0FF3082E700BF18011208200112086E
:101E700024011208B92F10087D1A100870B50F4BF5
:101E80000F4DAB42A3EB050607D0B610002455F862
:101E9000043B01349847A642F9D81AF0FDFA094DDF
:101EA000094B5E1BAB424FEAA60606D0002455F84C
:101EB000043B01349847A642F9D870BD6C02120861
:101EC0006C0212086C021208700212080EB470B58F
:101ED0009DB021AC00254FF4017254F8046BADF8AD
:101EE00014201B950290069003F0CAF80B4B0B933D
:101EF0000B4B03904FF6FF710790ADF81610186862
:101F00000F953246234602A91495019406F0B4FABF
:101F10001DB0BDE8704003B0704700BFE9791008FC
:101F20000C0000100CB4F0B59DB022AC00254FF4AD
:101F300001730646084654F8047BADF8143002914C
:101F400006911B9503F09CF80346039307930A4BF5
:101F50000B934FF6FF73ADF816303A4630462346E2
:101F600002A90F951495019406F086FA1DB0BDE8FC
:101F7000F04002B0704700BFE9791008036A2DE90C
:101F8000F041846880460E46002B3BD0A3891B0796
:101F900017D52369ABB1013EA36816F8015F013B79
:101FA000A360EDB1002B07DAA7699F4222462946BC
:101FB000404610DC0A2D0ED023685A1C22601D708A
:101FC000EAE72146404601F085FA0028E3D04FF0C9
:101FD000FF30BDE8F08102F069FC0130DCD1F6E7AA
:101FE000002B09DA22460A21404602F05FFC01304C
:101FF000EDD00A20BDE8F08123680A22591C216037
:102000001A70F6E700F052FCC0E700BF024B014631
:102010001868FFF7B3BF00BF0C00001001292DE9BD
:10202000F0415BD94FF00108C64600244FF0FF3560
:10203000434608E0A3EB05081C464FF0010E04EBF5
:102040000E03994210D900EB050CC75C1CF80E601A
:10205000B742EFD332D04FF001082546C64644447C
:1020600004EB0E039942EED80127C2F80080BE4669
:1020700000244FF0FF363B4607E09F1B1C464FF005
:10208000010E04EB0E03994210D900EB060C10F878
:1020900003801CF80EC0E045EFD817D00127264674
:1020A000BE463C4404EB0E039942EED80136681C50
:1020B000864201D317603046BDE8F081C6450ABFAD
:1020C00074440EF1010E4FF0010EB8E7BE450ABF91
:1020D00074440EF1010E4FF0010ED2E701270026E5
:1020E000E8E700BF2DE9F04F174687B005AA804604
:1020F0008946384619461C46FFF790FF059B029318
:1021000082460246F918384600F0B8FA00285FD136
:1021100044F400630193029BE31A06460546A9EBCB
:1021200004010393CAF1010BA9421BD35645334660
:1021300038BF53469C4223D9581EEA1838444244BB
:1021400002E001339C421BD012F801CB10F801EFE2
:10215000E645F6D09C4213D95D441D44A9424FF098
:102160000006E3D2019908EB090003F057FA814415
:10217000A9EB0401A942D9D2002007B0BDE8F08F35
:1021800056450AF1FF336FD205EB0A02424407EBD2
:102190000A00009502E09E4211D0734610F801CD6E
:1021A00012F8015DAC4503F1FF3EF4D0009D013310
:1021B00001369E4207D8029B039E1D44B4E70136B8
:1021C0009E42009DF7D908EB050007B0BDE8F08FEF
:1021D000A4EB0A03534538BF5346013301930593DB
:1021E00044F400630025A9EB040100930AF1FF36D3
:1021F000CAF1010BA94216D3544520D905EB0A02B6
:102200004244B819534602E001339C4217D012F8F9
:1022100001CB10F801EFE645F6D09C420FD95D44A2
:102220001D44A942E8D2009908EB090003F0F6F931
:102230008144A9EB0401A9429ED35445DED8BAF1EA
:10224000000FC0D005EB0A00404407EB0A0201E092
:10225000BB42B8D012F801ED10F801CDE6451346A7
:10226000F6D0019B1D44C5E75346A1E72DE9F04F89
:102270009346ADF21C4D05AA80468A46584619463B
:102280001C46FFF7CBFE134681460DF2144243F87D
:10229000044F9342FBD16CB1601E58440BF1FF32E6
:1022A00006AD12F8011FA31A013B5B44824245F8B8
:1022B0002130F6D1059B01934A460BEB03015846AA
:1022C00000F0DCF9002878D144F4006307460546A5
:1022D000AAEB040E0293661EAE4511D308EB050C63
:1022E00006AA1CF8063052F82330C3B11FB1019A78
:1022F0009A4288BFA31A1D44AE454FF00007EDD2A5
:1023000008EB0A00029903F089F98244AAEB040E53
:10231000AE45E3D200200DF21C4DBDE8F08F4F45D5
:102320003B4638BF4B469E4218D9591EEA185944BD
:102330004244009502E001339E420ED012F8010B98
:1023400011F8015F8542F6D09E42009D06D9C9F181
:1023500001022A44D5180027BEE7009D4F4509F128
:10236000FF3380F0818005EB090242440BEB090149
:102370000095CDF80C9002E09F4213D04B4611F827
:10238000015D12F8010D854203F1FF39F4D0009D83
:10239000DDF80C90013301379F4209D8019B1D44A1
:1023A000E71A99E701379F42009DDDF80C90F5D9B7
:1023B00060460DF21C4DBDE8F08FA4EB09034B45C0
:1023C00038BF4B4601330193059344F40063002565
:1023D000AAEB040E0093661EAE4509D308EB050078
:1023E00006AA835D52F823306BB11D44AE45F5D289
:1023F00008EB0A00009903F011F98244AAEB040EDD
:10240000AE45EBD286E7B14517D209F1FF3105EBB6
:102410000902594442444B4602E00133B3420CD016
:1024200012F8017B11F801CFBC45F6D09E4204D9C9
:10243000C9F101022A44D518CEE7B9F1000F3FF4E3
:102440006AAF05EB090141440BEB090202E05B4571
:102450003FF461AF12F801CD11F8017DBC45134680
:10246000F5D0019B1D44C1E74B4694E72DE9F041AF
:102470000D46097890B00446002954D06A78002AA5
:1024800000F08280AB78002B51D0E8782E680028CD
:1024900000F081802B79002B56D0284602F0F0FD09
:1024A000064640F40071204603F0B8F886425AD838
:1024B000FE2E00F28880801B27184022711C68467F
:1024C00000F08AF87EB16A1E5FFA86FC901912F855
:1024D000013F03F03F0340336B44A91A614490422B
:1024E00003F8401CF3D1013CA35D03F03F034033EC
:1024F0006B4413F8403C1C44A74203D238E04444E8
:10250000A74235D314F806C00CF03F0C0CF1400381
:102510000DEB030C3246294620461CF8408C00F097
:10252000ADF80028EBD1204610B0BDE8F08100786E
:1025300042EA0142B8B140EA03439A42214614F804
:10254000010FF7D14C1EEEE7227862B131BA01E0FB
:102550008B421ED042EA0323204614F8012F002AA2
:10256000F6D18B4215D00024204610B0BDE8F08192
:10257000BB5DB819002BF6D04FF4006103F04EF8A4
:102580000744A742AFD2EEE710B0BDE8F041FFF735
:102590000DBAC41EC7E7120442EA0162217842EA7A
:1025A00003230029DFD0024601E00029DBD041EA05
:1025B0000200B3EB002F25464FEA002214F8011F5A
:1025C000F3D1AC1EAFE7014633462A46204610B091
:1025D000BDE8F0414AE600BF830730B547D0541E3E
:1025E000002A3ED0CAB2034601E0013C39D303F8C9
:1025F000012B9D07F9D1032C2CD9CDB205EB052574
:102600000F2C05EB054535D9A4F1100222F00F0C73
:1026100003F1100EE6444FEA121C1A46C2E90055B7
:10262000C2E9025510327245F8D10CF1010214F0E2
:102630000C0F03EB021204F00F0C13D0ACF10403E7
:1026400023F003030433134442F8045B9342FBD1A9
:102650000CF003042CB1C9B21C4403F8011BA342C3
:10266000FBD130BD64461346002CF4D1F9E7034694
:102670001446C0E71A46A446E0E700BF032A30B478
:1026800015D941EA0004A40784460B4604D0541E21
:102690000FE0043A032A08D91946604653F8044B60
:1026A0005CF8045BA542F4D0F1E760461946541E7D
:1026B0007AB1431E0139021901E09A4209D013F898
:1026C000010F11F801CF6045F7D0A0EB0C0030BC32
:1026D0007047002030BC704700207047024A034911
:1026E000034802F0F3B900BF00000010A12D10084C
:1026F000100000100C4B4168994210B5044601D0FF
:1027000000F04EFBA168094B994202D0204600F030
:1027100047FBE168064B994204D02046BDE81040D3
:1027200000F03EBB10BD00BF644C0010CC4C00104C
:10273000344D0010002070472DE9F8432A4C2B49F6
:10274000DFF8BC90DFF8BC80294FC4F838110025B1
:1027500004230822294604F15C00264EE360C4E904
:102760000055C4E90455A5606566A561FFF734FF0F
:10277000214B63670822294604F1C400C4E90849D3
:10278000C4E90A87C4E91A55C4E91E552567C4F887
:10279000CC50C4F880502663FFF71EFF174BC4F8D7
:1027A000DC30294604F16803082204F59670C4F869
:1027B0008830C4E92398C4E92576C4E93455C4E9CE
:1027C0003855C4F8D850C4F83451C4F8E850FFF76D
:1027D00003FF04F1D003C4E93D98C4E93F76C4F88F
:1027E000F030BDE8F88300BF644C0010DD2610080F
:1027F0002D7A1008517A1008090001001200020019
:10280000C5791008ED791008F8B5254BD3F83831A3
:102810000646002B3CD0234FD7E90134013B04D5B9
:102820001DE05A1C04F1680419D0B4F90C50013BA6
:10283000002DF6D11C4BE360C4E90155C4E90455F1
:1028400065662560A5610822294604F15C00FFF752
:10285000C3FEC4E90D55C4E912552046F8BD3D68D4
:102860000DB12F46D8E74FF4D671304600F0B8FED0
:10287000044680B10423C0E900530C302946A0600F
:102880004FF4D0722546FFF7A7FE3C602F46C3E702
:10289000FFF752FFBFE70C2338603360DDE700BF6E
:1028A000644C0010000000100100FFFF036A03B138
:1028B0007047044B044AD3F838310262002BF7D139
:1028C0003AE700BF644C0010F5261008704700BFBF
:1028D000704700BF024A0349002002F0F7B800BF6A
:1028E00000000010D9261008024A0349002002F017
:1028F000EDB800BF000000103527100800000000F0
:1029000002780B78012A28BF9A4240F0D8806DE9FE
:10291000044540EA0104CDE902676FF0000C4FEA7C
:1029200044721AB380EA010414F0070F6BD100F06F
:10293000070420F0070004F0030521F007014FEA27
:10294000C505F0E8042314F0040FF1E804670CFA5D
:1029500005F462EA040266EA04060BD063EA0403A3
:10296000624667EA0407664604E000BFF0E8042315
:10297000F1E8046782FA4CF582EA0604A4FA8CF4C2
:102980006CBB83FA4CF583EA0705A5FA8CF595B97B
:1029900050E9022351E9026782FA4CF582EA060403
:1029A000A4FA8CF483FA4CF583EA0705A5FA8CF5B2
:1029B0002543DBD09CB92DBAB5FA85F424F0070481
:1029C00027FA04F1DDE9026723FA04F303F0FF00BC
:1029D00001F0FF01FDE80445A0EB0100704724BAB7
:1029E000B4FA84F424F0070426FA04F1DDE902675E
:1029F00022FA04F202F0FF0001F0FF01FDE80445B5
:102A0000A0EB0100704714F0030F3CD110F0030459
:102A100028D150F8082B51F8083B82FA4CF582EA8D
:102A20000305A5FA8CF55DB950F8042C51F8043C67
:102A300082FA4CF582EA0305A5FA8CF5002DE8D060
:102A40002DBAB5FA85F424F0070423FA04F122FA2A
:102A500004F202F0FF0001F0FF01FDE80445A0EBE5
:102A6000010070474FEAC40420F0030050F8082B1F
:102A700021F0030151F8083B0CFA04F462EA040265
:102A800063EA0403C9E710F003041DD0A1EB0401BD
:102A900020F00300E40750F8042B06D012D28B7804
:102AA0005FFAA2F4E41A06D12BB1CB785FFAB2F444
:102AB000E41A00D133B920465DF8104B7047A2EB01
:102AC0000300704701F1040150F8042BCC0721F0FA
:102AD000030151F8043B48D824D222F07F4482FA03
:102AE0004CF594EA1325A5FA8CF50AD165B951F88D
:102AF000043B84EA0204B4EB036F0ED150F8042BBC
:102B0000EBE74FEA132355E035F07F454DD10878C8
:102B1000FDE80445C0F1000070474FEA126203F07F
:102B2000FF0347E002EA1C4482FA4CF594EA13459D
:102B3000A5FA8CF50AD165B951F8043B84EA020480
:102B4000B4EB034F0CD150F8042BEBE74FEA1343DF
:102B500030E015EA1C4528D10B884FEA124229E0E3
:102B60004FEA124203EA1C4324E002F0FF0482FA17
:102B70004CF594EA1365A5FA8CF50AD165B951F8BC
:102B8000043B84EA0204B4EB032F09D150F8042B70
:102B9000EBE74FEA13630DE015F0FF0F05D10B686B
:102BA0004FEA122223F07F4304E04FF00000FDE8DB
:102BB0000445704712BA1BBA82FA4CF482EA030445
:102BC000A4FA8CF5B5FA85F402FA04F203FA04F3D8
:102BD0004FEA1260FDE80445A0EB1360704700BFA8
:102BE00008B5062002F0C0FD012008F0A5FE00BFD8
:102BF000002A3ED030B584460446084380070B4681
:102C00002ED1032A07D82BE0043A25D01EF0803FAE
:102C100022D1032A22D92068194653F8045BA0F177
:102C2000013EA842A4462EEA000E04F10404EBD0B3
:102C30009CF800000C7884421DD1E64668B11EF86D
:102C4000010F11F8014FA2EB0E03A04203F1FF3375
:102C500011D11CEB0303F1D1002030BDA44619466D
:102C60009CF800000C78A04205D1012AF4D0E64679
:102C7000E4E710467047001B30BD00BFB1F90C30CF
:102C80002DE9F0411E070C4680463DD44A68002AD3
:102C900056DDE56A002D34D00022D8F80060C8F86F
:102CA000002013F48052216A57D101234046A847DF
:102CB000451C024666D0B4F90C30E56A216A580713
:102CC00005D56368D21A636B0BB1236CD21A00234B
:102CD0004046A847431C42D0002363602369236019
:102CE000A389DF0400D56065616BC8F8006041B15D
:102CF00004F14403994202D0404601F079FD0023DB
:102D000063630020BDE8F0810E69002EF9D09B07B7
:102D10000D6808BF4B690E6018BF0023AD1B8B60A8
:102D20000BE02B463246216AA76A4046B847B0F10D
:102D3000000CA5EB0C05664406DD002DF1DCE0E798
:102D40000A6C002AA5DCDCE7B4F90C3043F0400340
:102D5000A3814FF0FF30BDE8F081626DAFE7D8F896
:102D60000010B4F90C301D29F0D80C4ACA40D50720
:102D7000ECD52269226000226260DA04B4D5002911
:102D8000B1D0B1E7D8F80030002B94D01D2B01D082
:102D9000162BD9D1C8F80060B3E700BF010040206E
:102DA0000B69B3B110B5044682B008B1036A5BB1D8
:102DB000B1F90C3013B9002002B010BD204602B0AA
:102DC000BDE81040FFF75ABF0191FFF76FFD019971
:102DD000EEE70020704700BFB8B138B50D4A03696F
:102DE000156804462BB10DB12B6A53B1B4F90C3000
:102DF0000BB9002038BD21462846BDE83840FFF712
:102E00003DBF2846FFF752FDF0E7034A0349044857
:102E100001F05CBE0C00001000000010A12D100895
:102E2000100000102DE9F04755EC104B84B0002D38
:102E30000D9E894692463DDB0027652E1F7035D0DA
:102E40003DDC452E32D0462E5AD1032103AB0193EF
:102E500002AB009345EC104B0C9B4A4600F0D6FCAD
:102E6000074626F02003462B07EB090805D13B78DF
:102E7000302B39D00C9B1B689844204629460022F1
:102E8000002306F0C9FD002838D1039B984506D9D8
:102E900030215A1C03921970039B4345F9D30E9AB3
:102EA000DB1B3846136004B0BDE8F08709F1010967
:102EB0000221CBE705F100422D271546BDE7662E1E
:102EC000C3D003AB019302AB009345EC104B0C9BBA
:102ED0004A46022100F09AFC672E0746C1D11AF03B
:102EE000010F1ED1039BDAE700220023204629466A
:102EF00006F092FDC0B10C9B1B6898444346CEE798
:102F000003AB019302AB009345EC104B0C9B4A467C
:102F1000022100F07BFC472E0746A2D11AF0010FD8
:102F2000E0D007EB0908A8E70C9AC9F10103136088
:102F3000A2E700BF70B50029BABF49422D232B2359
:102F4000092982B0027043702BDD0DF10704194D81
:102F5000A446A5FB0123DB0803EB8302A1EB42029D
:102F60008E463032BEF1630F66460CF8012C1946CE
:102F70000CF1FF3CEDDCB31E3031A3420CF8011C18
:102F800000F102050AD2421C13F8011B02F8011FCE
:102F9000A342F9D10DF109039B1B1D44281A02B06D
:102FA00070BD30231944051D8370C170281A02B00A
:102FB00070BD00BFCDCCCCCC2DE9F04F8DB00C4610
:102FC000DDF8588016461F46054601F0C1FC03682F
:102FD0000693184602F054F800230A93D8F80030FC
:102FE0000790073323F0070303F10802D4F800A089
:102FF00094F818B0C8F8002093ED007B8DED047BA9
:103000009DED047B53EC172B904623F0004984ED93
:10301000127B9F4B4FF0FF324046494606F02EFD93
:1030200040B99B4B404649464FF0FF3206F008FD41
:10303000002871D0DDE9040102460B4606F01EFDB2
:10304000002840F0298261684B1C4AF480620BF032
:10305000DF0832D0B8F1470F00F022810023226050
:1030600003930AAB029309AB00939DED040BCDF8DB
:1030700004B00DF123032846FFF7D4FE8146BBF1CF
:10308000650F099937D9BBF1660F00F028810A9BBB
:103090008B4240F32F810029D4BFC1F102020122EB
:1030A00013442361A1654FF0000A9DF82330002BE3
:1030B0004AD02D2384F8433046E0062100232260C5
:1030C000CDF804B0616003930AAB029309AB00939F
:1030D0009DED040B0DF123032846FFF7A3FEB8F185
:1030E000470F8146CBD10999C81C80F2F180ABF122
:1030F000020B5FFA8BFB01395A4604F1500009912B
:10310000FFF718FF0A9A1318012A8246236140F339
:10311000378101332361C8E7DDE904010022002380
:1031200006F084FC10B12D2384F843302AF0040209
:10313000584B2260584ABBF1470F8CBF91469946C5
:10314000032323614FF0000A009733460BAA214660
:10315000284602F001F8013023D0236858052BD40B
:1031600023694A4631462846B847013019D02268BB
:10317000E0680B9B920719D5984217DD4FF00008C5
:1031800004F1190904E0E0680B9BC21A42450DDD09
:1031900001234A4631462846B847013008F1010864
:1031A000F1D14FF0FF300DB0BDE8F08F9842B8BFBD
:1031B00018460DB0BDE8F08FBBF1650F33D9D4E9E7
:1031C00012010022002306F027FC002800F09A805C
:1031D000324A012331462846B8470130E1D0DDE9C3
:1031E000093A534502DB2268D107C1D5DDE9062340
:1031F00031462846B8470130D3D0BAF1010FB6DDC9
:103200000AF1FF3A4FF0000904F11A0801E0D14534
:10321000ADD00123424631462846B847013009F176
:103220000109F4D1BDE7DDF82880B8F1010F40F3C2
:10323000988001234A4631462846B8470130B0D02D
:10324000DDE9062331462846B8470130A9D0D4E944
:1032500012010022002308F1FF3B06F0DDFB0028ED
:1032600000F09380B8F1010F40F386804FF0000921
:1032700004F11A0801E0D9457ED0012342463146C7
:103280002846B847013009F10109F4D189E700BFA8
:10329000FFFFEF7F2C011208300112083C011208D9
:1032A00009B9012161600023226003930AAB0293F4
:1032B00009AB00939DED040BCDF804B00DF1230391
:1032C0002846FFF7AFFD09998146C81CFFF60FAFEE
:1032D000636899423FF70BAF4FF0670BD7E60029C1
:1032E000636856DD2161002B00F0858001330B44BB
:1032F0002361D7E623682161DB077FF5D3AE4B1C42
:103300002361CFE6099B002B4ADD0A9BD4F858B015
:1033100004935B45A8BF5B46002B984608DD4A46F0
:1033200031462846B84701303FF43BAFD4F858B097
:1033300028EAE87293456BDD4FF0000A04F11A08A1
:10334000934604E0A36DA3EB0B0252455FDD01231E
:10335000424631462846B84701300AF1010AF1D108
:103360001FE7D9073FF565AF4A4601233146284696
:10337000B84701303FF415AF534604F15002F1E66F
:103380002268D2077FF591AEC3E65B4609F10102E0
:10339000ECE7002B34D12268D20731D4012380E638
:1033A000494A012331462846B84701303FF4F9AE77
:1033B000DDE9093A5AEA030324D0DDE90623314660
:1033C0002846B84701303FF4ECAE099B002B78DA71
:1033D0004FF0000B04F11A0803E0099B5B425B45C8
:1033E0006FDD0123424631462846B84701300BF1D4
:1033F000010BF2D1D5E62268D0077FF553AE75E711
:1034000002334EE62268D3077FF5B2AED5E79B467E
:10341000099B049A9A4202DC2268D00708D5DDE9AC
:10342000062331462846B84701303FF4BAAE099B1F
:10343000049AA2EB0B0AD31A9A45A8BF9A46BAF18E
:10344000000F0BDD09EB0B02534631462846B84707
:1034500001303FF4A6AE099B049AD31A2AEAEA7A0D
:1034600053457FF784AEDDF810B04FF0000904F14A
:103470001A0807E0099BABEB0303A3EB0A034B45D8
:103480007FF775AE0123424631462846B8470130E2
:1034900009F10109EED184E6059B0C4A002BBCBF63
:1034A0002D2384F843302AF004032360084BBBF13A
:1034B000470F8CBF91469946032323614FF0000AC2
:1034C00042E653464A464DE63C01120838011208CE
:1034D0003401120838B52F4B1B6805460C4613B152
:1034E0001A6A002A4BD0B4F90C3018071CD522698F
:1034F00022B313F0010107D0616900204942A060A6
:10350000A1613AB1002038BD980758BF6169A16038
:10351000002AF7D1190658BF1046F4D543F04003EE
:10352000A3814FF0FF3038BDD9062CD55A0712D4ED
:10353000226943F00803A381002ADAD103F4207141
:10354000B1F5007FD5D02146284601F0DDFFB4F962
:103550000C302269CDE7616B51B104F14402914214
:1035600004D0284601F044F9B4F90C30002262631B
:1035700022690021C4E9002123F02403D9E7184679
:10358000FFF794F9AFE7092243F040032A60A381D3
:10359000C7E700BF0C00001070B5104E3368054639
:1035A0000C46B3B12146284603F006F9431C0CD063
:1035B000C41C24F00304A04205D0211A284603F0BD
:1035C000FBF8013001D0204670BD4FF0FF3420469B
:1035D00070BD194603F0F0F83060E3E7A04D00102D
:1035E0002DE9F843CD1C25F0030508350C2D38BF17
:1035F0000C25002D064618DBA94216D8DFF8DC8022
:1036000001F07EFFD8F80420A2B1144603E06368FD
:1036100022467BB11C4623685B1BF8D40B2B1FD8BA
:103620009442636854D053600CE00C233360002054
:10363000BDE8F88329463046FFF7AEFF431C044639
:1036400019D00560304601F05DFF04F10B00231D29
:1036500020F00700C21A1CBF1B1AA350BDE8F88354
:1036600061199442256014BF5160C8F80410635179
:1036700063684B60E6E7D8F804701FB33C467F6888
:10368000002FFBD123683946304604EB030903F0D1
:1036900093F8814516D12368ED1A29463046FFF785
:1036A0007BFF01300ED02368D8F804202B44236020
:1036B000536883B1A34203D01A465B689C42FBD196
:1036C0000023B0E70C233360304601F01BFFAEE768
:1036D000C8F80430B6E7C8F80470B3E7A04D00108E
:1036E0002DE9F04F03690C69A34283B0C0F28A80D0
:1036F000013C01F1140500F1140855F8243058F884
:10370000242001339A428E4681464FEA840105EB1C
:10371000840708EB840AB2FBF3F63AD3CDE900152F
:103720000022AC46404613465CF8041B05681FFAAD
:1037300081FB06FB0B22090C4FEA124B06FB01BB77
:1037400092B2A9B2891A19441FFA8BF3C3EB214331
:1037500003EB154389B241EA0341674540F8041B76
:103760004FEA1B424FEA2343DED2DDE9001558F849
:10377000013073B9AAF1040AD04504D307E0D0455B
:1037800004F1FF3403D25AF80439002BF7D0C9F8FA
:1037900010407146484602F095FD00282EDB414658
:1037A000002255F8040BD1F800C01FFA80FE1FFA62
:1037B0008CF3A3EB0E031344020CC2EB234202EB87
:1037C0001C429BB243EA0243AF4241F8043B4FEA3A
:1037D0002242E6D258F8242008EB84036AB9043B5D
:1037E000434504D807E0984504F1FF3403D253F869
:1037F0000429002AF7D0C9F810400136304603B03A
:10380000BDE8F08F002003B0BDE8F08F2DE9F04F48
:10381000C5699DB08DED060B269C049057EC106B8E
:1038200002910B920993002D00F0B183296851B1E8
:103830006A684A60012393408B6002F075FA049B2A
:10384000DB6900221A60B7F10009B4BF012300232D
:103850002360774BBCBF29F00049CDF81C9033EAB8
:10386000090300F0AC809DED067B002251EC170BA4
:1038700000238DED007B06F0CFF8804668B1099AF1
:1038800001231360279B13B1279A6A4B13606A4B7D
:10389000059305981DB0BDE8F08F9DED000B0498D1
:1038A0001AAA1BA902F07CFE5FEA1955824640F075
:1038B0009C80DDE91A85454405F23243202B40F314
:1038C0009B83C3F1400309FA03F905F2124326FA78
:1038D00003F349EA030005F0BDFD0123013DA1F119
:1038E000F8711293554B002205F076FC4AA3D3E9F8
:1038F000002305F029FE4AA3D3E9002305F06EFC5E
:10390000064628460F4605F0B5FD47A3D3E9002338
:1039100005F01AFE02460B463046394605F05EFCBD
:1039200006460F4606F0C0F8002204460890002321
:103930003046394606F07AF8002840F03683089C75
:10394000A8EB0508162C08F1FF3B00F214833C4B52
:1039500003EBC403D3E90023DDE9000106F066F8B8
:10396000002873D0631E0893BBF1000F4FF00003D3
:103970001193C0F2068300230C93089B002B6BDA93
:10398000089B0C9A0D93D21A0C925A42002308936A
:10399000029B1092092B67D8052BC4BF043B0293EE
:1039A000029BA3F10203CCBF00250125032B00F2EB
:1039B0004986DFE813F07C04790470045204099A04
:1039C000C9F3130942F20F7359EA060913601CD1B7
:1039D000279B002B00F02D861A4B05930833279A5E
:1039E000059813601DB0BDE8F08FDDE90012C2F349
:1039F0001303084643F07F51CDF84880A5F2FF3508
:103A0000DDF8688041F440116CE7279B002B40F003
:103A100000840D4B05933CE761436F63A787D23F5A
:103A2000B3C8608B288AC63FFB799F501344D33FAD
:103A30000000F07F3D0112083C0112080000F83F31
:103A4000F8FC1108400112084C011208B8F1000FEF
:103A500040F3AF8411900C90089B0D939B4400237E
:103A60001093029B092B97D900234FF0FF32CDE929
:103A70000A23012502930E95049BDB6900215960FE
:103A80000A9B1393049802F00FF90590002800F0A8
:103A9000E285049B059ADB691A600A9B0E2B00F2F3
:103AA0000D81002D00F00A810D99002940F3518409
:103AB000AE4B01F00F0203EBC203C805D3E9008946
:103AC0004FEA211540F11584A94BDDE90001D3E946
:103AD000082305F063FECDE9140105F00F05032767
:103AE0007DB1A34EE90708D540464946D6E90023F3
:103AF00005F02AFD0137804689466D1006F108065B
:103B0000F0D142464B46DDE9140105F047FE804600
:103B10008946119B43B1974B00224046494605F028
:103B200085FF002840F01785384605F0A3FC424683
:103B30004B4605F009FD904B002205F04FFBA1F12B
:103B40005073CDE9140115930A9B002B00F09D8062
:103B50000D9B19930A9B18934946404605F0A4FF14
:103B6000189A824B03EBC20313ED027B05468DEDE1
:103B7000167B05F07FFC0B4602464946404605F0A1
:103B80002BFB059F0E9B30357E1CECB28046894690
:103B90003546002B00F07284DDE9162377490020BA
:103BA00005F0FCFDDDE9142305F016FB3C704246F0
:103BB0004B4604460D4605F057FF002840F0BF84F1
:103BC000CDF858B0CDF850A0AB460027189DA246BE
:103BD0002AE00137AF4280F20685694B50465946CC
:103BE000002205F0B1FC664B002282468B4640461F
:103BF000494605F0A9FC8946804605F055FF044674
:103C000005F038FC02460B464046494605F0E4FA0A
:103C1000303406F8014B52465B468046894605F033
:103C200005FF002840F0DC8442464B465149002005
:103C300005F0D2FA52465B4605F0F8FE0028C8D0DF
:103C4000199BDDF850A0059A374603F1010802E000
:103C5000974200F0A6843E4617F8013D392BF7D075
:103C60000133DBB23B70454674E1384605F002FC97
:103C700042464B4605F068FC3F4B002205F0AEFA89
:103C8000A1F15073CDE9140115933E4B002240463B
:103C9000494605F0A1FADDE9144522462B460646C1
:103CA0000F4605F0E1FE002840F08A843046394690
:103CB000224605F1004305F0B9FE28BB1B9B002BF3
:103CC000C0F292800D9A0E2A00F38E80274B0D9A37
:103CD00003EBC20393ED007B0B9B002B8DED027B6E
:103CE00019DA0A9B002B16DC0ED1264B0022DDE9E7
:103CF000020105F029FC02460B46DDE9000105F052
:103D00009FFE002800F05C840023059E00931F4660
:103D10000B9BDD4344E2059B5D1CDDE90278DDE998
:103D200000013A46434605F039FD05F0BDFE064662
:103D300005F0A0FB3A46434605F006FC02460B465A
:103D4000DDE9000105F048FA059A06F13003137029
:103D50000A9B012B2F4600F037830125CDF800A0E8
:103D6000A846DDE902AB99462CE000BFF8FC11083B
:103D7000E8FD11080000F03F00001C400000E03F9B
:103D8000000024400000144052465B46204629466D
:103D900005F004FD05F088FE064605F06BFB524673
:103DA0005B4605F0D1FB08F101080B4602462946A7
:103DB000204605F011FA06F13003C84507F8013B2B
:103DC00000F000838F4B002205F0BEFB0022002391
:103DD00004460D4605F020FE0028D5D00D9DDDF8E7
:103DE00000A001353E46B5E00E9A002A40F0F18071
:103DF0000023109E0C9D0E931F4665B1BBF1000F72
:103E000009DD5D450C9A2B46A8BF5B46D21A0C9281
:103E1000ED1AABEB030B109B53B10E9B13B1002EAD
:103E200040F00B835146109A049802F067F98246DD
:103E30000498012102F096F8089B0090002B40F0B6
:103E4000D381029B012B40F3E9810120584410F0FB
:103E50001F0000F0B780C0F12003042B40F3F8816D
:103E60000C9BC0F11C0003440C93054483440C9B41
:103E7000002B05DD514604981A4602F0AFF9824640
:103E8000BBF1000F05DD009904985A4602F0A6F92F
:103E90000090119B002B40F08C810A9B002B40F37B
:103EA00064810E9B002B40F0BC800D9D0135DDF838
:103EB0001480009CDDF828B0DDF81090012607E0A2
:103EC000514600230A22484601F052FF013682463D
:103ED00021465046FFF704FCB34500F1300008F8D6
:103EE000010BEDDC0A9B002BC8BF1E46059BD8BF0B
:103EF0000126814603EB060B00245146012204985B
:103F000002F06CF90099824602F0DCF9002840F3D7
:103F10000382059A02E0934500F016825E460BF19B
:103F2000FF3B16F8013C392BF5D001338BF80030FC
:103F3000DDF810800099404601F0F6FE57B12CB133
:103F4000BC4203D02146404601F0EEFE04983946BB
:103F500001F0EAFE0498514601F0E6FE00233370BA
:103F6000099B1D60279B002B3FF493AC05981E60B6
:103F70001DB0BDE8F08F0123BBF1000F1193BFF618
:103F8000FAACC8F101030C934FF0000BF5E41020DC
:103F900000F0BEFD049B0246D861002800F04D836E
:103FA000C0E90055C0E902554DE4204605F062FA2B
:103FB00032463B4605F030FD00287FF4C0AC631E5E
:103FC0000893BCE41C230C9A1A440C921D449B4495
:103FD0004DE7029A012A40F3AA810A9B109A5E1EBD
:103FE000B242C0F26781002BA2EB060680F2EC829F
:103FF0000C9B0A9A9D1A6AE1C3F1200306FA03F0AA
:1040000069E400BF000024403946002304980A22D6
:1040100001F0AEFE139B002B074640F3FE820D9687
:104020000A93002D05DD394604982A4602F0D6F899
:104030000746089B002B40F0E481B846059E0A9C89
:10404000731E1C44069B03F00103CDE90B43049C43
:1040500000995046FFF744FB39468346504602F02C
:1040600031F9009905464246204602F04DF9C368F1
:104070000BF130090146ABBB0A90504602F022F921
:104080000A990890204601F04FFE089A002A54D160
:10409000029B1BB90C9B002B00F0AB82002D3FDB79
:1040A0000B9BB346B3420BF8019B00F0C181514614
:1040B00000230A22204601F05BFE4745824639462E
:1040C0004FF000034FF00A02204630D001F050FEBE
:1040D0004146074600230A22204601F049FE5E467B
:1040E0008046B5E7049801F01FFE002D06DB069B15
:1040F00003F00102029B1D432A4329D151460122AC
:10410000049802F06BF80099824602F0DBF8002870
:1041100040F3F680B9F1390F00F048820BF1310914
:104120000D9D06F8019B3C460135474600E701F02E
:104130001FFE5E46074680468AE7002DC0F29D823C
:10414000029B1D430C9B1D4300F09782002AA7DDB4
:10415000B9F1390F00F02A820D9D09F101033C46A7
:1041600006F8013B01354746E2E6029B022B7FF74A
:1041700098AE0A9B002B40F02381009904980522F9
:1041800001F0F6FD01460090504602F09BF8002831
:1041900040F31681059E0D9D312306F8013B013544
:1041A0000099049801F0C0FD0135002F7FF4CEAED8
:1041B000D0E60099504602F085F80028BFF66DAEB3
:1041C0005146002304980D9C0A2201F0D1FD0E9B5C
:1041D000661E8246002B7FF417AF139B002B40F323
:1041E0000F820D9D0A9362E601461A46049801F07B
:1041F00085FF029B0090012B6FDD00230893009A3E
:10420000136902EB8303186901F05AFEC0F1200024
:104210001CE6964B05930333FFF7E1BB069B002B8F
:104220007FF413AEDDE90612C2F31303002B7FF413
:104230000CAE8F4B13402BB10C9B01330C930BF145
:10424000010B0123089A0893002A3FF4FEADD6E73C
:104250003FF40DAEC0F13C03B5E601230E930B9B7A
:104260000D9A134413930133012B1F460A93B8BFD1
:104270000127049B172FDE6940F2FB8101220423F2
:104280005B0003F11400B842114602F10102F7D9B4
:104290007160FFF7F7BB01230E930B9B002B36DDFC
:1042A0001F4613930A93E4E700230E93D7E70023F6
:1042B0000E93F2E7109B089A1096F31A1A4408928C
:1042C0000A9B0C9A15461A449B440C9200260498AB
:1042D000012101F047FE07468FE5069B002B8CD19C
:1042E000DDE90601C1F313030A46002BA1D00890B3
:1042F00085E79DED007B02278DED147BFFF7F0BB7A
:104300007FF40EAF19F0010F7FF404AF08E701232B
:10431000CDE90A33FFF7B0BB03D119F0010F7FF4E9
:10432000F8AD5E461BF8013D302BFAD000E6129A3C
:10433000002A00F0078103F233430C9A109E1546C1
:104340001A449B440C92C2E7059A3123013513703D
:10435000EEE500F0FB800D9A464B554205F00F024A
:1043600003EBC203D3E90023DDE9000105F0ECF81B
:104370002D11CDE9140100F057813F4E0023022793
:1043800080468946EA0709D5D6E9002340464946D2
:1043900005F0DAF801378046894601236D1006F1F1
:1043A0000806EFD1002B7FF4B4ABDDE91489FFF7E9
:1043B000B0BBC8F1010383460C931190FFF74CBBCF
:1043C000059EA5E4DDF800A002460B4604F006FFBA
:1043D0000D9D02460B46CDE900230135DDE90223A0
:1043E000A84605F041FB40B9DDE90223DDE9000103
:1043F00005F012FB18B1F30701D5059A2BE43E46F0
:10440000A8E57968049801F04FFC0546002800F003
:1044100029813B6902339A0007F10C010C3000F04E
:104420004DF904982946012201F0D8FE804605E6A0
:104430000D9D3C46013547465FE5049C39463246B2
:10444000204601F05BFE524601460746204601F039
:104450009FFD51468046204601F066FC109B9B1B49
:10446000C24610933FF4E4ACDCE400BF4C011208F8
:104470000000F07FF8FC1108E8FD1108DDE91623C3
:10448000DDE9140105F060F8059B1C70189B012BF9
:10449000CDE90E0100F0BF80189F059B12961F44C6
:1044A0007E4B00224046494605F04EF80D46044634
:1044B00005F0FAFA814604F0DDFF09F13009024601
:1044C0000B462046294604F087FE06F8019BB742BA
:1044D00080468946E4D1129D714B0022DDE90E0130
:1044E00004F07CFE02460B464046494605F0BCFA05
:1044F00000286FD1DDE90E236949002004F06CFE2D
:1045000002460B464046494605F090FA88B91B9B87
:10451000002BFFF66DAC0D9B0E2B3FF769AC614B8A
:104520000D9A03EBC20393ED007B8DED027BFFF749
:10453000F4BB3E46013F16F8013C302BF9D0199DE3
:10454000013507E51A9BC3F13603F6E6DDE900897C
:104550000227FFF7DEBA0A9B002B3FF486AB139CC1
:10456000002C7FF7ABAB0D9B013B00224046494638
:1045700019934A4B04F0E8FF80468946781C04F002
:1045800079FF42464B4604F0DFFF474B002204F020
:1045900025FEA1F15073CDE9140118941593FFF78E
:1045A000DBBA08F101083123FFF75CBB0D9D059ACA
:1045B000B34639233C460BF8013B01354746ADE491
:1045C000002300931F46E5E50C9A15461A449B44C8
:1045D0000C927CE6199B059A03F10108FFF73BBB9F
:1045E000DDF850A0ABE7DDF858B0DDF850A0FFF7DC
:1045F00065BBB9F1390FD9D0002D3FF78FAD8FE5ED
:10460000029B022B03DC139B0D9D0A934FE4139B2B
:104610000A930D96ADE537465EE7029B022BF6DC6A
:10462000139B0D960A93FCE4DDE914890227FFF73A
:1046300070BA1E4B0593FFF72CB91D4B1D48EF2197
:10464000FDF788F90498C36900255D60294601F0EB
:104650002BFB0590A8B9184B1648002240F2AF1169
:10466000FDF778F9144B13482A4640F2EF21FDF785
:1046700071F900217160FFF705BA002A3FF73EADDE
:104680004EE5049B059ADB690B951A604FF0FF33EA
:10469000012213930E920A93FFF710BB00002440EF
:1046A0000000E03FF8FC110800001C404001120827
:1046B00094001208500112087C011208844641EA55
:1046C000000313F003036DD1403A41D351F8043B8A
:1046D00040F8043B51F8043B40F8043B51F8043BDC
:1046E00040F8043B51F8043B40F8043B51F8043BCC
:1046F00040F8043B51F8043B40F8043B51F8043BBC
:1047000040F8043B51F8043B40F8043B51F8043BAB
:1047100040F8043B51F8043B40F8043B51F8043B9B
:1047200040F8043B51F8043B40F8043B51F8043B8B
:1047300040F8043B51F8043B40F8043B51F8043B7B
:1047400040F8043B51F8043B40F8043B403ABDD2EA
:10475000303211D351F8043B40F8043B51F8043B8C
:1047600040F8043B51F8043B40F8043B51F8043B4B
:1047700040F8043B103AEDD20C3205D351F8043B1B
:1047800040F8043B043AF9D2043208D0D2071CBFE7
:1047900011F8013B00F8013B01D30B880380604610
:1047A000704700BF082A13D38B078DD010F0030386
:1047B0008AD0C3F10403D21ADB071CBF11F8013BF6
:1047C00000F8013B80D331F8023B20F8023B7BE745
:1047D000043AD9D3013A11F8013B00F8013BF9D270
:1047E0000B7803704B7843708B788370604670470A
:1047F000002950D038B551F8043C0C1F002BB8BF2D
:10480000E418054600F07CFE274A13682BB1A3424A
:104810000CD92168601883422CD06360284614604C
:10482000BDE8384000F06EBEA3420FD81A465B6860
:10483000002BF9D111685018844217D02CD3636033
:1048400054602846BDE8384000F05CBE116850183E
:10485000A04214D020D8216860188342EFD1186894
:104860005B680844C4E900035460EAE723680B442A
:104870001360E6E718685B6808442060CDE72068AD
:104880000144501883421160DBD1D3E90004014494
:10489000C2E90014D5E770470C232B602846BDE819
:1048A000384000F02FBE00BFA44D0010F8B50D46F3
:1048B0001446064610B1036A002B37D0A389A269BB
:1048C000A2601A0719D52369BBB122686169D31A9E
:1048D000EDB299422F4620DD0133A1680139A16074
:1048E000511C2160157062699A420DD0A389DB07C3
:1048F00001D50A2D08D03846F8BD21463046FEF7CE
:10490000E9FD38B92369E0E721463046FEF748FA69
:104910000028F0D04FF0FF37EDE721463046FEF794
:104920003FFA0028F6D122680123D6E7FDF7BEFF43
:10493000C4E700BF10B4044C03460A4620685DF883
:10494000044B1946FFF7B2BF0C000010F03070475F
:10495000004870474C010010004870474C0100109F
:10496000242B2DE9F84F43D8012B41D080464948EC
:104970001F468E4675461EF801BB10F80B4014F01A
:104980000804F7D1BBF12D0F6FD0BBF12B0F08BF7F
:104990009EF800B06FF0004908BF05F1020E73BB2E
:1049A000BBF1300F4BD00A273B460025B9FBF7F689
:1049B000284607FB169A05E03AD007FB00C0012500
:1049C0001EF801BBABF1300CBCF1090F06D9ABF1FD
:1049D000410CBCF1190F19D8ABF1370C63451EDD42
:1049E000B5F1FF3FECD08642E6D24FF0FF35E7E766
:1049F000FCF7D6FF162303600020BDE8F88F102BCC
:104A0000D3D1BBF1300F23D01F46CEE7ABF1610C01
:104A1000BCF1190F03D8ABF1570C6345E0DC6B1CFC
:104A20002BD054B9002AE8D085BB1160BDE8F88FBF
:104A3000E245C2DA4FF0FF35C2E74042F2E79EF8A6
:104A4000003003F0DF03582B08D008273B46ACE7C3
:104A50009EF8000000F0DF005828D5D110279EF8FE
:104A600001B03B460EF1020E9FE79EF800B04FF0FA
:104A7000004905F1020E012491E72223C8F8003015
:104A800032B10EF1FF3148461160CFE78146F8E7B9
:104A90004846B2E7E1FB110862E700BF10B4044CDE
:104AA0008446134620685DF8044B0A46614657E782
:104AB0000C00001010B4044C8446134620685DF8C6
:104AC000044B0A4661464BE70C0000102DE9F84301
:104AD0000746884616464FF00009D6E90154013DC5
:104AE00010D4A389012B08D9B4F90E300133214623
:104AF000384602D0C04749EA0009013D6B1C04F169
:104B00006804EED13668002EE7D14846BDE8F88348
:104B1000024B01461868FEF763BD00BF0C00001091
:104B2000024B01461868FFF763BE00BF0C0000107F
:104B30002DE9F04F0C4687B0896805934B1EB3F5FD
:104B4000AE7F0646904640F2BB8127466FF4AE70BA
:104B500057F81C3B01EB000E40F25D11A16043F4DD
:104B6000F0634FF0000A236043463D46B046D3460B
:104B7000CDF810A0CDF808A0D146CDF804A00A4683
:104B8000CDF80CE01E4633681878A0F12B034E2BAD
:104B900070D8DFE813F0C9006F00C90023016F006F
:104BA0004F00530053005300530053005300530071
:104BB000530053006F006F006F006F006F006F00B5
:104BC0006F001C016F006F006F000101FA006F00A1
:104BD0006F00EB006F006F006F006F00DC006F0074
:104BE0006F006F006F006F00D6006F006F006F00E6
:104BF0006F00D0006F006F006F006F006F006F00DC
:104C00006F001C016F006F006F000101FA006F0060
:104C10006F00EB006F006F006F006F00DC006F0033
:104C20006F006F006F006F00D6006F006F006F00A5
:104C30006F00D0002368D90500F135811BEB0A0312
:104C400018D19A46236823F4C0732360D34605F82D
:104C5000010BA268013A2369A260013323617368E2
:104C6000013B002B736040F3C38033680133336032
:104C7000002A88D1334646469846B9F1000F03D042
:104C8000236823F4807323600BF1FF32012A40F282
:104C9000D0800AF1FF33062B1AD8BAF1020F40F286
:104CA0004381BAF1030F13D0AAF1040A5FFA8AFA1A
:104CB0006FEA0A0AAA44D4F87C3115F8011D42466D
:104CC000304698472369554503F1FF332361F2D1FC
:104CD0002268D00520D5510500F13781236915F8E8
:104CE000011C013B6529236105F1FF3A0DD04529DF
:104CF0000BD0D4F87C31424630469847236915F8EA
:104D0000021C013B2361A5F1020A4246D4F87C3122
:104D1000304698472268554612F0100200F0A380F2
:104D2000002007B0BDE8F08F23681906A2D523F054
:104D3000800323608BE7BAF1070F9BD14FF0080A7D
:104D400085E7BAF1060F95D14FF0070A7FE7BBF16F
:104D5000000F40F08180B9F1000F00F0B980BAF186
:104D6000010F0DD0BAF1040F0AD083E7BAF1000F9A
:104D70004BD0BAF1030F03D0BAF1050F7FF47AAF2D
:104D80000AF1010A5FFA8AFA61E7BAF1020F7FF4C9
:104D900071AF4FF0030A5AE7236803F4A062B2F53B
:104DA000806F05D059057FF565AFB9F1000F36D09A
:104DB0009A0504D4019A0495A9EB0202029223F405
:104DC000F06343F4C07323604FF000093FE7BBF189
:104DD000010F7FF44FAF4FF0020B38E723689A05BD
:104DE0007FF548AF23F420732360CDF804902EE7BD
:104DF000D4F8803131464046984700287FF43AAFD6
:104E0000A268002A7FF4BFAE34E7B9F1000F6CD17D
:104E1000236803F4E062B2F5E06F00F0BF800BF1AD
:104E2000FF323346012A46464FF0000998463FF6C6
:104E300030AFBD420CD9D4F87C3115F8011D424683
:104E4000304698472369BD4203F1FF332361F2D115
:104E5000012007B0BDE8F08FBBF1020F7FF47FAFF8
:104E60004FF0030BF3E62A70236803F4C063B3F535
:104E7000806F3ED0029B002B40F087800022394695
:104E8000304602F0BBFC23689A0757EC106B40D504
:104E900005990B681A1D0A601B6883ED000BE36817
:104EA0000133E3603CE723F080032360039B09F1B7
:104EB0000109002B3FF4CDAE039B013B0393CAE6EF
:104EC00027464FF0000E57F81C3B43F4F06348E6CA
:104ED000236803F4E062B2F5E06F7FF440AF23F49F
:104EE000F06323604FF0010BB1E633464646984627
:104EF000C6E6019B9945C1D0A3EB090204F26F13EA
:104F00009D4228BF04F5B7752A492846FCF700FCE6
:104F1000B4E7059802685B0702F1040125D501603A
:104F2000136883ED000BBAE7BD4291D9D4F87C3108
:104F300015F8011D4246304698472369BD4203F1EA
:104F4000FF332361F2D1012083E7BD4280D9D4F839
:104F50007C3115F8011D4246304698472369BD4211
:104F600003F1FF332361F2D172E7059B19601568E5
:104F70003B4632463046394604F080FDA0B9304603
:104F8000394604F0D9FD286089E7049D0A23691C8D
:104F90003046FFF781FD029BC21AAFE723F4F063AE
:104FA00023604FF0010A52E6034800F077FE85EDDA
:104FB000000A74E790011208E40012080CB400B56E
:104FC00083B004AB53F8042B019300F023FD03B02E
:104FD0005DF804EB02B070470EB410B583B005ABBA
:104FE000064C53F8042B01930146206800F012FD93
:104FF00003B0BDE8104003B0704700BF0C000010C4
:105000002DE9F041144641B30AB306460D4602F0BD
:1050100023FD8442074602D8B4EB500F13D8214633
:105020003046FEF7DDFA804650B1BC4222462946A2
:1050300028BF3A46FFF742FB29463046FFF7D8FB28
:105040004046BDE8F081A8464046BDE8F081A04654
:10505000FFF7CEFB4046BDE8F081BDE8F0411146C8
:10506000FEF7BEBA000000000000000000000000D3
:105070000000000000000000000000000000000030
:1050800030B490F800F020F007016FF0000C10F041
:10509000070491F820F040F048804FF000046FF0D2
:1050A0000700D1E9002391F840F000F1080082FAEE
:1050B0004CF2A4FA8CF283FA4CF3A2FA8CF34BBBB9
:1050C000D1E9022382FA4CF200F10800A4FA8CF232
:1050D00083FA4CF3A2FA8CF3E3B9D1E9042382FA00
:1050E0004CF200F10800A4FA8CF283FA4CF3A2FA15
:1050F0008CF37BB9D1E9062301F1200182FA4CF24D
:1051000000F10800A4FA8CF283FA4CF3A2FA8CF3B3
:10511000002BC6D0002A04BF04301A4612BAB2FAD5
:1051200082F200EBD20030BC7047D1E9002304F0DA
:105130000305C4F100004FEAC50514F0040F91F80F
:1051400040F00CFA05F562EA05021CBF63EA0503AC
:1051500062464FF00004AAE72DE9F84F92461F4639
:105160000A698B68DDF828909A42B8BF1A46CAF8D7
:10517000002091F843300C46064613B10132CAF8BC
:105180000020226891065FD5DAF800300233CAF8B1
:105190000030226812F0060F11461DD1E1689942D5
:1051A000D8BF114618DD4FF0000804F1190B05E0D7
:1051B000E568DAF80030ED1A45450CDD01235A4662
:1051C00039463046C847013008F10108F0D14FF0A8
:1051D000FF30BDE8F88F216894F84330003B18BFDA
:1051E00001238A060AD5E1185A1C302081F84300B1
:1051F000224494F8451082F84310023304F143022C
:1052000039463046C8470130E1D02368DAF800500B
:10521000216903F00603042BD4E902201BD08A4243
:1052200020DD4FF00008521A90441A34002501E0A6
:10523000454517DA0123224639463046C847013032
:1052400005F10105F4D1C2E712F0060F0DD0003BC5
:1052500018BF0123D2E7401B8A4220EAE078E2DC53
:105260000028E2DC0020BDE8F88FE168DAF80030C1
:105270009942D8BF114696DCAEE700BF2DE9F04752
:10528000174684B00A7E0C9D0C460646984601F1EE
:10529000430C002A35D0A2F15803D9B2202969D88D
:1052A000202B67D8DFE813F0E60066006600660092
:1052B0006600660066006600660066006600AC0078
:1052C000700066006600660066007000660066009A
:1052D0006600660021008300C60066006600B60016
:1052E0006600830066006600EC002B682268616936
:1052F000181D286010061B6802D4520600F1E080D9
:1053000019600023E1462361CDF800803B4603AAE3
:1053100021463046FFF720FF013020D023694A465E
:1053200039463046C047013019D02368E068DDF8BF
:105330000C909B0718D5484516DD002504F1190A85
:1053400004E0E068A0EB0903AB420DDD0123524607
:1053500039463046C047013005F10105F1D14FF023
:10536000FF3004B0BDE8F0874845B8BF484604B0F8
:10537000BDE8F08784F84220012004F142090023AF
:10538000206184F84330BFE72A682368111D18069E
:10539000296002D4590600F1958010680146002862
:1053A0006268C0F2938054484FF00A0E15E02068FE
:1053B0002B6810F0800F53F8041B02D1400648BF41
:1053C00089B26F2A4C482B6014BF4FF00A0E4FF081
:1053D000080E0023626884F84330002AA26051DB83
:1053E000236823F00403236000294BD1002A7BD1DA
:1053F000E146BEF1080F56D0ACEB0903236183E709
:105400002B681A6804332B6004F1420984F84220A7
:105410000120B4E72B686268191D2960D3F8009059
:105420000021484600F03CFA002863D0A0EB0900B8
:105430006060A4E7236843F02003236078222F48AC
:1054400084F845202A6813F0800F52F8041B03D11A
:1054500013F0400F18BF89B22A60DA0744BF43F047
:105460002003236019B9236823F0200323604FF041
:10547000100EAEE7582384F845301F482368E1E753
:105480002368DBE77546E146B1FBF5F305FB131A2C
:105490000A46AA4210F80A1009F8011D1946F3D26B
:1054A000BEF1080FA8D12368DD07A5D5626823697E
:1054B0009A42A1DC302309F8013C09F1FF399BE74E
:1054C00019801EE7B2F90010084668E72D20002A6F
:1054D000A26084F8430002DB23F0040323600A2562
:1054E00005484942AE46CEE7037884F8423004F1DD
:1054F00042097EE7606842E798011208AC01120891
:10550000704700BF704700BF70B5B1F90C300C4652
:10551000990796B007D504F147030122C4E9043284
:10552000236016B070BDB4F90E100029054629DBC2
:105530006A4601F053F9002822DB4FF480612846C7
:10554000019EFEF74DF888B3A389206043F08003E5
:1055500006F47046A381B6F5005F4FF48063C4E99A
:105560000403DED1B4F90E10284603F0DBFB00285B
:10557000D7D0A38923F0030343F00103A381D0E72D
:10558000B4F90C3013F0800F14BF40264FF480663E
:1055900031462846FEF724F840B1A389206043F045
:1055A0008003C4E90406A38116B070BDB4F90C30C1
:1055B0009A05B6D423F0030304F1470243F0020333
:1055C0000121C4E90421A3812260AAE770B50C4639
:1055D000B1F90E10002996B015461E460FDB6A463B
:1055E00001F0FCF800280ADB019B03F47043A3F5EB
:1055F0000053B3FA83F34FF480625B0908E0A28999
:1056000012F0800F4FF0000314BF40224FF480626D
:10561000002033602A6016B070BD00BF71B1034630
:1056200000EB010C01E0634506D01A460133117806
:105630000029F8D1101A7047181A704708467047A9
:1056400038B5C46B0CB1002038BD80210546FDF78C
:10565000C7FF0246E86330B1031F7C3243F8044FB2
:105660009342FBD1EFE74FF0FF3038BD30B51F2933
:1056700083B0054608D8C36B0C4653B153F82400D9
:1056800043F8242003B030BD162303604FF0FF30F1
:10569000F8E780210192FDF7A3FF019AE863034632
:1056A0000028F3D0011F00F17C05002041F8040F11
:1056B000A942FBD1E2E700BF1F2938B505461ED835
:1056C000C26B0C466AB152F8213053B1012B06D09F
:1056D000591C10D0002142F8241020469847002081
:1056E00038BD284603F092FB224601462846BDE815
:1056F000384003F075BB16230360012038BD162324
:1057000003604FF0FF3038BD1F292AD838B5C36B6E
:105710000C460546A3B153F8242003EB84034AB199
:10572000511C0BD0012A07D0002520461D60904750
:10573000284638BD012038BD032038BD022038BDC1
:105740008021FDF74DFF0346E86338B1021F0021B9
:105750007C3042F8041F8242FBD1DCE74FF0FF307F
:1057600038BD4FF0FF30704738B5134B1F281D6808
:105770001DD8EA6B044662B152F820304BB1012BC0
:1057800005D0591C0FD0002142F820109847002066
:1057900038BD284603F03AFB224601462846BDE8BC
:1057A000384003F01DBB16232B60012038BD1623A3
:1057B0002B604FF0FF3038BD0C000010114B1F283C
:1057C00070B51E6808D8F36B04460D464BB153F80C
:1057D000240043F8245070BD162333604FF0FF308F
:1057E00070BD80213046FDF7FBFE0346F0630028C4
:1057F000F4D0021F00217C3042F8041F8242FBD10A
:10580000E5E700BF0C00001038B50B4B1D68EC6BD2
:105810000CB1002038BD80212846FDF7E1FEE86389
:1058200038B1031F00F17C0243F8044F9342FBD1CF
:10583000EFE74FF0FF3038BD0C00001038B5174BC4
:105840001F281D6826D80446E86BA0B150F8243004
:1058500000EB84004BB15A1C0BD0012B07D0002564
:10586000056020469847284638BD012038BD0320F2
:1058700038BD022038BD80212846FDF7B1FEE8631F
:1058800040B1031F00F17C01002243F8042F8B423A
:10589000FBD1DBE74FF0FF3038BD00BF0C0000103C
:1058A00001F0FF01102A2BDB10F0070F08D010F8D1
:1058B000013B013A8B422DD010F0070F42B3F6D1D5
:1058C000F0B441EA012141EA014122F007047FF0EE
:1058D00000070023F0E80256083C85EA010586EA45
:1058E000010685FA47F5A3FA87F586FA47F6A5FA81
:1058F00087F68EB9EED1F0BC01F0FF0102F007028D
:1059000032B110F8013B013A83EA010313B1F8D137
:105910000020704701387047002D06BF3546033818
:10592000073815F0010F07D1013015F4807F02BF51
:10593000013015F4C03F0130F0BC0138704700BFA2
:105940000EB400B582B003AB816853F8042B019309
:1059500000F060F802B05DF804EB03B0704700BFE0
:105960000FB400B5074983B004AB086853F8042BA3
:105970008168019300F04EF803B05DF804EB04B0C9
:10598000704700BF0C0000109368013B002B936030
:1059900011DA10B49469A34209DB0A2907D013680D
:1059A000581C1060197008465DF8044B70475DF88C
:1059B000044BFEF77BBF1368581C10601970084633
:1059C000704700BF9BB1F8B5134406460F46541EFE
:1059D0005D1E01E0AC4208D014F8011F3A46304683
:1059E000FFF7D2FF431CF5D1F8BD0020F8BD002021
:1059F000704700BF936810B514461BB918460023C2
:105A0000636010BD02F05EFB0023A36000236360AF
:105A100010BD00BF2DE9F04FA1B08B4691461C464A
:105A2000049018B1036A002B00F01C81BBF80C3005
:105A3000180740F19580DBF81030002B00F09080C3
:105A40000023CA460D9343F22003ADF839309AF88B
:105A50000030864E07940127002B79D0D14604E010
:105A600019F8013F002B00F08580252BF8D1B9EB08
:105A70000A0840F0828099F80030002B68D000239B
:105A80004FF0FF32CDE9092309F1010908930B9387
:105A90008DF863301E9305E0089A07FA03F31A4362
:105AA0000892A1464C46052214F8011B3046FFF728
:105AB000F7FEA246831B0028EED1089BD90644BFFF
:105AC00020228DF8632099F800101A0744BF2B227A
:105AD0008DF863202A2966D1079A116804320029BB
:105AE0000792C0F29A800B9199F801102E2970D07C
:105AF0005F4C03222046FFF7D3FE38B1089B001B02
