:020000040810E2
:10000000008004103D4C1008A5401008AD401008B9
:10001000B5401008BD401008C540100800000000A1
:10002000000000000000000000000000CD401008AB
:10003000DB40100800000000E9401008F7401008FD
:100040008D4C10088D4C10088D4C10088D4C1008EC
:100050008D4C10088D4C10088D4C10088D4C1008DC
:100060008D4C10088D4C10088D4C10088D4C1008CC
:100070008D4C10088D4C10088D4C10088D4C1008BC
:100080008D4C10088D4C10088D4C10088D4C1008AC
:100090008D4C10088D4C10088D4C10088D4C10089C
:1000A0008D4C10088D4C10088D4C10088D4C10088C
:1000B0008D4C10088D4C10088D4C10088D4C10087C
:1000C0008D4C10088D4C10088D4C10088D4C10086C
:1000D0008D4C10088D4C10088D4C10088D4C10085C
:1000E0008D4C10088D4C1008000000008D4C10083D
:1000F0008D4C10088D4C10088D4C10088D4C10083C
:100100008D4C10088D4C10088D4C10088D4C10082B
:100110008D4C10088D4C10088D4C10088D4C10081B
:100120008D4C10088D4C10088D4C10088D4C10080B
:100130008D4C10088D4C10088D4C10088D4C1008FB
:100140008D4C10088D4C10080000000000000000CD
:100150008D4C10088D4C10088D4C10088D4C1008DB
:100160008D4C10088D4C10088D4C10088D4C1008CB
:100170008D4C10088D4C10088D4C100800000000AC
:100180008D4C10088D4C10088D4C10088D4C1008AB
:100190008D4C10088D4C10088D4C10088D4C10089B
:1001A0008D4C10088D4C10088D4C10088D4C10088B
:1001B0008D4C10088D4C10088D4C10088D4C10087B
:1001C0008D4C10088D4C10088D4C10088D4C10086B
:1001D0008D4C10088D4C10088D4C10088D4C10085B
:1001E0008D4C10088D4C10088D4C10088D4C10084B
:1001F0008D4C10088D4C10088D4C10088D4C10083B
:100200008D4C10088D4C10088D4C10088D4C10082A
:100210008D4C10088D4C10088D4C10088D4C10081A
:100220008D4C10088D4C10088D4C10088D4C10080A
:100230008D4C10088D4C10088D4C10088D4C1008FA
:100240008D4C10088D4C10088D4C10088D4C1008EA
:100250008D4C10088D4C10088D4C10088D4C1008DA
:100260008D4C10088D4C10088D4C10088D4C1008CA
:100270008D4C10088D4C10088D4C10088D4C1008BA
:100280008D4C10088D4C10088D4C1008000000009B
:080290008D4C10088D4C100884
:1002A00010B5054C237833B9044B13B10448AFF3B0
:1002B00000800123237010BD504E0010000000008C
:1002C000F4B8110808B5034B1BB103490348AFF359
:1002D000008008BD00000000544E0010F4B8110862
:1002E00010F8012B11F8013B012A28BF9A42F7D0E0
:1002F000D01A70470000000000000000000000005D
:1003000001F0FF01102A2BDB10F0070F08D010F8C6
:10031000013B013A8B422DD010F0070F42B3F6D1CA
:10032000F0B441EA012141EA014122F007047FF0E3
:1003300000070023F0E80256083C85EA010586EA3A
:10034000010685FA47F5A3FA87F586FA47F6A5FA76
:1003500087F68EB9EED1F0BC01F0FF0102F0070282
:1003600032B110F8013B013A83EA010313B1F8D12D
:100370000020704701387047002D06BF354603380E
:10038000073815F0010F07D1013015F4807F02BF47
:10039000013015F4C03F0130F0BC0138704700BF98
:1003A000034613F8012B002AFBD1181A01387047B5
:1003B00081F0004102E000BF83F0004330B54FEA16
:1003C00041044FEA430594EA050F08BF90EA020F83
:1003D0001FBF54EA000C55EA020C7FEA645C7FEA16
:1003E000655C00F0E2804FEA5454D4EB5555B8BF39
:1003F0006D420CDD2C4480EA020281EA030382EAAA
:10040000000083EA010180EA020281EA0303362D3B
:1004100088BF30BD11F0004F4FEA01314FF4801C0E
:100420004CEA113102D0404261EB410113F0004F20
:100430004FEA03334CEA133302D0524263EB4303D7
:1004400094EA050F00F0A780A4F10104D5F1200E75
:100450000DDB02FA0EFC22FA05F2801841F10001D0
:1004600003FA0EF2801843FA05F359410EE0A5F1A4
:1004700020050EF1200E012A03FA0EFC28BF4CF0D5
:10048000020C43FA05F3C01851EBE37101F000458B
:1004900007D54FF0000EDCF1000C7EEB00006EEB98
:1004A0000101B1F5801F1BD3B1F5001F0CD3490822
:1004B0005FEA30004FEA3C0C04F101044FEA445279
:1004C00012F5800F80F09A80BCF1004F08BF5FEA00
:1004D000500C50F1000041EB045141EA050130BDE0
:1004E0005FEA4C0C404141EB0101013C28BFB1F5F2
:1004F000801FE9D291F0000F04BF01460020B1FA3D
:1005000081F308BF2033A3F10B03B3F120020CDA0F
:100510000C3208DD02F1140CC2F10C0201FA0CF0ED
:1005200021FA02F10CE002F11402D8BFC2F1200C52
:1005300001FA02F120FA0CFCDCBF41EA0C01904008
:10054000E41AA2BF01EB0451294330BD6FEA040451
:100550001F3C1CDA0C340EDC04F11404C4F120023C
:1005600020FA04F001FA02F340EA030021FA04F34E
:1005700045EA030130BDC4F10C04C4F1200220FAA5
:1005800002F001FA04F340EA0300294630BD21FAE3
:1005900004F0294630BD94F0000F83F4801306BFA9
:1005A00081F480110134013D4EE77FEA645C18BF9D
:1005B0007FEA655C29D094EA050F08BF90EA020F34
:1005C00005D054EA000C04BF1946104630BD91EA2C
:1005D000030F1EBF0021002030BD5FEA545C05D12F
:1005E0004000494128BF41F0004130BD14F580046E
:1005F0003CBF01F5801130BD01F0004545F0FE41E2
:1006000041F470014FF0000030BD7FEA645C1ABF16
:10061000194610467FEA655C1CBF0B46024650EA4D
:10062000013406BF52EA033591EA030F41F4002179
:1006300030BD00BF90F0000F04BF0021704730B5FF
:100640004FF4806404F132044FF000054FF00001D4
:1006500050E700BF90F0000F04BF0021704730B595
:100660004FF4806404F1320410F0004548BF40426A
:100670004FF000013EE700BF42004FEAE2014FEABF
:1006800031014FEA02701FBF12F07F4393F07F4F9A
:1006900081F06051704732F07F4208BF704793F09D
:1006A0007F4F04BF41F40021704730B54FF46074B0
:1006B00001F0004521F000411CE700BF50EA0102B3
:1006C00008BF704730B54FF000050AE050EA01025C
:1006D00008BF704730B511F0004502D5404261EBCC
:1006E00041014FF4806404F132045FEA915C3FF40D
:1006F000D8AE4FF003025FEADC0C18BF03325FEAAA
:10070000DC0C18BF033202EBDC02C2F1200300FA5A
:1007100003FC20FA02F001FA03FE40EA0E0021FA7F
:1007200002F11444BDE600BF70B54FF0FF0C4CF46D
:10073000E06C1CEA11541DBF1CEA135594EA0C0F1F
:1007400095EA0C0F00F0DEF82C4481EA030621EA5A
:100750004C5123EA4C5350EA013518BF52EA033595
:1007600041F4801143F4801338D0A0FB02CE4FF047
:100770000005E1FB02E506F00042E0FB03E54FF077
:100780000006E1FB03569CF0000F18BF4EF0010E6F
:10079000A4F1FF04B6F5007F64F5407404D25FEA6B
:1007A0004E0E6D4146EB060642EAC62141EA55511E
:1007B0004FEAC52040EA5E504FEACE2EB4F1FD0C60
:1007C00088BFBCF5E06F1ED8BEF1004F08BF5FEADE
:1007D000500E50F1000041EB045170BD06F0004690
:1007E00046EA010140EA020081EA0301B4EB5C043D
:1007F000C2BFD4EB0C0541EA045170BD41F4801135
:100800004FF0000E013C00F3AB8014F1360FDEBF59
:10081000002001F0004170BDC4F10004203C35DA35
:100820000C341BDC04F11404C4F1200500FA05F3B8
:1008300020FA04F001FA05F240EA020001F0004259
:1008400021F0004110EBD37021FA04F642EB0601CF
:100850005EEA430E08BF20EAD37070BDC4F10C04F9
:10086000C4F1200500FA04F320FA05F001FA04F2BD
:1008700040EA020001F0004110EBD37041F10001A9
:100880005EEA430E08BF20EAD37070BDC4F12005B4
:1008900000FA05F24EEA020E20FA04F301FA05F21C
:1008A00043EA020321FA04F001F0004121FA04F2C4
:1008B00020EA020000EBD3705EEA430E08BF20EA94
:1008C000D37070BD94F0000F0FD101F000464000CE
:1008D00041EB010111F4801F08BF013CF7D041EA50
:1008E000060195F0000F18BF704703F00046520054
:1008F00043EB030313F4801F08BF013DF7D043EA25
:100900000603704794EA0C0F0CEA135518BF95EADA
:100910000C0F0CD050EA410618BF52EA4306D1D161
:1009200081EA030101F000414FF0000070BD50EA80
:10093000410606BF1046194652EA430619D094EA0A
:100940000C0F02D150EA013613D195EA0C0F05D1F4
:1009500052EA03361CBF104619460AD181EA030148
:1009600001F0004141F0FE4141F470014FF0000000
:1009700070BD41F0FE4141F4780170BD70B54FF09B
:10098000FF0C4CF4E06C1CEA11541DBF1CEA13551B
:1009900094EA0C0F95EA0C0F00F0A7F8A4EB0504FD
:1009A00081EA030E52EA03354FEA013100F08880F4
:1009B0004FEA03334FF0805545EA131343EA1263BD
:1009C0004FEA022245EA111545EA10654FEA002672
:1009D0000EF000419D4208BF964244F1FD0404F52B
:1009E000407402D25B084FEA3202B61A65EB030587
:1009F0005B084FEA32024FF480104FF4002CB6EB44
:100A0000020E75EB030E22BFB61A754640EA0C00C3
:100A10005B084FEA3202B6EB020E75EB030E22BF03
:100A2000B61A754640EA5C005B084FEA3202B6EB44
:100A3000020E75EB030E22BFB61A754640EA9C0003
:100A40005B084FEA3202B6EB020E75EB030E22BFD3
:100A5000B61A754640EADC0055EA060E18D04FEA91
:100A6000051545EA16754FEA06164FEAC30343EA31
:100A700052734FEAC2025FEA1C1CC0D111F4801FFE
:100A80000BD141EA00014FF000004FF0004CB6E7F7
:100A900011F4801F04BF01430020B4F1FD0C88BF96
:100AA000BCF5E06F3FF6AFAEB5EB030C04BFB6EBA1
:100AB000020C5FEA500C50F1000041EB045170BD94
:100AC0000EF0004E4EEA113114EB5C04C2BFD4EBC1
:100AD0000C0541EA045170BD41F480114FF0000E45
:100AE000013C90E645EA060E8DE60CEA135594EAC1
:100AF0000C0F08BF95EA0C0F3FF43BAF94EA0C0FC4
:100B00000AD150EA01347FF434AF95EA0C0F7FF438
:100B100025AF104619462CE795EA0C0F06D152EA8C
:100B200003353FF4FDAE1046194622E750EA410670
:100B300018BF52EA43067FF4C5AE50EA41047FF481
:100B40000DAF52EA43057FF4EBAE12E74FF0FF3CE6
:100B500006E000BF4FF0010C02E000BF4FF0010CB7
:100B60004DF804CD4FEA410C7FEA6C5C4FEA430C30
:100B700018BF7FEA6C5C1BD001B050EA410C0CBF7F
:100B800052EA430C91EA030F02BF90EA020F0020E1
:100B9000704710F1000F91EA030F58BF994208BF48
:100BA00090422CBFD8176FEAE37040F00100704705
:100BB0004FEA410C7FEA6C5C02D150EA013C07D15C
:100BC0004FEA430C7FEA6C5CD6D152EA033CD3D0A7
:100BD0005DF8040B704700BF8446104662468C46A1
:100BE0001946634600E000BF01B5FFF7B7FF0028D4
:100BF00048BF10F1000F01BD4DF808EDFFF7F4FFFD
:100C00000CBF012000205DF808FB00BF4DF808ED87
:100C1000FFF7EAFF34BF012000205DF808FB00BFAA
:100C20004DF808EDFFF7E0FF94BF012000205DF8CC
:100C300008FB00BF4DF808EDFFF7CEFF94BF012081
:100C400000205DF808FB00BF4DF808EDFFF7C4FF7A
:100C500034BF012000205DF808FB00BF4FEA410CC3
:100C60007FEA6C5C02D150EA013C0AD14FEA430CA6
:100C70007FEA6C5C02D152EA033C02D14FF00000E3
:100C800070474FF0010070474FEA410212F5001221
:100C900015D211D56FF47873B3EB625212D94FEAC3
:100CA000C12343F0004343EA505311F0004F23FAAD
:100CB00002F018BF404270474FF00000704750EA02
:100CC000013005D111F0004008BF6FF000407047BF
:100CD0004FF00000704700BF4A0011D212F5001219
:100CE00011D20DD56FF47873B3EB62520ED44FEA84
:100CF000C12343F0004343EA505323FA02F0704704
:100D00004FF00000704750EA013002D14FF0FF3041
:100D100070474FF0000070474FEA4102B2F1E043E4
:100D200024BFB3F5001CDCF1FE5C0DD901F0004CD2
:100D30004FEAC0024CEA5070B2F1004F40EB830022
:100D400008BF20F00100704711F0804F21D113F14E
:100D50003872BCBF01F00040704741F480114FEA87
:100D60005252C2F11802C2F1200C10FA0CF320FA10
:100D700002F018BF40F001004FEAC1234FEAD3232D
:100D800003FA0CFC40EA0C0023FA02F34FEA430397
:100D9000CCE77FEA625307D150EA01331EBF4FF020
:100DA000FE4040F44000704701F0004040F0FE403B
:100DB00040F40000704700BF53B94AB9002908BF8A
:100DC00000281CBF4FF0FF314FF0FF3000F0BEB9DC
:100DD000ADF1080C6DE904CE00F03CF8DDF804E05C
:100DE000DDE9022304B0704738B500220023044631
:100DF0000D46FFF70BFF28B920462946BDE83840CD
:100E000000F00AB8204605F1004100F005F8404224
:100E100061EB410138BD00BFD0B50C4B0022064646
:100E20000F46FFF781FCFFF757FF0446FFF702FC70
:100E3000074B0022FFF778FC02460B463046394646
:100E4000FFF7BAFAFFF748FF2146D0BD0000F03D9A
:100E50000000F0412DE9F047089D8E460446884683
:100E6000002B4AD18A42174662D9B2FA82F64EB1B5
:100E7000C6F1200301FA06F820FA03F3B74043EA6B
:100E80000808B4404FEA174E1FFA87FCB8FBFEF182
:100E9000230C0EFB118843EA084301FB0CF29A4233
:100EA00009D9FB1801F1FF3080F0EA809A4240F244
:100EB000E78002393B449A1AA3B2B2FBFEF00EFB64
:100EC000102243EA024300FB0CFC9C4509D9FB18A5
:100ED00000F1FF3280F0D6809C4540F2D3803B4445
:100EE000023840EA0140A3EB0C0300211DB1F3409E
:100EF0000022C5E90032BDE8F0878B4205D90DB16B
:100F0000C5E9000100210846F5E7B3FA83F100299D
:100F100046D1734502D3824200F20581841A6EEBFA
:100F2000030201209046002DE5D0C5E90048E2E724
:100F3000002A00F09080B2FA82F6002E40F0A480E1
:100F40008A1A030C4FEA174E80B2BCB20121B2FBE1
:100F5000FEFC0EFB1C2243EA024304FB0CF29A4205
:100F600007D9FB180CF1FF3802D29A4200F2E08058
:100F7000C4469B1AB3FBFEF20EFB123340EA034356
:100F800002FB04F49C4207D9FB1802F1FF3002D2A5
:100F90009C4200F2CA8002461B1B42EA0C40A5E7B5
:100FA000C1F120068B4022FA06F71F430EFA01F426
:100FB00020FA06F32EFA06FE4FEA1749234300FAF9
:100FC00001F81FFA87FCBEFBF9F01C0C09FB10EEC0
:100FD00044EA0E4400FB0CFEA64502FA01F209D9D0
:100FE0003C1900F1FF3A80F09C80A64540F29980C0
:100FF00002383C44A4EB0E041FFA83FEB4FBF9F361
:1010000009FB13444EEA044403FB0CFCA44508D935
:101010003C1903F1FF3E80F08280A4457FD9023B5A
:101020003C4443EA0040A4EB0C04A0FB02EC644502
:101030007346E14662D35FD05DB1B8EB030264EB67
:10104000090404FA06F622FA01F31E43CC40C5E96E
:10105000006400214FE7B1FBF2FC010C41EA0E41B4
:1010600080B240EA01423B4638463C46B846BE465E
:101070002026B1FBF7F1A2EB080241EA0C4166E73A
:10108000014618E710462CE7C6F120022EFA02F3BB
:10109000B740B14020FA02F24FEA174E0A43B3FBC1
:1010A000FEF8BCB20EFB1833110C41EA034108FBF9
:1010B00004F9B04089454FEA104380B23ED979180F
:1010C00008F1FF3C01D289451FD8A1EB0901B1FB12
:1010D000FEF909FB04F80EFB191192B242EA014233
:1010E000424529D2BA1809F1FF31C4D24245C2D2D1
:1010F000A9F102013A44BEE7F0459DD2BEEB0203DE
:101100006CEB070C0138E14696E7A7EB0909494467
:10111000A8F1020CB1FBFEF909FB04F8DBE773460A
:101120007FE7504666E70846FDE63B44023A33E770
:10113000ACF1020C3B441CE749469CE7A1EB0901DA
:10114000C446B1FBFEF909FB04F8C4E7704700BFD1
:1011500080B584B000AF786039607B681B7AFB7320
:101160007B681B6818460BF099FD7B689B691846E5
:101170000BF094FD78680BF091FDFB7B022B06D100
:10118000386813F0D3FC386813F018FD02E03868B3
:101190000DF0FEFB00BF1037BD4680BD80B584B0AA
:1011A00000AFF860B9607A603B60FB685B69002B58
:1011B00004D0FB685B697968F868984778680CF038
:1011C00049FF00BF1037BD4680BD000080B586B026
:1011D00000AFF860B9607A60FB70FB687B617B6888
:1011E0005B89B3F5FA6F51D87B685B891946B8689B
:1011F0000DF01EFD7B691B7A012B35D17B685B8965
:10120000002B41D07B685B682349184616F08DFCA3
:101210000346002B0AD07B685B6803F109007B69F9
:101220000A331A461D4916F029FB2DE07B685B68DE
:101230007B21184616F05AFC0346002B0DD07B6923
:101240005B69002B04D07B695B6979687869984792
:10125000B9687869FFF77CFF16E07B691B6819465F
:101260000F4816F071FA0FE07B691B7A032B0BD144
:101270007B695B69002B04D07B695B69796878695D
:10128000984778680CF0E6FE002301E000BF00BF3D
:1012900018461837BD4680BD10B9110818B9110895
:1012A0001CB9110890B587B000AFF860B96013465B
:1012B000FB71FB687B617B691B7A012B02D0032BDE
:1012C00023D01BE07B699C697B699B691846FFF70B
:1012D00067F803469AB201232146B86811F032FB41
:1012E0000346FB74B86812F017F90346FB7497F9CC
:1012F0001330002B0BD097F9133016E0B9687869DA
:10130000FFF726FF6FF00F030FE000BF00E000BF04
:101310007B691B69002B03D07B691B69786998473F
:101320000449B8680EF070FC002318461C37BD460F
:1013300090BD00BFCD111008B0B586B000AF786089
:1013400000237B6100233B617B681B7A022B03D166
:1013500013F076FC786102E00EF03CFC38611C2052
:101360000BF002FEF860FB68002B05D03B69002BF8
:1013700017D17B69002B14D1FB68002B02D0F868D1
:101380000BF08CFC3B69002B02D038690DF000FBA0
:101390007B69002B02D0786913F010FC4FF0FF330B
:1013A00027E0FA687B6814461D460FCD0FC495E808
:1013B000070084E807007B681B7A022B0CD1FA68CF
:1013C0000E49786913F0DAFBFB689B891A460C49D1
:1013D000786913F023FB0BE0F96838690EF002FC22
:1013E000FB68191DFB689A89064B38690DF0B6FC3D
:1013F000002318461837BD46B0BD00BF9D11100828
:10140000D8430110A512100880B582B000AF7860F3
:10141000084611461A460346FB700B46BB7013463E
:101420007B70FB781A06BB781B041A437B781B027F
:101430001A433B7C13431A06FB781906BB781B043E
:1014400019437B781B0219433B7C0B431B0203F4BB
:101450007F031A43FB781906BB781B0419437B787A
:101460001B0219433B7C0B431B0A03F47F431A43C3
:10147000FB781906BB781B0419437B781B021943C0
:101480003B7C0B431B0E1A437B681A60034816F023
:10149000CBF900BF0837BD4680BD00BF54B9110865
:1014A00080B500AF034803F063F913F0B3F800BF51
:1014B00080BD00BFD443011090B597B002AF7860F3
:1014C000274B5B68FB64264B9B68BB64244BDB6843
:1014D0007B64FB6CD9B2FB6C1B0ADCB2FB6C1B0C93
:1014E000DBB2FA6C120E07F1300001920093234632
:1014F0000A461C4916F0A0F97B6CD9B27B6C1B0A1A
:10150000DCB27B6C1B0CDBB27A6C120E07F11C0098
:101510000192009323460A46124916F08DF9BB6CDE
:10152000D9B2BB6C1B0ADCB2BB6C1B0CDBB2BA6C55
:10153000120E07F108000192009323460A4609495A
:1015400016F07AF907F1080307F11C0207F13001E0
:10155000054816F0F9F800BF5437BD4690BD00BFEE
:10156000D443011064B9110874B9110890B5ADF6EF
:10157000140D00AF07F50163A3F60C03186007F51F
:101580000163A3F50163196007F50163A3F5016326
:101590001B685B89002B5FD007F50163A3F6080386
:1015A000184640F602031A46002116F097FA07F58E
:1015B0000163A3F501631B68596807F50163A3F58F
:1015C00001631B685A8907F10803184601F090FE71
:1015D00007F50163A3F60C031B681B681946214835
:1015E00016F0B2F80023C7F80C382AE007F50163BB
:1015F000A3F501631B68586807F10802D7F80C3897
:10160000DB001344194601F041FF044607F501636E
:10161000A3F501631B68586807F10802D7F80C3876
:10162000DB001344194601F057FF03462246D7F862
:101630000C180D4816F088F8D7F80C380133C7F8A5
:101640000C3807F50163A3F60803B3F800381A460F
:10165000D7F80C389342C9DB0023184607F6140765
:10166000BD4690BD94BE1108B0BE110890B583B0C0
:1016700000AF78607B689C697B689B691846FEF7C1
:101680008FFE0346043B234400221A707B681968CE
:101690007B689B691A46044816F056F800231846E2
:1016A0000C37BD4690BD00BFC8BE110880B58EB0D6
:1016B00000AFF860B9607A603B60B868FEF770FE12
:1016C00003469BB201339BB218460BF04DFC786386
:1016D0007868FEF765FE03469BB201339BB218465D
:1016E0000BF042FC38637B6B002B02D03B6B002B72
:1016F00012D17B6B002B02D0786B0BF0CFFA3B6BD7
:10170000002B02D0386B0BF0C9FA79681D4816F02F
:101710001BF84FF0FF3331E07868FEF741FE0346D7
:1017200001331A467968386B16F08DFAB868FEF7FF
:1017300037FE034601331A46B968786B16F083FA10
:1017400007F1140300221A605A609A60DA601A6185
:101750005A619A613B6B7B61FB68BB6101233B77FC
:1017600050233B84084B7B623B68BB627B6BFB6214
:1017700007F114031846FFF7DFFD0023184638373A
:10178000BD4680BDF0BE11086D16100880B584B04E
:1017900000AFF860B9607A60054B7A68B968F8689C
:1017A000FFF784FF00BF18461037BD4680BD00BF5D
:1017B0006D15100880B586B000AF786039603B6861
:1017C0005B6802333B613B685B683A69D28892B2DE
:1017D0001344FB603B6993F8282093F829301B02DF
:1017E0001343FB820023BB8224E0FB8AB3F5166F10
:1017F00006D34FF41661204815F0A6FF0023FB82A4
:10180000BA8A13465B0013445B001A46FB689818BB
:10181000FA8A1A4913465B0013445B000B440246E4
:101820001168196092889A80BB8A0133BB82FB8A57
:101830000133FB823B69DB8C9BB2BA8A9A42D4D3D8
:101840003B69DB8C9AB20E4B1B8813449AB20C4B4B
:101850001A803B699B8C9BB2FA8A9A4207D13B69FA
:101860009B8C9AB2074B1A80074B01221A7000BF5B
:1018700018461837BD4680BD74BF1108744E00105D
:101880006E4E00106C4E0010704E001090B5ADF60C
:101890004C1D00AF07F64813A3F64413186007F673
:1018A0004813A3F64813196007F64813A3F6481324
:1018B0001B685B89002B02D16FF00503E3E107F69B
:1018C0004813A3F61403184640F602031A460021F3
:1018D00016F004F907F64813A3F648131B68596875
:1018E00007F64813A3F648131B685A8907F59A733D
:1018F000184601F0FDFC07F64813A3F644131B68D5
:101900001B681946BA4815F01FFF0023C7F8443971
:101910002AE007F64813A3F648131B68586807F532
:101920009A72D7F84439DB001344194601F0AEFD32
:10193000044607F64813A3F648131B68586807F5D2
:101940009A72D7F84439DB001344194601F0C4FDFC
:1019500003462246D7F84419A64815F0F5FED7F8F5
:1019600044390133C7F8443907F64813A3F6140382
:10197000B3F800381A46D7F844399342C9DB162029
:101980000BF0F2FAC7F83C0907F64813A3F5026317
:10199000994A07CA83E8070007F594731846FEF7CB
:1019A000FFFC03469BB218460BF0DEFAC7F8380975
:1019B000D7F83C39002B03D0D7F83839002B1CD18D
:1019C000D7F83C39002B03D0D7F83C090BF066F967
:1019D000D7F83839002B03D0D7F838090BF05EF967
:1019E00007F64813A3F644131B681B68194683487F
:1019F00015F0AAFE4FF0FF3345E107F59473184642
:101A0000FEF7CEFC03465A1C07F594731946D7F827
:101A1000380916F018F90023A7F842398DE007F6C7
:101A20004813A3F648131B685868B7F8423907F5FE
:101A30009A72DB001344194601F028FD03467049F1
:101A40001846FEF74DFC0346002B16D107F6481347
:101A5000A3F648131B685868B7F8423907F59A721D
:101A6000DB001344194601F037FDD7F83C39123337
:101A70001A46644915F002FF5AE007F64813A3F628
:101A800048131B685868B7F8423907F59A72DB00AB
:101A90001344194601F0FAFC03465B491846FEF769
:101AA0001FFC0346002B16D107F64813A3F6481374
:101AB0001B685868B7F8423907F59A72DB0013447F
:101AC000194601F009FDD7F83C3901331A464F4950
:101AD00015F0D4FE2CE007F64813A3F648131B6854
:101AE0005868B7F8423907F59A72DB001344194673
:101AF00001F0CCFC034646491846FEF7F1FB0346CD
:101B0000002B15D107F64813A3F648131B68586835
:101B1000B7F8423907F59A72DB001344194601F011
:101B2000DBFCD7F83C3914331A463A4915F0A6FEC7
:101B3000B7F842390133A7F8423907F64813A3F63C
:101B40001403B3F80038B7F842299A42FFF467AF9C
:101B5000D7F83C3901221A70D7F83C391B78012B91
:101B600005D143F23902D7F83C395A8219E0D7F847
:101B70003C395B8A002B14D107F64813A3F64413B3
:101B80001B681B681946244815F0DEFDD7F83C0990
:101B90000BF084F8D7F838090BF080F86FF00503E4
:101BA00071E007F64813A3F63C031A4600231360BE
:101BB00053609360D36013615361936107F64813D8
:101BC000A3F63C03D7F838291A6007F64813A3F6A2
:101BD0003C0307F64812A2F64412126852685A6093
:101BE000D7F83C391B78002B18D1032217E000BF2F
:101BF000CCBF1108E8BF1108C4C0110800C011080B
:101C000028C0110830C0110834C011083CC01108A8
:101C100040C011084CC0110850C01108022207F63C
:101C20004813A3F63C031A72D7F83C395A8A07F6D0
:101C30004813A3F63C039A8107F64813A3F63C0326
:101C4000134A5A6107F64813A3F63C03D7F83C2918
:101C50009A6107F586731846FFF76EFBD7F83C3993
:101C60005A1C07F10C030B49184615F0E5FD07F166
:101C70000C0107F64813A3F644131B68064A58687C
:101C8000FFF784FD0023184607F64C17BD4690BDAC
:101C9000B517100884C01108B8C01108B0B5ADF56B
:101CA0000E7D02AF07F50C73A3F50B731860374B6D
:101CB0005B68C7F82C32D7F82C32D9B2D7F82C325F
:101CC0001B0ADCB2D7F82C321B0CDBB2D7F82C2263
:101CD000120E07F58C700192009323460A462C4998
:101CE00015F0AAFD43F2390307F58C7207F59670DB
:101CF000284915F0A1FD07F5967107F50C73A3F5BA
:101D00000B70254B254A0068FFF7D0FC07F50C73D4
:101D1000A3F5A673224A1C4615460FCD0FC40FCD5E
:101D20000FC40FCD0FC42B681A46228002341B0C3F
:101D3000237007F50C73A3F5C4731A4A1C461546A5
:101D40000FCD0FC40FCD0FC40FCD0FC495E8070002
:101D500003C4228007F50C73A3F5EC73124A1846EE
:101D600011464D231A4615F06EFF07F50C73A3F5C7
:101D70000A730D4A184611464D231A4615F063FFA3
:101D80000023184607F50C77BD46B0BDD4430110BB
:101D9000D0C01108E0C011088D18100838C1110812
:101DA00048C111087CC11108B8C1110880B584B0C0
:101DB00000AF87ED030AC7ED020A87ED011AC7EDF0
:101DC000001A97ED017AD7ED037A37EE677AD7EDEF
:101DD000016AD7ED037A76EEE77A27EE277AD7ED18
:101DE000006AD7ED027A76EEE76A97ED006AD7EDE2
:101DF000027A76EE677A66EEA77A77EE277A17EEA2
:101E0000900AFEF739FC02460B4643EC102B12F009
:101E100061FF53EC102B10461946FEF77DFF034679
:101E200007EE903AB0EE670A1037BD4680BD80B429
:101E300087B000AF87ED050AC7ED040A87ED031AE6
:101E4000C7ED021A87ED012AC7ED002A97ED057A42
:101E5000D7ED037AB4EEE77AF1EE10FA1CDD97EDD8
:101E6000057AD7ED017AB4EEE77AF1EE10FA13D5E0
:101E700097ED047AD7ED027AB4EEE77AF1EE10FA34
:101E80000ADD97ED047AD7ED007AB4EEE77AF1EE49
:101E900010FA01D5012300E0002303F00103DBB2B7
:101EA00018461C37BD465DF8047B704780B586B088
:101EB00000AFF86087ED020AC7ED010A87ED001A4E
:101EC000FB68BA68DA62FB687A681A63FB683A688A
:101ED0005A63FB684FF000029A63FB684FF0000200
:101EE000DA63FB684FF000021A64FB684FF00002EF
:101EF0005A64FB684FF000029A64FB684FF00002DE
:101F0000DA64FB684FF000021A65FB684FF00002CC
:101F10005A65FB684FF000029A65FA68FB6802F5A3
:101F2000C47028334422194615F08DFE0023FB822D
:101F30000DE0FA8AF96813465B001344DB000B449A
:101F400003F5AA7300221A70FB8A0133FB82FB8A15
:101F5000022BEED900BF00BF1837BD4680BD000080
:101F60002DE9F04F2DED048B95B008AF7861396104
:101F7000BB601346FB817B699B6ABA68D31A07EE84
:101F8000903AB8EE677ADFEDB36AC7EE267AC7ED0E
:101F9000077AB14815F0D8FB0023FB85DAE07B69AE
:101FA00093ED177AD7ED077A67EE277AB0EEE78AD6
:101FB0007B691B6E1846FEF75FFB4FF00002A74BD4
:101FC000FEF7B2FB02460B4614461D46F869FEF7C3
:101FD00053FB02460B4620462946FEF7A5FB024668
:101FE0000B4614461D46F869FEF746FB02460B46B3
:101FF00020462946FEF798FB02460B461046194636
:10200000FEF78AFE07EE900AF0EEE77A38EE278AAE
:10201000FA8D796913465B001344DB000B4403F52A
:10202000A473D3ED008A7B6993ED137AD7ED077A19
:1020300067EE277AB0EEE79A7B699B6D1846FEF74C
:102040001BFB4FF00002854BFEF76EFB02460B4672
:1020500014461D46F869FEF70FFB02460B46204664
:102060002946FEF761FB02460B4614461D46F869F9
:10207000FEF702FB02460B4620462946FEF754FBBC
:1020800002460B4610461946FEF746FE07EE900A3A
:10209000F0EEE77A79EE277A68EEA77AFA8D78EE95
:1020A000277A796913465B001344DB000B4403F580
:1020B000A873C3ED007AFA8D796913465B00134467
:1020C000DB000B4403F5A87393ED007A7B69D3ED35
:1020D0004E7AF7EE006A77EEA67AFA8D67EE277AE7
:1020E000796913465B001344DB000B4403F5A873C6
:1020F000C3ED007AFA8D796913465B001344DB0067
:102100000B4403F5A87393ED007A7B69D3ED4F7A06
:10211000FA8D77EE277A796913465B001344DB006A
:102120000B4403F5A873C3ED007AFA8D7969134661
:102130005B001344DB000B4403F5A8731B681846CF
:10214000FEF79AFA02460B46454815F0FDFAFB8D5C
:102150000133FB85FB8D022B7FF621AF0A2015F0A2
:1021600005FB7B699B6B1846FEF786FAC7E9000101
:102170007B69DB6B1846FEF77FFA04460D467B69E8
:102180005B6E1846FEF778FA804689467B699B6E3F
:102190001846FEF771FA82468B467B691B6C18461F
:1021A000FEF76AFA02460B46CDE90623CDE904ABF9
:1021B000CDE90289CDE90045D7E90023294815F08A
:1021C000C3FA7B695B6C1846FEF756FA804689466F
:1021D0007B699B6C1846FEF74FFA04460D467B69F7
:1021E000DB6C1846FEF748FA02460B46CDE902239F
:1021F000CDE9004542464B461B4815F0A5FA0023A1
:10220000BB850DE0BA8D796913465B001344DB0092
:102210000B4403F5AA7300221A70BB8D0133BB85F2
:10222000BB8D022BEED900237B850CE07A8D134603
:102230009B0013449B001A463B69134400221A7406
:102240007B8D01337B857A8DFB899A42EED3002307
:102250003B851EE300007A4470C211080000E03F95
:102260007CC2110884C21108C0C211083A8D1346FD
:102270009B0013449B001A463B6913445B68184655
:10228000FEF7FAF904460D463A8D13469B001344B7
:102290009B001A463B69134493ED007A7B69D3EDAA
:1022A0000D7A37EE277A7B69D3ED136AD7ED077A7B
:1022B00066EEA77A77EE277A17EE900AFEF7DCF93A
:1022C000804689467B699B6D1846FEF7D5F94FF02D
:1022D0000002B04BFEF728FA02460B4692469B4698
:1022E000F869FEF7C9F902460B4650465946FEF713
:1022F0001BFA02460B4692469B46F869FEF7BCF96C
:1023000002460B4650465946FEF70EFA02460B4669
:1023100040464946FEF752F802460B4643EC172B5F
:10232000B0EE470AF0EE670A12F002FD53EC102BF4
:1023300020462946FEF7F8F902460B4614461D468C
:102340007B69DB6A1846FEF797F902460B46204682
:102350002946FEF733F802460B4614461D467B69B4
:1023600093ED117AD7ED077A67EE277A17EE900A88
:10237000FEF782F902460B4620462946FEF71EF874
:1023800002460B4614461D467B691B6D1846FEF738
:1023900073F94FF000027F4BFEF7C6F902460B4679
:1023A00090469946F869FEF767F902460B464046A3
:1023B0004946FEF7B9F902460B4690469946F86938
:1023C000FEF75AF902460B4640464946FEF7ACF97D
:1023D00002460B4620462946FDF7F0FF02460B4613
:1023E000104619463A8D13469B0013449B001A462B
:1023F0003B699C18FEF790FC0346A3603A8D134698
:102400009B0013449B001A463B6913445B681846C3
:10241000FEF732F904460D463A8D13469B001344ED
:102420009B001A463B69134493ED007A7B69D3ED18
:102430000D7A37EE277A7B69D3ED136AD7ED077AE9
:1024400066EEA77A77EE277A17EE900AFEF714F970
:10245000804689467B699B6D1846FEF70DF94FF063
:1024600000024C4BFEF760F902460B4692469B4633
:10247000F869FEF701F902460B4650465946FEF749
:1024800053F902460B4692469B46F869FEF7F4F86C
:1024900002460B4650465946FEF746F902460B46A1
:1024A00040464946FDF78AFF02460B4643EC172B90
:1024B000B0EE470AF0EE670A12F08EFC53EC102BD8
:1024C00020462946FEF730F902460B4614461D46C3
:1024D0007B691B6B1846FEF7CFF802460B46204679
:1024E0002946FDF76BFF02460B4614461D467B69E5
:1024F00093ED127AD7ED077A67EE277A17EE900AF6
:10250000FEF7BAF802460B4620462946FDF756FF6D
:1025100002460B4614461D467B695B6D1846FEF766
:10252000ABF84FF000021B4BFEF7FEF802460B46DD
:1025300090469946F869FEF79FF802460B464046DA
:102540004946FEF7F1F802460B4690469946F8696F
:10255000FEF792F802460B4640464946FEF7E4F87D
:1025600002460B4620462946FDF728FF02460B4649
:10257000104619463A8D13469B0013449B001A4699
:102580003B699C18FEF7C8FB0346E3600023FB840D
:10259000FFE000BF0000E03FFB8C7A69DB001344E2
:1025A000D3ED007AFB8C7A69DB001344043393ED9E
:1025B000007A3A8D13469B0013449B001A463B69F0
:1025C0001344D3ED026A3A8D13469B0013449B00DB
:1025D0001A463B69134493ED036AF0EE461AB0EED7
:1025E000661AF0EE470AB0EE670AFFF7DFFBB0EEBF
:1025F000407AFA8C796913465B001344DB000B4484
:1026000003F5A873D3ED007AB4EEE77AF1EE10FA91
:1026100000F2BC80FE8CFB8C7A69DB001344D3EDA6
:10262000007AFB8C7A69DB001344043393ED007A63
:102630003A8D13469B0013449B001A463B69134492
:10264000D3ED026A3A8D13469B0013449B001A4651
:102650003B69134493ED036AF0EE461AB0EE661A36
:10266000F0EE470AB0EE670AFFF7A0FB10EE103A53
:102670001846FEF701F804460D46FA8C79691346B0
:102680005B001344DB000B4403F5A8731B6818467A
:10269000FDF7F2FF02460B46CDE9002322462B460A
:1026A0003146824815F050F8FC8CFB8C7A69DB00CF
:1026B0001344D3ED007AFB8C7A69DB0013440433B6
:1026C00093ED007A3A8D13469B0013449B001A4603
:1026D0003B691344D3ED026A3A8D13469B001344C1
:1026E0009B001A463B69134493ED036AF0EE461AC9
:1026F000B0EE661AF0EE470AB0EE670AFFF756FB37
:1027000010EE103A1846FDF7B7FF02460B46214679
:10271000674815F019F83A8D13469B0013449B0047
:102720001A463B691344FA8C5968786913465B0072
:102730001344DB00034403F5A47319603A8D134678
:102740009B0013449B001A463B691344FA8C19689A
:10275000786913465B001344DB00034403F5A6735A
:102760001960FA8C796913465B001344DB000B4453
:1027700003F5AA7301221A703A8D13469B00134485
:102780009B001A463B69134402221A74FB8C0133E6
:10279000FB84FB8C022B7FF6FFAE0023BB8400235F
:1027A0007B846FE07A8C13469B0013449B001A468F
:1027B0003B6913441B7C002B61D17A8C13469B0030
:1027C00013449B001A463B691344D3ED027A7A8C7A
:1027D00013469B0013449B001A463B69134493ED38
:1027E000037A7B69D3ED066A7B6993ED076A7B699F
:1027F000D3ED085A7B6993ED095AF0EE452AB0EE05
:10280000652AF0EE461AB0EE661AF0EE470AB0EE10
:10281000670AFFF70CFB0346002B30D07A8C134677
:102820009B0013449B001A463B69134401221A740F
:102830007A8C13469B0013449B001A463B69134451
:10284000BA8C9968786913461B0113449B000344B2
:10285000703319607A8C13469B0013449B001A4610
:102860003B691344BA8CD968786913461B01134439
:102870009B00034474331960BB8C0133BB847B8C95
:1028800001337B847A8CFB899A428BD33B8D013355
:102890003B853A8DFB899A42FFF4E8AC00BF00BF4C
:1028A0003437BD46BDEC048BBDE8F08FDCC21108A7
:1028B00004C311080000000080B58EB000AF78613D
:1028C00087ED040AC7ED030A87ED021A79607B6978
:1028D000083393ED007A7B69D3ED007A77EE677A5F
:1028E00077EEA77AC7ED0D7A7B69083393ED017A0D
:1028F0007B69D3ED017A77EE677A77EEA77AC7ED39
:102900000C7AD7ED047A27EEA77AD7ED037A67EE33
:10291000A77A37EE677A7B69D3ED006A7B69D3EDDE
:10292000007A66EEA77A37EE677A7B69D3ED016AA3
:102930007B69D3ED017A66EEA77A37EE677A7B6919
:102940000833D3ED006A7B690833D3ED007A66EE75
:10295000A77A37EE277A7B690833D3ED016A7B6962
:102960000833D3ED017A66EEA77A77EE277AC7EDC2
:102970000B7A7B69103393ED007A7B69D3ED007A93
:1029800077EE677A77EEA77AC7ED0A7A7B6910331C
:1029900093ED017A7B69D3ED017A77EE677A77EE72
:1029A000A77AC7ED097AD7ED047A27EEA77AD7ED93
:1029B000027A67EEA77A37EE677A7B69D3ED006A11
:1029C0007B69D3ED007A66EEA77A37EE677A7B698A
:1029D000D3ED016A7B69D3ED017A66EEA77A37EE13
:1029E000677A7B691033D3ED006A7B691033D3EDCE
:1029F000007A66EEA77A37EE277A7B691033D3ED3B
:102A0000016A7B691033D3ED017A66EEA77A77EE1F
:102A1000277AC7ED087A97ED0D7AD7ED097A27EE78
:102A2000277AD7ED0C6AD7ED0A7A66EEA77A77EEA9
:102A3000677AC7ED077AD7ED077AF0EEE77A17EEF7
:102A4000900AFDF719FE1DA3D3E90023FEF7DEF877
:102A50000346002B03D0184814F0E6FE29E097ED5A
:102A60000B7AD7ED097A27EE277AD7ED0C6AD7EDE6
:102A7000087A66EEA77A77EE676A97ED077AC6EE70
:102A8000877A7B68C3ED017A97ED0D7AD7ED087AE6
:102A900027EE277AD7ED0B6AD7ED0A7A66EEA77A8A
:102AA00077EE676A97ED077AC6EE877A7B68C3EDA3
:102AB000027A3837BD4680BD14C311088DEDB5A02C
:102AC000F7C6B03E0000000080B52DED028B92B03D
:102AD00000AF78600B467B8013463B807B887A682A
:102AE000DB0013441B687B647B887A68DB0013443B
:102AF00004331B683B643B887A68DB0013441B6823
:102B0000FB633B887A68DB00134404331B68BB63B8
:102B10007A88796813465B001344DB000B4403F5A5
:102B2000A4731B687B633A88796813465B0013447F
:102B3000DB000B4403F5A4731B683B6397ED0F7A2E
:102B4000D7ED117A37EE677AD7ED0F6AD7ED117AA4
:102B500076EEE77A27EE277AD7ED0E6AD7ED107A70
:102B600076EEE76A97ED0E6AD7ED107A76EE677A21
:102B700066EEA77A77EE277A17EE900AFDF77CFDCE
:102B800002460B4643EC102B12F0A4F853EC102B2A
:102B900010461946FEF7C0F80346FB6297ED0D7A22
:102BA000D7ED0C7A77EE277A97ED0B7AB4EEE77AC9
:102BB000F1EE10FA0EDC97ED0D7AD7ED0C7A77EE88
:102BC000677AF0EEE77A97ED0B7AB4EEE77AF1EEFA
:102BD00010FA03D5824814F027FEF8E0D7ED0D7AFD
:102BE00027EEA77AD7ED0C7A67EEA77A37EE677AE9
:102BF000D7ED0B7A67EEA77A77EE276AD7ED0B7AD7
:102C000037EEA77AC6EE877AC7ED0A7AD7ED0D7A46
:102C100027EEA77AD7ED0A7A67EEA77A77EE677A7A
:102C200017EE900AFDF728FD02460B4643EC102BE9
:102C300012F050F853EC102B10461946FEF76CF8C2
:102C400003467B6297ED0F7AD7ED117A37EE677AFC
:102C5000D7ED0A7A67EE276A97ED0B7AC6EE877A88
:102C600097ED117A77EE277AC7ED087A97ED0E7A0D
:102C7000D7ED107A37EE677AD7ED0A7A67EE276AD2
:102C800097ED0B7AC6EE877A97ED107A77EE277A72
:102C9000C7ED077A97ED0E7AD7ED107A37EE677A9F
:102CA000D7ED097A67EE276A97ED0B7AC6EE877A39
:102CB00097ED087A77EE277AC7ED067A97ED0F7AC7
:102CC000D7ED117A37EE677AD7ED097A67EE276A82
:102CD00097ED0B7AC6EE877A97ED077A77EE677AEB
:102CE000C7ED057A97ED0E7AD7ED107A37EE677A51
:102CF000D7ED097A67EE276A97ED0B7AC6EE877AE9
:102D000097ED087A77EE677AC7ED047A97ED0F7A38
:102D1000D7ED117A37EE677AD7ED097A67EE276A31
:102D200097ED0B7AC6EE877A97ED077A77EE277ADA
:102D3000C7ED037AD7ED097AF0EEE77A17EE900A3D
:102D4000FDF79AFC24A3D3E90023FDF75FFF0346B8
:102D5000002B06D07B68BA69DA627B687A691A63ED
:102D600035E07B68D3ED0B7A7B6893ED0C7AF0EE5F
:102D7000471AB0EE671AD7ED050A97ED060AFFF776
:102D800015F8B0EE408A7B68D3ED0B7A7B6893ED43
:102D90000C7AF0EE471AB0EE671AD7ED030A97EDFA
:102DA000040AFFF703F8F0EE407AB4EEE78AF1EE9A
:102DB00010FA06D57B68BA69DA627B687A691A63A9
:102DC00005E07B683A69DA627B68FA681A6348371B
:102DD000BD46BDEC028B80BD8DEDB5A0F7C6B03E03
:102DE00028C31108000000002DE9B0438AB004AFE9
:102DF000F860B9607A60BB6893ED017AFB68D3ED47
:102E0000027A77EE676ABB6893ED007AFB68D3EDD0
:102E1000017A77EE677AF0EE670AB0EE660A12F092
:102E20002FF887ED050A7B68D3ED037A97ED057AD5
:102E300077EE677AFB68C3ED037A12E0FB68DB6824
:102E40001846FDF719FC2FA3D3E90023FDF7B6FAC6
:102E500002460B4610461946FDF75EFF0246FB6828
:102E6000DA60FB68DB681846FDF706FC27A3D3E9A8
:102E70000023FDF7CBFE0346002BDFD112E0FB68F9
:102E8000DB681846FDF7F8FB1EA3D3E90023FDF726
:102E900093FA02460B4610461946FDF73DFF0246DF
:102EA000FB68DA60FB68DB681846FDF7E5FB17A3F3
:102EB000D3E90023FDF7BEFE0346002BDFD1FB68FC
:102EC000DB681846FDF7D8FB804689467869FDF730
:102ED000D3FB04460D467B68DB681846FDF7CCFB48
:102EE00002460B46CDE90223CDE9004542464B465A
:102EF000034814F029FC00BF1837BD46BDE8B08375
:102F000048C31108182D4454FB211940182D44546E
:102F1000FB2109402DE9B04386B000AF78603960ED
:102F20000023FB820023BB8211E0BA8A7968134632
:102F30005B001344DB000B4403F5AA731B78002BE2
:102F400002D0FB8A0133FB82BB8A0133BB82BB8A7E
:102F5000022BEAD9FB8A032B0BD0032B06DC012BB7
:102F600002DC002B64DA01E0022B23D0C34814F00A
:102F70005BFC7A687B68D3ED527A7B6893ED587A74
:102F80007B68D3ED5E6A7B6828331946B0EE661A1B
:102F9000F0EE470AB0EE670A1046FFF78DFC7B683B
:102FA00003F1280079687B6803F5A0731A46FFF7E0
:102FB0001BFF41E04FF6FF737B824FF6FF733B82AE
:102FC0000023FB8118E0FA89796813465B001344FB
:102FD000DB000B4403F5AA731B78002B09D07B8A16
:102FE0004FF6FF72934202D1FB897B8201E0FB899D
:102FF0003B82FB890133FB81FB89022BE3D93A8AAF
:103000007B8A19467868FFF75FFD7B6803F128002B
:103010007B8ADB007A68D1187A8A13465B001344F6
:10302000DB0003F5A0737A6813441A46FFF7DCFE51
:10303000934814F0F9FB00BF7B683A689A627B689A
:103040009A6A7B68D3F88831D31A07EE903AB8EEC3
:10305000677ADFED8C6AC7EE267AC7ED027A7B6865
:1030600093ED0B7A7B68D3ED637A77EE677A7B68B2
:10307000C3ED0E7A7B6893ED0C7A7B68D3ED647AAE
:1030800077EE677A7B68C3ED0F7A7B6893ED0D7AF4
:103090007B68D3ED657A77EE677A7B68C3ED107A4B
:1030A0007B68D3ED0E6A97ED027AC6EE877A7B686D
:1030B000C3ED117A7B68D3ED0F6A97ED027AC6EE05
:1030C000877A7B68C3ED127A7B68D3ED106A97ED3F
:1030D000027AC6EE877A7B68C3ED137A7B6893ED3C
:1030E000117A7B68D3ED697A77EE676A97ED027A99
:1030F000C6EE877A7B68C3ED147A7B6893ED127A0B
:103100007B68D3ED6A7A77EE676A97ED027AC6EE4E
:10311000877A7B68C3ED157A7B6893ED137A7B68B9
:10312000D3ED6B7A77EE676A97ED027AC6EE877A0F
:103130007B68C3ED167A7B6893ED0E7A7B68D3EDDE
:103140000E7A27EE277A7B68D3ED0F6A7B68D3ED82
:103150000F7A66EEA77A77EE277A17EE900AFDF7D8
:103160008BFA02460B4643EC102B11F0B3FD53ECE7
:10317000102B10461946FDF7CFFD02467B685A66B4
:103180007B68DB6B1846FDF777FA04460D467B68D3
:103190009B6B1846FDF770FA02460B4643EC112B69
:1031A00045EC104B11F094FD53EC102B10461946D2
:1031B000FDF7B2FD02467B689A667B685B6C184639
:1031C000FDF75AFA04460D467B689B6E1846FDF7DC
:1031D00053FA02460B4643EC102B11F0A9FD53ECB9
:1031E000102B20462946FDF79FFA02460B469046D3
:1031F00099467B689B6C1846FDF73EFA04460D46DF
:103200007B689B6E1846FDF737FA02460B4643EC87
:10321000102B11F0E1FD53EC102B20462946FDF751
:1032200083FA02460B4640464946FDF7C7F8024678
:103230000B4610461946FDF76FFD02467B68DA65BE
:103240007B6893ED177A7B68D3ED6F7A77EE676AC8
:1032500097ED027AC6EE877A7B68C3ED187A7A68B2
:103260007B6802F5C47028334422194614F0EBFC45
:1032700000BF1837BD46BDE8B08300BF70C311085A
:103280009CC3110800007A4480B487B000AFF86096
:10329000B9601346FB801DE00023FB8211E0FB6850
:1032A0001B881A46BB6813441A78FB8A0F49CB5C0B
:1032B0009A4203D1FB8A0D4AD35C11E0FB8A0133A9
:1032C000FB82FB8A052BEAD9FB681B8801339AB283
:1032D000FB681A80FB681B88FA889A42DCD80023B6
:1032E00018461C37BD465DF8047B7047000000108F
:1032F00080B586B000AFF860B9601346FB8000234C
:10330000BB82FB680022A3F800280023FB75FA8823
:1033100007F11403B9681846FFF7B6FF03467B2B85
:1033200000F0AA800023ADE0BB8A01339BB2BB82D0
:10333000FA8807F11403B9681846FFF7A5FF03469A
:103340007D2B00F08C807D2B00F393807B2B00F095
:1033500084807B2B00F38D803A2B6AD03A2B00F3CC
:103360008880222B02D02C2B45D082E0FB7D032BC2
:103370003BD801A252F823F0893310089D3310087E
:10338000B7331008D1331008BB8AFA68B2F80028A6
:10339000013399B2FB6823F8321028E0BB8AFA683F
:1033A000B2F800281046013B99B2FA68C3001344F2
:1033B0000A465A801BE0BB8AFA68B2F80028104619
:1033C000013399B2FA68C30013440A469A800EE0AA
:1033D000BB8AFA68B2F800281046013B99B2FA6835
:1033E000C30013440A46DA8001E001234AE0FB7D72
:1033F0000133FB7540E0BB8A013BBA6813441B787C
:10340000222B0BD0BB8AFA68B2F800281046013B89
:1034100099B2FA68C30013440A46DA80FB68B3F82D
:10342000003801339AB2FB68A3F800280023FB752B
:1034300022E0BB8A0133BA6813441B78222B1AD0CE
:10344000BB8AFA68B2F800281046013399B2FA68CC
:10345000C30013440A469A800DE0012312E0FB6882
:10346000B3F8003801339AB2FB68A3F800280223AE
:1034700008E0012306E000BFBB8AFA889A423FF6C3
:1034800053AF012318461837BD4680BD80B582B0C2
:1034900000AF786039603B681B881A467B689918D2
:1034A0003B685B881A463B681B88D31A01331A466F
:1034B000084814F0C8FB3B685B881A463B681B88C9
:1034C000D31A0133034A0021D154024B184608375E
:1034D000BD4680BDB486001080B582B000AF786074
:1034E00039603B689B881A467B6899183B68DB8883
:1034F0001A463B689B88D31A01331A46084814F0D1
:10350000A2FB3B68DB881A463B689B88D31A0133D1
:10351000034A0021D154024B18460837BD4680BDEE
:103520003487001000000000B0B58CB000AFF86028
:103530007B600B467B8113463B810023FB85002388
:10354000BB850023BB6200237B6200237B840023B6
:10355000FB610023BB6114E03A89BB69D31A1A46A8
:1035600013465B0013445B001A46FB6813449B88B8
:103570009BB2B3F57A7F01D9BB69FB61BB690133AB
:10358000BB61FB690933BA699A42E5DDFB697B617E
:1035900004E13A897B6993FBF2F101FB02F29B1A89
:1035A0001A4613465B0013445B001A46FB6813443B
:1035B0009B889BB2B3F57A7F1BD97B69FB853A89DF
:1035C0007B6993FBF2F101FB02F29B1A1A46134648
:1035D0005B0013445B001A46FB6813441B68BA6A1D
:1035E0001344BB627B697A6A13447B62BB8D0133EF
:1035F000BB85FB8D7A69D31A0A2B40F3CC80BB8D37
:10360000002B00F0C880BB6A07EE903AF8EE676ABC
:10361000BB8D07EE903AB8EE677AC6EE877A7A8C61
:1036200013469B0013449B001A467B6813449FED8E
:10363000687A77EE877AC3ED017A7B6A07EE903A73
:10364000F8EE676ABB8D07EE903AB8EE677AC6EE81
:10365000877AC7ED047A3869FDF70EF856A3D3E9E7
:103660000023FDF761F802460B4614461D463B89D0
:1036700007EE903AF8EE677A17EE900AFCF7FCFF37
:1036800002460B4620462946FDF778F902460B46CE
:10369000104619467A8C13469B0013449B001A4629
:1036A0007B689C18FDF738FB0346236020E07A8C8A
:1036B00013469B0013449B001A467B6813441B6807
:1036C0001846FCF7D9FF3CA3D3E90023FCF774FEAE
:1036D00002460B46104619467A8C13469B0013444B
:1036E0009B001A467B689C18FDF716FB0346236077
:1036F0007A8C13469B0013449B001A467B68134444
:103700001B681846FCF7B8FF2DA3D3E90023FDF78B
:103710009BFA0346002BCAD120E07A8C13469B000B
:1037200013449B001A467B6813441B681846FCF739
:10373000A3FF21A3D3E90023FCF740FE02460B467A
:10374000104619467A8C13469B0013449B001A4678
:103750007B689C18FDF7E0FA034623607A8C1346D9
:103760009B0013449B001A467B6813441B68184651
:10377000FCF782FF14A3D3E90023FDF751FA0346B7
:10378000002BCAD17B8C01337B840023BB620023D6
:103790007B620023BB857B6901337B617A89FB698E
:1037A000134409337A699A427FF7F3AE7B8C18464B
:1037B0003037BD46B0BD00BF182D4454FB21194021
:1037C000182D4454FB210940182D4454FB2109C0F5
:1037D0000000204280B582B002AF04230093012391
:1037E000A822C0210F48FDF70FFE0E48FDF764FE2A
:1037F0000C4B1868FEF752FA0B4BD3ED017A0A4BCB
:1038000093ED027A084BD3ED036AB0EE661AF0EE40
:10381000470AB0EE670A0548FEF748FB00BFBD4601
:1038200080BD00BFB4870010D40100100800001054
:103830002DE9B04F2DED068B90B00AAFFDF730FEAD
:103840001B4B1B78002B00F0698201F0EBFBF8604A
:10385000184B1B881C46184B1B881D46174B1B68B2
:10386000FA68D31A07EE903AF8EE677A17EE900AE4
:10387000FCF702FF02460B464FF000001049FDF72F
:103880007DF802460B46CDE900232A4621460D4825
:1038900013F05AFF074B1988074B1A880A4B0B483D
:1038A000FFF742FE03467B810023FB820BE100BF52
:1038B000704E00106E4E00106C4E00103843011018
:1038C00000408F4040C41108B8870010744E0010AB
:1038D000FA8AC14913469B0013449B000B440433EE
:1038E0001B681846FCF7C8FE82468B46FA8ABA491E
:1038F00013469B0013449B000B441B681846FCF7BF
:10390000BBFE80468946FA8AB34913469B0013449E
:103910009B000B4404331B681846FCF7ADFE0446BD
:103920000D46FA8AAC4913469B0013449B000B4496
:103930001B681846FCF7A0FE02460B4643EC102B12
:1039400011F0F6F953EC102B20462946FCF7ECFE5B
:1039500002460B4643EC192BFA8A9F4913469B00FB
:1039600013449B000B4404331B681846FCF784FE89
:1039700004460D46FA8A984913469B0013449B005F
:103980000B441B681846FCF777FE02460B4643ECD7
:10399000102B11F021FA53EC102B20462946FCF78E
:1039A000C3FE02460B4643EC1A2BFA8A8A49134699
:1039B0009B0013449B000B4404331B681846FCF720
:1039C0005BFE04460D46FA8A834913469B00134466
:1039D0009B000B4493ED007A804BD3ED0D7A77EE8C
:1039E000277A17EE900AFCF747FE02460B4643EC97
:1039F000102B11F09DF953EC102B20462946FCF7B3
:103A000093FE02460B4614461D46744BDB6A18466D
:103A1000FCF732FE02460B4620462946FCF7CEFC58
:103A200002460B4643EC182BFA8A6B4913469B005F
:103A300013449B000B4404331B681846FCF71CFE20
:103A400004460D46FA8A644913469B0013449B00C2
:103A50000B4493ED007A614BD3ED0D7A77EE277A24
:103A600017EE900AFCF708FE02460B4643EC102BBB
:103A700011F0B2F953EC102B20462946FCF754FE06
:103A800002460B4614461D46544B1B6B1846FCF76A
:103A9000F3FD02460B4620462946FCF78FFC024602
:103AA0000B46CDE908238DED068B8DED04AB8DED36
:103AB000029BCDE9008952465B46494813F044FE1B
:103AC000FB8A0133FB82FA8A7B899A42FFF400AFBA
:103AD0007B891946434813F037FE7A89FB683E49D3
:103AE0003E48FEF73DFAF9683C48FFF713FA3B4BB6
:103AF000DB6A1846FCF7C0FDC7E90001374B1B6BBA
:103B00001846FCF7B9FD04460D46344B5B6B18466E
:103B1000FCF7B2FD80468946304BDB6D1846FCF75A
:103B2000ABFD82468B462D4BDB6C1846FCF7A4FDA3
:103B300002460B46CDE90623CDE904ABCDE9028967
:103B4000CDE90045D7E90023274813F0FDFD2748BC
:103B500013F0FAFD214BD3ED067A9FED257A77EE2F
:103B6000C77A17EE900AFCF787FD82468B461B4BFF
:103B7000D3ED077A9FED1E7A77EEC77A17EE900A9B
:103B8000FCF77AFD04460D46144BD3ED087A9FED01
:103B9000187A77EE877A17EE900AFCF76DFD80466B
:103BA00089460E4BD3ED097A9FED117A77EE877A2D
:103BB00017EE900AFCF760FD02460B46CDE90423A0
:103BC000CDE90289CDE9004552465B46094813F02C
:103BD000BBFD0023BB8235E0B88700100800001051
:103BE00060C41108A4C41108B4C41108ECC41108BD
:103BF00000004843F4C41108BA8A4C4913469B009C
:103C000013449B000B4408331B681846FCF734FD33
:103C100004460D46BA8A454913469B0013449B004F
:103C20000B440C331B681846FCF726FD02460B4676
:103C3000CDE9002322462B463D4813F085FDBB8A83
:103C40000133BB82BA8A7B899A42D5D3394BDB6A6E
:103C50001846FCF711FD04460D46364B1B6B184603
:103C6000FCF70AFD02460B46CDE9002322462B460F
:103C70002F4813F069FD304813F0D6FD2D4B5B6BD8
:103C80001846FCF7F9FC02460B462C4813F05CFD85
:103C9000284BDB6D1846FCF7EFFC02460B46284824
:103CA00013F052FD234BDB6C1846FCF7E5FC024693
:103CB0000B46244813F048FD00237B8222E07A8AD9
:103CC0001C4913465B001344DB000B4403F5AA7345
:103CD0001B78002B13D07C8A7A8A164913465B0026
:103CE0001344DB000B4403F5A8731B681846FCF76C
:103CF000C3FC02460B462146134813F025FD7B8A80
:103D000001337B827B8A022BD9D9104B00221A7097
:103D10000F4B00221A800F4AFB68136000BF183750
:103D2000BD46BDEC068BBDE8B08F00BFB887001064
:103D300008C511080800001014C511081CC5110899
:103D400028C5110838C5110848C51108704E001063
:103D50006E4E00103843011080B582B000AF0346AC
:103D6000FB71F91D4FF0FF330122044805F056F9AD
:103D7000FB7918460837BD4680BD00BF3C430110A3
:103D800080B582B000AF0346FB71F91D4FF0FF33E1
:103D90000122044805F042F9034618460837BD469B
:103DA00080BD00BF3C43011080B582B000AF244B02
:103DB000D3F8E030224A43F00073C2F8E030204BE1
:103DC000D3F8E03003F000737B607B68012002F0E1
:103DD000F7FF03F081F801220221002003F002F82E
:103DE000184B1B6803F0F003702B08D1164BD3F867
:103DF0000431154A43F00103C2F8043107E0124BC5
:103E0000D3F81431104A43F00103C2F8143101F021
:103E100061F84FF4FA6001F011F900F067F800F072
:103E20007FF800F039FA00F015F8084813F0FCFCB0
:103E3000FFF7D0FC064813F0F7FCFFF7F9FCFCE7AE
:103E40000044025800ED00E00064025858C5110813
:103E50006CC5110880B500AF224B234A1A60214B74
:103E60004FF461225A601F4B00229A601D4B0022C2
:103E7000DA601C4B00221A611A4B0C225A61194B52
:103E800000229A61174B0022DA61164B00221A6257
:103E9000144B00225A62134B00229A62114805F01B
:103EA0006DF80346002B01D000F072F800210D4898
:103EB00006F002F90346002B01D000F069F800215A
:103EC000084806F037F90346002B01D000F060F8EF
:103ED000044806F0B8F80346002B01D000F058F86B
:103EE00000BF80BD3C4301100010014080B483B08E
:103EF00000AF0A4BD3F8D430084A43F00103C2F8AC
:103F0000D430064BD3F8D43003F001037B607B68D8
:103F100000BF0C37BD465DF8047B70470044025873
:103F200080B485B000AF194BD3F8E030174A43F0A6
:103F30004003C2F8E030154BD3F8E03003F0400303
:103F4000FB60FB68114BD3F8E030104A43F00103EB
:103F5000C2F8E0300D4BD3F8E03003F00103BB6052
:103F6000BB680A4BD3F8E030084A43F00403C2F8B8
:103F7000E030064BD3F8E03003F004037B607B684D
:103F800000BF1437BD465DF8047B704700440258FB
:103F900080B400AF72B600BF00BFFDE780B483B04D
:103FA00000AF0A4BD3F8F430084A43F00203C2F8DA
:103FB000F430064BD3F8F43003F002037B607B68E7
:103FC00000BF0C37BD465DF8047B704700440258C3
:103FD00080B5BCB000AF786007F1DC0300221A6046
:103FE0005A609A60DA601A6107F11003C822002152
:103FF000184613F073FD7B681B68274A934246D12D
:104000004FF001024FF00003C7E904230023C7F873
:10401000903007F11003184603F044F90346002BD3
:1040200001D0FFF7B5FF1D4BD3F8F0301B4A43F02A
:104030001003C2F8F030194BD3F8F03003F010033E
:10404000FB60FB68154BD3F8E030144A43F00103E2
:10405000C2F8E030114BD3F8E03003F00103BB604D
:10406000BB684FF4C063C7F8DC300223C7F8E03008
:104070000023C7F8E4300023C7F8E8300723C7F867
:10408000EC3007F1DC031946054802F0E9FC00BFFB
:10409000F037BD4680BD00BF00100140004402580B
:1040A0000000025880B400AF00BFFDE780B400AF4D
:1040B00000BFFDE780B400AF00BFFDE780B400AFF4
:1040C00000BFFDE780B400AF00BFFDE780B400AFE4
:1040D00000BFBD465DF8047B704780B400AF00BFF1
:1040E000BD465DF8047B704780B400AF00BFBD469D
:1040F0005DF8047B704780B500AF00F07FFF00BF24
:1041000080BD80B400AF01231846BD465DF8047B36
:104110007047000080B483B000AF78603960054B11
:1041200016221A604FF0FF3318460C37BD465DF873
:10413000047B70470C79011080B582B000AF7860C5
:104140004FF0FF317868FFF7E5FF00BFFDE780B56E
:1041500086B000AFF860B9607A6000237B610AE046
:10416000FFF70EFE0146BB685A1CBA60CAB21A704D
:104170007B6901337B617A697B689A42F0DB7B68FB
:1041800018461837BD4680BD80B586B000AFF860D0
:10419000B9607A6000237B6109E0BB685A1CBA6091
:1041A0001B781846FFF7D8FD7B6901337B617A697C
:1041B0007B689A42F1DB7B6818461837BD4680BDA4
:1041C00080B483B000AF78604FF0FF3318460C37EF
:1041D000BD465DF8047B704780B483B000AF786063
:1041E00039603B684FF400525A60002318460C3780
:1041F000BD465DF8047B704780B483B000AF786043
:10420000012318460C37BD465DF8047B704780B427
:1042100085B000AFF860B9607A60002318461437A3
:10422000BD465DF8047B704780B487B000AF78600E
:10423000144A154BD31A7B617B693B61134B1B6896
:10424000002B02D1114B124A1A60104B1A687B687E
:1042500013443A699A4205D20E4B0C221A604FF071
:10426000FF3309E0094B1B68FB60084B1A687B6849
:104270001344064A1360FB6818461C37BD465DF8B8
:10428000047B70470080041000100000D043011030
:10429000207901100C79011080B584B004AF874BF0
:1042A000C0221A70854BA8225A70844B01229A7042
:1042B000824B0A22DA70824BFF221A70804BFF2257
:1042C0005A707F4BFF229A707D4B0022DA707D4B33
:1042D00000221A707B4B00225A707A4B00229A708F
:1042E000784B0022DA7007F073FA744B1B781A06C9
:1042F000724B5B781B041A43704B9B781B02134371
:104300006E4AD27813431A066C4B1B7819066B4B16
:104310005B781B041943694B9B781B020B4367496D
:10432000C9780B431B0203F47F031A43634B1B78CA
:104330001906624B5B781B041943604B9B781B0288
:104340000B435E49C9780B431B0A03F47F431A43AE
:104350005A4B1B781906594B5B781B041943574B72
:104360009B781B020B435549C9780B431B0E134323
:10437000554A1360524B1B781A06514B5B781B044D
:104380001A434F4B9B781B0213434D4AD278134379
:104390001A064B4B1B781906494B5B781B041943D3
:1043A000474B9B781B020B434549C9780B431B02C3
:1043B00003F47F031A43424B1B781906404B5B788A
:1043C0001B0419433E4B9B781B020B433C49C978A5
:1043D0000B431B0A03F47F431A43394B1B7819061E
:1043E000374B5B781B041943354B9B781B020B43FF
:1043F0003349C9780B431B0E1343344A1360314BC6
:104400001B781A062F4B5B781B041A432D4B9B78A5
:104410001B0213432B4AD27813431A06294B1B78ED
:104420001906284B5B781B041943264B9B781B020B
:104430000B432449C9780B431B0203F47F031A433F
:10444000204B1B7819061F4B5B781B0419431D4B2F
:104450009B781B020B431B49C9780B431B0A03F4CF
:104460007F431A43174B1B781906164B5B781B04C6
:104470001943144B9B781B020B431249C9780B4319
:104480001B0E1343124A1360124B0293124B0193FB
:10449000002300930E4B0D4A0B49104808F096FF7D
:1044A0000E4809F045F90D4809F052F90C490B483E
:1044B00009F050FA00BFBD4680BD00BF1444011092
:1044C000184401101C440110084401100C44011050
:1044D0001044011045B11008B1471008D443011031
:1044E000E544100880B483B000AF786000BF0C379B
:1044F000BD465DF8047B704780B584B000AF78603E
:104500000023FB73444B454A1A6000233B7280230F
:104510007B72E123BB720023FB7200233B730023F9
:104520007B733D4A07F1080353603B4B01221A722B
:10453000394B3B4ADA60384B3A4A1A61364B4FF4F2
:10454000C0625A61344800F0A7FE0346FB7338226C
:104550000021354813F0C2FA334B21221A60324B46
:104560004FF440325A61304B00221A612F4808F054
:10457000F5FD7B68062283F82C20274B5B681A78B0
:104580007B6883F82620244B5B685A787B6883F825
:104590002720214B5B689A787B6883F828201E4B84
:1045A0005B68DA787B6883F829201B4B5B681A7993
:1045B0007B6883F82A20184B5B685A797B6883F8FC
:1045C0002B207B6840F2DC529A847B6893F82D3074
:1045D00043F00A03DAB27B6883F82D2014491548AA
:1045E00000F055FB134800F084FB0346002B06D077
:1045F000786809F07FF9786809F016F908E0FB7B24
:10460000002B03D1786800F01DFA01E0FFF7C0FC31
:104610001037BD4680BD00BF284401100080024015
:10462000F04D0010904D0010D8440110F4F1110825
:10463000180200101045011080B592B000AF7860EC
:10464000396000237B6400233B64002387F83F30FC
:1046500007F10C0330220021184613F03FFA07F14E
:104660000C0330220021184613F038FA3B683B64F3
:1046700045E07B6C032B02D96FF00B0355E03B6CDC
:1046800059687A6C13465B0013449B0048333B44E3
:104690003C3B19603B6C5B8919467A6C13465B00A6
:1046A00013449B0048333B44383B19607B6C002B20
:1046B00011D07B6C5A1E07F10C00796C0B465B0025
:1046C0000B449B00C11813465B0013449B00483306
:1046D0003B44343B19603B6C1B68002B09D17A6C5E
:1046E00013465B0013449B0048333B44343B002299
:1046F0001A607B6C01337B643B6C1B683B643B6CD6
:10470000002BB6D13B681B891A460A4B5A60094AEE
:1047100007F10C039360074A3B6853631422054971
:10472000054800F069FF97F93F3018464837BD4605
:1047300080BD00BFD84401102844011080B584B06A
:1047400000AF78600023FB60074B1B78002B05D17E
:1047500007F10C031946054800F0E5FFFB68184611
:104760001037BD4680BD00BF24440110284401100D
:1047700080B584B000AF78600023FB607868FFF7F5
:10478000DDFFF860FB68002B0AD07B681B69796845
:10479000F86898470346002B02D0F86809F05AFCE5
:1047A000FB68002BEAD100BF00BF1037BD4680BDBB
:1047B00080B582B000AF78607B68002B06D10E4BCD
:1047C00040F289120D490E4812F0BEFF7B68732239
:1047D00083F82E207B68742283F82F207B68094A97
:1047E0005A617B68084A9A617868FFF785FE002362
:1047F00018460837BD4680BD80C51108CCC51108D4
:10480000DCC5110845AB10083946100880B584B0E6
:1048100000AF78607B68FB60F968074808F080FDAE
:10482000064B1B78012B02D1044B00221A7000BFEB
:104830001037BD4680BD00BFF4F1110824440110BB
:1048400080B500AF00F0EEFB0346184680BD0000C7
:1048500080B58EB000AF786007F1240300221A60A3
:104860005A609A60DA601A617B681B68494A934211
:1048700040F08B80484BD3F8D830474A43F400438C
:10488000C2F8D830444BD3F8D83003F400433B622D
:104890003B6A414BD3F8D8303F4A43F48033C2F8E7
:1048A000D8303D4BD3F8D83003F48033FB61FB693B
:1048B000394BD3F8D830384A43F40033C2F8D830F3
:1048C000354BD3F8D83003F40033BB61BB69324BAE
:1048D000D3F8E030304A43F04003C2F8E0302E4BCA
:1048E000D3F8E03003F040037B617B692A4BD3F8B7
:1048F000E030294A43F00403C2F8E030264BD3F8F5
:10490000E03003F004033B613B69234BD3F8E03014
:10491000214A43F00103C2F8E0301F4BD3F8E030E6
:1049200003F00103FB60FB684FF460537B620223DA
:10493000BB620023FB6200233B630B237B6307F115
:1049400024031946154802F08BF832237B620223B8
:10495000BB620023FB6200233B630B237B6307F1F5
:10496000240319460E4802F07BF886237B6202235B
:10497000BB620023FB6200233B630B237B6307F1D5
:1049800024031946074802F06BF800BF3837BD46CC
:1049900080BD00BF00800240004402580018025849
:1049A000000802580000025880B500AF024801F02C
:1049B00087FA0023184680BD2844011080B400AF58
:1049C00000231846BD465DF8047B704780B584B06F
:1049D00000AFF860B9607A607B68BA68F968074828
:1049E00000F0D7FF0346002B02D04FF0FF3300E06A
:1049F000002318461037BD4680BD00BF2844011073
:104A000080B584B000AFF860B9607A607B68BA683E
:104A1000F968074801F012F80346002B02D04FF066
:104A2000FF3300E0002318461037BD4680BD00BFAD
:104A30002844011080B500AF00F0F4FA0346184690
:104A400080BD000080B5A0B000AF786007F10C0316
:104A500064220021184613F041F800233B6700232D
:104A6000FB670023BB6700237B673A4800F08EF9A1
:104A700038677B6893F82D309B0803F00103DBB2A5
:104A8000002B0CD03B6F012B09DC334800F064FD98
:104A9000786808F0C9FE786808F02CFF55E07B685C
:104AA00093F82D3003F00403002B4ED13B6F012B04
:104AB0004BDD3B6F023B032B2AD801A252F823F0B7
:104AC000D14A1008E34A1008F34A1008034B1008B3
:104AD0004FF400537B674FF48043BB670123FB67B0
:104AE00017E000237B674FF48043BB670123FB671C
:104AF0000FE04FF400537B670023BB670123FB6784
:104B000007E000237B670023BB670123FB6700E00E
:104B100000BFFB6F002B18D007F10C0319460E489D
:104B200000F0E0FF7B6F7B62BB6F3B6207F10C0321
:104B30001946094801F0AAF9074800F0ABFC78686B
:104B400008F006FE786808F0A1FE00BF8037BD4679
:104B500080BD00BF104501102844011080B586B00B
:104B600002AF7860124808F06DFBF860FB68002B1C
:104B700014D0FB6803F120027B681A60FB680D4AC1
:104B80001A617B681B684FF4C06201920093FB6856
:104B900041220021002009F0A3F805E0064B012284
:104BA0001A707B6800221A6000BF1037BD4680BDB6
:104BB000F4F111080D4810082444011080B489B0A4
:104BC00000AFF860B9607A607B80FB68BB61BB684E
:104BD0007B610023FB617B68203BFB61FB6900225A
:104BE0001A60FB6900221A81FB697A885A81BB69C5
:104BF0001B68002B03D1BB69FA691A6003E07B696B
:104C00001B68FA691A607B69FA691A60BB691B68DC
:104C1000FB6109E0FB691A897B8813449AB2FB693E
:104C20001A81FB691B68FB61FB69002BF2D100BF95
:104C300000BF2437BD465DF8047B7047DFF834D0F1
:104C400000F02CF90C480D490D4A002302E0D4581D
:104C5000C4500433C4188C42F9D30A4A0A4C0023C6
:104C600001E013600432A242FBD312F0C5FFFFF74C
:104C70009BF8704700800410000000100C04001026
:104C800058FA1108504E00101C790110FEE780B44C
:104C900083B000AF786039607B68002B0BD03B6835
:104CA000DB68002B07D03B689B68002B03D03B6878
:104CB0001B69002B02D14FF0FF3314E03B681A68E8
:104CC0007B689A603B685A687B68DA603B68DA68A0
:104CD0007B685A613B689A687B681A613B681A690D
:104CE0007B689A61002318460C37BD465DF8047B4B
:104CF000704780B586B000AF78600023FB6000236A
:104D00007B6100233B617B685B68002B39D17B684A
:104D10009B68002B02D07B689B6898477B682022A9
:104D20001A6000237B611CE07B685B6907F10C0261
:104D30001221786998470346002B03DA6FF00403C9
:104D40003B610BE0FB6803F01F037A699A4205D1CF
:104D50007B687A691A6000233B6105E07B69013357
:104D60007B617B691F2BDFD97B681B681F2B02D9F6
:104D70006FF002033B613B69002B02D17B6801228B
:104D80005A603B6918461837BD4680BD80B584B06F
:104D900000AF78600023FB607B685B697A6810680D
:104DA00007F10C02012198470346002B02DA6FF04D
:104DB00004036EE07B685B697A68106807F10C0297
:104DC000012198470346002B02DA6FF0040360E0EC
:104DD000FB6803F00403002B01D1012359E07B6839
:104DE0005B697A68106807F10C0200219847034656
:104DF000002B02DA6FF004034BE0FB6803F48053EE
:104E0000002B1BD1FB6803F40053002B06D0FB687A
:104E100003F48073002B01D002233AE0FB6803F413
:104E20000053002B01D0032333E0FB6803F48073AD
:104E3000002B01D004232CE005232AE07B685B696A
:104E40007A68106807F10C021F2198470346002B6F
:104E500002DA6FF004031CE0FB6803F48053002BBC
:104E600001D1062315E0FB6803F01C03182B01D1C8
:104E700002230EE0FB6803F01C03082B01D103237F
:104E800007E0FB6803F01C03142B01D1042300E0AE
:104E9000052318461037BD4680BD000080B400AF22
:104EA0000B4BD3F888300A4A43F47003C2F88830B9
:104EB000074B1B69064A43F010031361044B4FF084
:104EC00001629A6000BFBD465DF8047B704700BF79
:104ED00000ED00E080B582B000AF284BD3F8D830A9
:104EE000264A43F48043C2F8D830244BD3F8D83054
:104EF00003F480433B603B68214B1B6823F47F2312
:104F000023F470631E4A43F4014313601C4B1B6877
:104F10001B4A43F001031360032000F079F901F00C
:104F2000E9FF0246154B9B691B0A03F00F03154965
:104F3000CB5C03F01F0322FA03F37B600F4B9B69EA
:104F400003F00F030F4AD35C03F01F037A6822FAC1
:104F500003F30D4A13600C4B1B680C4A13600020CE
:104F600000F016F80346002B01D0012302E0FFF702
:104F700015F8002318460837BD4680BD0044025886
:104F80000044024000F21108300200102C02001010
:104F900080B582B000AF7860154B1B78002B01D133
:104FA000012321E0134B1A68114B1B7819464FF46B
:104FB0007A73B3FBF1F3B2FBF3F3184600F04DF94B
:104FC0000346002B01D001230EE07B680F2B0AD88B
:104FD000002279684FF0FF3000F025F9064A7B681F
:104FE0001360002300E0012318460837BD4680BD4A
:104FF000380200102C0200103402001080B400AF00
:10500000064B1B781A46064B1B681344044A136070
:1050100000BFBD465DF8047B704700BF380200103A
:105020003045011080B400AF034B1B681846BD46E5
:105030005DF8047B704700BF3045011080B584B037
:1050400000AF7860FFF7EEFFB8607B68FB60FB683D
:10505000B3F1FF3F05D00A4B1B781A46FB68134497
:10506000FB6000BFFFF7DEFF0246BB68D31AFA6899
:105070009A42F7D800BF00BF1037BD4680BD00BFC1
:105080003802001080B483B000AF7860064B5B68D4
:1050900023F4600204497B6813434B6000BF0C3764
:1050A000BD465DF8047B70470004005880B485B0AD
:1050B00000AF78607B6803F00703FB600C4BDB6894
:1050C000BB60BA684FF6FF031340BB60FB681A026F
:1050D000BB68134343F0BF6343F40033BB60044A2F
:1050E000BB68D36000BF1437BD465DF8047B7047D2
:1050F00000ED00E080B400AF044BDB681B0A03F056
:1051000007031846BD465DF8047B704700ED00E0DC
:1051100080B483B000AF03463960FB80B7F9063036
:10512000002B0ADB3B68DAB20C49B7F906301201F2
:10513000D2B20B4483F800230AE03B68DAB2084994
:10514000FB8803F00F03043B1201D2B20B441A7622
:1051500000BF0C37BD465DF8047B704700E100E0FE
:1051600000ED00E080B489B000AFF860B9607A600B
:10517000FB6803F00703FB61FB69C3F10703042B22
:1051800028BF0423BB61FB690433062B02D9FB69EA
:10519000033B00E000237B614FF0FF32BB6902FA62
:1051A00003F3DA43BB681A407B699A404FF0FF3142
:1051B0007B6901FA03F3D9437B680B40134318461C
:1051C0002437BD465DF8047B7047000080B582B08F
:1051D00000AF78607B68013BB3F1807F01D301238E
:1051E0000FE00A4A7B68013B53600F214FF0FF300C
:1051F000FFF78EFF054B00229A60044B07221A60CE
:10520000002318460837BD4680BD00BF10E000E00F
:1052100080B582B000AF78607868FFF747FF00BFC5
:105220000837BD4680BD80B586B000AF0346B96083
:105230007A60FB81FFF75EFF78617A68B968786908
:10524000FFF790FF0246B7F90E3011461846FFF7F8
:105250005FFF00BF1837BD4680BD80B582B000AF8C
:1052600078607868FFF7B2FF034618460837BD46F6
:1052700080BD000080B400AF064B1B6803F0F00354
:10528000702B01D1032300E001231846BD465DF8D1
:10529000047B704700ED00E080B584B000AF78601B
:1052A0007B68002B01D10123E7E07B68D3F88430D1
:1052B000002B06D17B682022C3F884207868FFF792
:1052C000C7FA704BD3F8F4306E4A43F00203C2F8C9
:1052D000F4306C4BD3F8F43003F00203BB60BB68CE
:1052E0007B681B7A002B03D10020FFF7CBFE03E085
:1052F0004FF40000FFF7C6FE634B5B687B681B68DA
:1053000003F580531B687A68126843F0010302F5C5
:1053100080521360FFF786FEF86011E0FFF782FE0F
:105320000246FB68D31AB3F5FA7F09D97B680422D9
:10533000C3F888207B68E022C3F8842001239CE026
:105340007B681B6803F580531B6803F00103002B87
:10535000E4D1786800F0B4FD01F046FF03464B4A03
:10536000A2FB03239A0C7B681B68013AC3F8DC207C
:10537000786800F097FF7B681B6803F58053D3F8CB
:10538000003123F4E0137A68126843F4002302F535
:105390008052C2F800317B685B6903F00303002B85
:1053A00009D07B680122C3F888207B68E022C3F81B
:1053B0008420012361E07B681B6803F58053D3F8E8
:1053C000083123F4FF4323F07E037A6852695100C9
:1053D0007A6812680B4302F58052C2F80831786887
:1053E00000F0FDFF786801F043F87B685B680533E7
:1053F0001B781A027B685B6804331B7819467B684C
:105400001B680A43C3F800237B685B6803331B787F
:105410001A067B685B6802331B781B041A437B689F
:105420005B6801331B781B021A437B685B681B783F
:1054300019467B681B680A43C3F804237B681B6812
:10544000D3F80C177B681A68114B0B43C2F80C3762
:105450007B681B68D3F810377A68126843F04263A0
:1054600043F44043C2F810377B680022C3F8882019
:105470007B681022C3F88420002318461037BD46ED
:1054800080BD00BF004402580004005883DE1B4367
:105490006000020C80B582B000AF78607B68D3F802
:1054A0008430102B53D17B682022C3F884207B6882
:1054B0000422DA66786800F0F3F97B681B681A68E2
:1054C0007B681B6842F002021A607B681B681A68DE
:1054D0007B681B6842F001021A607B681B68D3F886
:1054E000002D7B681B6842F00102C3F8002D7B6829
:1054F0001B6803F58053D3F804317A68126843F0CF
:10550000010302F58052C2F804317B681B6803F581
:105510008053D3F808317A68126843F0010302F52A
:105520008052C2F808317B681B6803F58053D3F8BA
:1055300060317A68126843F4817302F58052C2F8D0
:1055400060317B684022C3F88420002300E00123FF
:1055500018460837BD4680BD80B483B000AF786080
:105560007B68D3F88430402B3FD17B682022C3F87E
:1055700084207B681B6803F58053D3F804317A6874
:10558000126823F0010302F58052C2F804317B68EF
:105590001B6803F58053D3F808317A68126823F04A
:1055A000010302F58052C2F808317B681B681A6853
:1055B0007B681B6822F001021A607B681B68D3F8C5
:1055C000002D7B681B6842F00102C3F8002D7B6848
:1055D0001B681A687B681B6822F002021A607B68ED
:1055E0001022C3F88420002300E0012318460C3762
:1055F000BD465DF8047B704780B586B000AFF860AB
:10560000B9607A60BB68002B09D1FB68D3F8883099
:1056100043F00102FB68C3F8882001237FE0FB68A8
:10562000D3F88430402B79D10022B968F86800F0B3
:105630007CFF0346002B09D0FB68D3F8883043F089
:105640000202FB68C3F88820012368E0BFF34F8F94
:1056500000BFFB689A6AFB68063253F822307B6110
:10566000FB689B6A5A1CFB689A62FB689B6A032B67
:1056700004D9FB689B6A1A1FFB689A62FB68996AE7
:10568000FB681A68FB68063153F8213002F5805236
:10569000C2F82031FFF7C6FC386139E0FB681B68AF
:1056A00003F58053D3F8603103F48053002B12D0FC
:1056B000FB68D3F8883043F00802FB68C3F8882001
:1056C000FB681B6803F58053D3F86021FB68C3F8BF
:1056D0008C20012323E07B68B3F1FF3F18D0FFF754
:1056E000A1FC02463B69D31A7A689A4202D37B68CE
:1056F000002B0DD1FB68D3F8883043F00402FB681F
:10570000C3F888207B694FF04052DA60012306E03D
:105710007B69DB68002BC1DB002300E00123184616
:105720001837BD4680BD80B588B000AF786039605D
:1057300000237B610023FB743B68002B09D17B684D
:10574000D3F8883043F001027B68C3F88820012336
:10575000A2E07B68D3F88430402B01D001239BE08A
:105760007B68DB6DFB617B68FA69123253F822308B
:10577000BB617B68DB6EC3F10403FB6064E0BB6963
:10578000DB6803F08043002B07D0BB695A687B6855
:105790009A67BB691A687B685A67BB69DB6803F064
:1057A0000053002B03D17B68DB6F002B3AD0BB6921
:1057B000DB6803F00053002B05D07B6800221A66DB
:1057C0007B6800225A66BB69DB68C3F30E027B6804
:1057D0005B6ED31ABB60BB69DB6803F08053002BA0
:1057E00005D0BB69DA687B681A670123FB747B68A4
:1057F00003F17C007B6803F18001BB691B691A46D9
:10580000BB689BB2FFF7DAF97B681B6E5A1C7B689A
:105810001A667B685A6EBB681A447B685A66BB6915
:1058200000221A61FB690133FB61FB69032B02D97A
:10583000FB69043BFB617B68FA69123253F8223042
:10584000BB617B6901337B61BB69DB68002B06DBD5
:105850007A69FB689A4202D2FB7C002B8FD07B686E
:10586000DA6E7B691A447B68DA667B68DB6E002B34
:1058700002D0786800F014F87B68FA69DA65FB7C7E
:10588000012B08D17B68DA6F3B681A607B680022C5
:10589000DA67002300E0012318462037BD4680BDAB
:1058A00080B588B000AF78600023BB600123FB7433
:1058B0007B689B6EFB617B68FA69123253F8223079
:1058C0007B617B68DB6EBB6138E07B691B69002B09
:1058D00012D107F108031846FFF740F9BB68002B07
:1058E00002D10023FB7407E0BB681A467B691A618A
:1058F000BB681A467B691A60FB7C002B1ED07B6854
:105900009B6D002B04D07B694FF04142DA6003E0CD
:105910007B694FF00142DA60FB690133FB61FB698F
:10592000032B02D9FB69043BFB617B68FA691232E5
:1059300053F822307B61BB69013BBB61BB69002B23
:1059400002D0FB7C002BC0D17B68DB6EBA699A4227
:105950001BD0FB69033303F00303FB60BFF35F8FCE
:1059600000BF7B681969FA6813465B001344DB00CB
:10597000CA187B681B6803F58053C3F828217B682D
:10598000FA699A667B68BA69DA6600BF2037BD4655
:1059900080BD80B586B000AFF860B9607A603B60CA
:1059A000FB681B68D3F8003203F00103002B01D021
:1059B00001233EE0FB681B68D3F800327B617B6902
:1059C00023F07872BB685B0513437B617B6923F42A
:1059D000F8127B681B0413437B617B6943F00C0363
:1059E0007B617B6943F001037B61FB681B687A691B
:1059F000C3F80022FFF716FB386109E0FFF712FB3E
:105A000002463B69D31AB3F57A7F01D9012310E02E
:105A1000FB681B68D3F8003203F00103002BEDD1C3
:105A2000FB681B68D3F804329BB21A463B681A60C5
:105A3000002318461837BD4680BD000080B586B0EB
:105A400000AFF860B9607A603B60FB681B68D3F810
:105A5000003203F00103002B01D001233CE0FB687E
:105A60001B68D3F800327B617B6923F07872BB68D6
:105A70005B0513437B617B6923F4F8127B681B048D
:105A800013437B617B6923F00C0343F004037B61C8
:105A90007B6943F001037B613B689AB2104BC3F80A
:105AA00004220F4A7B69C2F80032FFF7BBFA386163
:105AB00009E0FFF7B7FA02463B69D31AB3F57A7FDC
:105AC00001D9012308E0FB681B68D3F8003203F01A
:105AD0000103002BEDD1002318461837BD4680BDC9
