:020000040810E2
:1000000000800410D5481008513D1008593D1008D3
:10001000613D1008693D1008713D100800000000A6
:10002000000000000000000000000000793D100802
:10003000873D100800000000953D1008A33D100802
:100040002549100825491008254910082549100898
:100050002549100825491008254910082549100888
:100060002549100825491008254910082549100878
:100070002549100825491008254910082549100868
:100080002549100825491008254910082549100858
:100090002549100825491008254910082549100848
:1000A0002549100825491008254910082549100838
:1000B0002549100825491008254910082549100828
:1000C0002549100825491008254910082549100818
:1000D0002549100825491008254910082549100808
:1000E000254910082549100800000000254910087E
:1000F00025491008254910082549100825491008E8
:1001000025491008254910082549100825491008D7
:1001100025491008254910082549100825491008C7
:1001200025491008254910082549100825491008B7
:1001300025491008254910082549100825491008A7
:1001400025491008254910080000000000000000A3
:100150002549100825491008254910082549100887
:100160002549100825491008254910082549100877
:1001700025491008254910082549100800000000ED
:100180002549100825491008254910082549100857
:100190002549100825491008254910082549100847
:1001A0002549100825491008254910082549100837
:1001B0002549100825491008254910082549100827
:1001C0002549100825491008254910082549100817
:1001D0002549100825491008254910082549100807
:1001E00025491008254910082549100825491008F7
:1001F00025491008254910082549100825491008E7
:1002000025491008254910082549100825491008D6
:1002100025491008254910082549100825491008C6
:1002200025491008254910082549100825491008B6
:1002300025491008254910082549100825491008A6
:100240002549100825491008254910082549100896
:100250002549100825491008254910082549100886
:100260002549100825491008254910082549100876
:100270002549100825491008254910082549100866
:1002800025491008254910082549100800000000DC
:0802900025491008254910085A
:1002A00010B5054C237833B9044B13B10448AFF3B0
:1002B00000800123237010BD5404001000000000D2
:1002C000E4B5110808B5034B1BB103490348AFF36C
:1002D000008008BD0000000058040010E4B51108BB
:1002E00010F8012B11F8013B012A28BF9A42F7D0E0
:1002F000D01A70470000000000000000000000005D
:1003000001F0FF01102A2BDB10F0070F08D010F8C6
:10031000013B013A8B422DD010F0070F42B3F6D1CA
:10032000F0B441EA012141EA014122F007047FF0E3
:1003300000070023F0E80256083C85EA010586EA3A
:10034000010685FA47F5A3FA87F586FA47F6A5FA76
:1003500087F68EB9EED1F0BC01F0FF0102F0070282
:1003600032B110F8013B013A83EA010313B1F8D12D
:100370000020704701387047002D06BF354603380E
:10038000073815F0010F07D1013015F4807F02BF47
:10039000013015F4C03F0130F0BC0138704700BF98
:1003A000034613F8012B002AFBD1181A01387047B5
:1003B00081F0004102E000BF83F0004330B54FEA16
:1003C00041044FEA430594EA050F08BF90EA020F83
:1003D0001FBF54EA000C55EA020C7FEA645C7FEA16
:1003E000655C00F0E2804FEA5454D4EB5555B8BF39
:1003F0006D420CDD2C4480EA020281EA030382EAAA
:10040000000083EA010180EA020281EA0303362D3B
:1004100088BF30BD11F0004F4FEA01314FF4801C0E
:100420004CEA113102D0404261EB410113F0004F20
:100430004FEA03334CEA133302D0524263EB4303D7
:1004400094EA050F00F0A780A4F10104D5F1200E75
:100450000DDB02FA0EFC22FA05F2801841F10001D0
:1004600003FA0EF2801843FA05F359410EE0A5F1A4
:1004700020050EF1200E012A03FA0EFC28BF4CF0D5
:10048000020C43FA05F3C01851EBE37101F000458B
:1004900007D54FF0000EDCF1000C7EEB00006EEB98
:1004A0000101B1F5801F1BD3B1F5001F0CD3490822
:1004B0005FEA30004FEA3C0C04F101044FEA445279
:1004C00012F5800F80F09A80BCF1004F08BF5FEA00
:1004D000500C50F1000041EB045141EA050130BDE0
:1004E0005FEA4C0C404141EB0101013C28BFB1F5F2
:1004F000801FE9D291F0000F04BF01460020B1FA3D
:1005000081F308BF2033A3F10B03B3F120020CDA0F
:100510000C3208DD02F1140CC2F10C0201FA0CF0ED
:1005200021FA02F10CE002F11402D8BFC2F1200C52
:1005300001FA02F120FA0CFCDCBF41EA0C01904008
:10054000E41AA2BF01EB0451294330BD6FEA040451
:100550001F3C1CDA0C340EDC04F11404C4F120023C
:1005600020FA04F001FA02F340EA030021FA04F34E
:1005700045EA030130BDC4F10C04C4F1200220FAA5
:1005800002F001FA04F340EA0300294630BD21FAE3
:1005900004F0294630BD94F0000F83F4801306BFA9
:1005A00081F480110134013D4EE77FEA645C18BF9D
:1005B0007FEA655C29D094EA050F08BF90EA020F34
:1005C00005D054EA000C04BF1946104630BD91EA2C
:1005D000030F1EBF0021002030BD5FEA545C05D12F
:1005E0004000494128BF41F0004130BD14F580046E
:1005F0003CBF01F5801130BD01F0004545F0FE41E2
:1006000041F470014FF0000030BD7FEA645C1ABF16
:10061000194610467FEA655C1CBF0B46024650EA4D
:10062000013406BF52EA033591EA030F41F4002179
:1006300030BD00BF90F0000F04BF0021704730B5FF
:100640004FF4806404F132044FF000054FF00001D4
:1006500050E700BF90F0000F04BF0021704730B595
:100660004FF4806404F1320410F0004548BF40426A
:100670004FF000013EE700BF42004FEAE2014FEABF
:1006800031014FEA02701FBF12F07F4393F07F4F9A
:1006900081F06051704732F07F4208BF704793F09D
:1006A0007F4F04BF41F40021704730B54FF46074B0
:1006B00001F0004521F000411CE700BF50EA0102B3
:1006C00008BF704730B54FF000050AE050EA01025C
:1006D00008BF704730B511F0004502D5404261EBCC
:1006E00041014FF4806404F132045FEA915C3FF40D
:1006F000D8AE4FF003025FEADC0C18BF03325FEAAA
:10070000DC0C18BF033202EBDC02C2F1200300FA5A
:1007100003FC20FA02F001FA03FE40EA0E0021FA7F
:1007200002F11444BDE600BF70B54FF0FF0C4CF46D
:10073000E06C1CEA11541DBF1CEA135594EA0C0F1F
:1007400095EA0C0F00F0DEF82C4481EA030621EA5A
:100750004C5123EA4C5350EA013518BF52EA033595
:1007600041F4801143F4801338D0A0FB02CE4FF047
:100770000005E1FB02E506F00042E0FB03E54FF077
:100780000006E1FB03569CF0000F18BF4EF0010E6F
:10079000A4F1FF04B6F5007F64F5407404D25FEA6B
:1007A0004E0E6D4146EB060642EAC62141EA55511E
:1007B0004FEAC52040EA5E504FEACE2EB4F1FD0C60
:1007C00088BFBCF5E06F1ED8BEF1004F08BF5FEADE
:1007D000500E50F1000041EB045170BD06F0004690
:1007E00046EA010140EA020081EA0301B4EB5C043D
:1007F000C2BFD4EB0C0541EA045170BD41F4801135
:100800004FF0000E013C00F3AB8014F1360FDEBF59
:10081000002001F0004170BDC4F10004203C35DA35
:100820000C341BDC04F11404C4F1200500FA05F3B8
:1008300020FA04F001FA05F240EA020001F0004259
:1008400021F0004110EBD37021FA04F642EB0601CF
:100850005EEA430E08BF20EAD37070BDC4F10C04F9
:10086000C4F1200500FA04F320FA05F001FA04F2BD
:1008700040EA020001F0004110EBD37041F10001A9
:100880005EEA430E08BF20EAD37070BDC4F12005B4
:1008900000FA05F24EEA020E20FA04F301FA05F21C
:1008A00043EA020321FA04F001F0004121FA04F2C4
:1008B00020EA020000EBD3705EEA430E08BF20EA94
:1008C000D37070BD94F0000F0FD101F000464000CE
:1008D00041EB010111F4801F08BF013CF7D041EA50
:1008E000060195F0000F18BF704703F00046520054
:1008F00043EB030313F4801F08BF013DF7D043EA25
:100900000603704794EA0C0F0CEA135518BF95EADA
:100910000C0F0CD050EA410618BF52EA4306D1D161
:1009200081EA030101F000414FF0000070BD50EA80
:10093000410606BF1046194652EA430619D094EA0A
:100940000C0F02D150EA013613D195EA0C0F05D1F4
:1009500052EA03361CBF104619460AD181EA030148
:1009600001F0004141F0FE4141F470014FF0000000
:1009700070BD41F0FE4141F4780170BD70B54FF09B
:10098000FF0C4CF4E06C1CEA11541DBF1CEA13551B
:1009900094EA0C0F95EA0C0F00F0A7F8A4EB0504FD
:1009A00081EA030E52EA03354FEA013100F08880F4
:1009B0004FEA03334FF0805545EA131343EA1263BD
:1009C0004FEA022245EA111545EA10654FEA002672
:1009D0000EF000419D4208BF964244F1FD0404F52B
:1009E000407402D25B084FEA3202B61A65EB030587
:1009F0005B084FEA32024FF480104FF4002CB6EB44
:100A0000020E75EB030E22BFB61A754640EA0C00C3
:100A10005B084FEA3202B6EB020E75EB030E22BF03
:100A2000B61A754640EA5C005B084FEA3202B6EB44
:100A3000020E75EB030E22BFB61A754640EA9C0003
:100A40005B084FEA3202B6EB020E75EB030E22BFD3
:100A5000B61A754640EADC0055EA060E18D04FEA91
:100A6000051545EA16754FEA06164FEAC30343EA31
:100A700052734FEAC2025FEA1C1CC0D111F4801FFE
:100A80000BD141EA00014FF000004FF0004CB6E7F7
:100A900011F4801F04BF01430020B4F1FD0C88BF96
:100AA000BCF5E06F3FF6AFAEB5EB030C04BFB6EBA1
:100AB000020C5FEA500C50F1000041EB045170BD94
:100AC0000EF0004E4EEA113114EB5C04C2BFD4EBC1
:100AD0000C0541EA045170BD41F480114FF0000E45
:100AE000013C90E645EA060E8DE60CEA135594EAC1
:100AF0000C0F08BF95EA0C0F3FF43BAF94EA0C0FC4
:100B00000AD150EA01347FF434AF95EA0C0F7FF438
:100B100025AF104619462CE795EA0C0F06D152EA8C
:100B200003353FF4FDAE1046194622E750EA410670
:100B300018BF52EA43067FF4C5AE50EA41047FF481
:100B40000DAF52EA43057FF4EBAE12E74FF0FF3CE6
:100B500006E000BF4FF0010C02E000BF4FF0010CB7
:100B60004DF804CD4FEA410C7FEA6C5C4FEA430C30
:100B700018BF7FEA6C5C1BD001B050EA410C0CBF7F
:100B800052EA430C91EA030F02BF90EA020F0020E1
:100B9000704710F1000F91EA030F58BF994208BF48
:100BA00090422CBFD8176FEAE37040F00100704705
:100BB0004FEA410C7FEA6C5C02D150EA013C07D15C
:100BC0004FEA430C7FEA6C5CD6D152EA033CD3D0A7
:100BD0005DF8040B704700BF8446104662468C46A1
:100BE0001946634600E000BF01B5FFF7B7FF0028D4
:100BF00048BF10F1000F01BD4DF808EDFFF7F4FFFD
:100C00000CBF012000205DF808FB00BF4DF808ED87
:100C1000FFF7EAFF34BF012000205DF808FB00BFAA
:100C20004DF808EDFFF7E0FF94BF012000205DF8CC
:100C300008FB00BF4DF808EDFFF7CEFF94BF012081
:100C400000205DF808FB00BF4DF808EDFFF7C4FF7A
:100C500034BF012000205DF808FB00BF4FEA410CC3
:100C60007FEA6C5C02D150EA013C0AD14FEA430CA6
:100C70007FEA6C5C02D152EA033C02D14FF00000E3
:100C800070474FF0010070474FEA410212F5001221
:100C900015D211D56FF47873B3EB625212D94FEAC3
:100CA000C12343F0004343EA505311F0004F23FAAD
:100CB00002F018BF404270474FF00000704750EA02
:100CC000013005D111F0004008BF6FF000407047BF
:100CD0004FF00000704700BF4A0011D212F5001219
:100CE00011D20DD56FF47873B3EB62520ED44FEA84
:100CF000C12343F0004343EA505323FA02F0704704
:100D00004FF00000704750EA013002D14FF0FF3041
:100D100070474FF0000070474FEA4102B2F1E043E4
:100D200024BFB3F5001CDCF1FE5C0DD901F0004CD2
:100D30004FEAC0024CEA5070B2F1004F40EB830022
:100D400008BF20F00100704711F0804F21D113F14E
:100D50003872BCBF01F00040704741F480114FEA87
:100D60005252C2F11802C2F1200C10FA0CF320FA10
:100D700002F018BF40F001004FEAC1234FEAD3232D
:100D800003FA0CFC40EA0C0023FA02F34FEA430397
:100D9000CCE77FEA625307D150EA01331EBF4FF020
:100DA000FE4040F44000704701F0004040F0FE403B
:100DB00040F40000704700BF53B94AB9002908BF8A
:100DC00000281CBF4FF0FF314FF0FF3000F0BEB9DC
:100DD000ADF1080C6DE904CE00F03CF8DDF804E05C
:100DE000DDE9022304B0704738B500220023044631
:100DF0000D46FFF70BFF28B920462946BDE83840CD
:100E000000F00AB8204605F1004100F005F8404224
:100E100061EB410138BD00BFD0B50C4B0022064646
:100E20000F46FFF781FCFFF757FF0446FFF702FC70
:100E3000074B0022FFF778FC02460B463046394646
:100E4000FFF7BAFAFFF748FF2146D0BD0000F03D9A
:100E50000000F0412DE9F047089D8E460446884683
:100E6000002B4AD18A42174662D9B2FA82F64EB1B5
:100E7000C6F1200301FA06F820FA03F3B74043EA6B
:100E80000808B4404FEA174E1FFA87FCB8FBFEF182
:100E9000230C0EFB118843EA084301FB0CF29A4233
:100EA00009D9FB1801F1FF3080F0EA809A4240F244
:100EB000E78002393B449A1AA3B2B2FBFEF00EFB64
:100EC000102243EA024300FB0CFC9C4509D9FB18A5
:100ED00000F1FF3280F0D6809C4540F2D3803B4445
:100EE000023840EA0140A3EB0C0300211DB1F3409E
:100EF0000022C5E90032BDE8F0878B4205D90DB16B
:100F0000C5E9000100210846F5E7B3FA83F100299D
:100F100046D1734502D3824200F20581841A6EEBFA
:100F2000030201209046002DE5D0C5E90048E2E724
:100F3000002A00F09080B2FA82F6002E40F0A480E1
:100F40008A1A030C4FEA174E80B2BCB20121B2FBE1
:100F5000FEFC0EFB1C2243EA024304FB0CF29A4205
:100F600007D9FB180CF1FF3802D29A4200F2E08058
:100F7000C4469B1AB3FBFEF20EFB123340EA034356
:100F800002FB04F49C4207D9FB1802F1FF3002D2A5
:100F90009C4200F2CA8002461B1B42EA0C40A5E7B5
:100FA000C1F120068B4022FA06F71F430EFA01F426
:100FB00020FA06F32EFA06FE4FEA1749234300FAF9
:100FC00001F81FFA87FCBEFBF9F01C0C09FB10EEC0
:100FD00044EA0E4400FB0CFEA64502FA01F209D9D0
:100FE0003C1900F1FF3A80F09C80A64540F29980C0
:100FF00002383C44A4EB0E041FFA83FEB4FBF9F361
:1010000009FB13444EEA044403FB0CFCA44508D935
:101010003C1903F1FF3E80F08280A4457FD9023B5A
:101020003C4443EA0040A4EB0C04A0FB02EC644502
:101030007346E14662D35FD05DB1B8EB030264EB67
:10104000090404FA06F622FA01F31E43CC40C5E96E
:10105000006400214FE7B1FBF2FC010C41EA0E41B4
:1010600080B240EA01423B4638463C46B846BE465E
:101070002026B1FBF7F1A2EB080241EA0C4166E73A
:10108000014618E710462CE7C6F120022EFA02F3BB
:10109000B740B14020FA02F24FEA174E0A43B3FBC1
:1010A000FEF8BCB20EFB1833110C41EA034108FBF9
:1010B00004F9B04089454FEA104380B23ED979180F
:1010C00008F1FF3C01D289451FD8A1EB0901B1FB12
:1010D000FEF909FB04F80EFB191192B242EA014233
:1010E000424529D2BA1809F1FF31C4D24245C2D2D1
:1010F000A9F102013A44BEE7F0459DD2BEEB0203DE
:101100006CEB070C0138E14696E7A7EB0909494467
:10111000A8F1020CB1FBFEF909FB04F8DBE773460A
:101120007FE7504666E70846FDE63B44023A33E770
:10113000ACF1020C3B441CE749469CE7A1EB0901DA
:10114000C446B1FBFEF909FB04F8C4E7704700BFD1
:1011500080B584B000AF786039607B681B7AFB7320
:101160007B681B6818460BF013FC7B689B6918466C
:101170000BF00EFC78680BF00BFCFB7B022B06D10E
:10118000386813F04DFB386813F092FB02E03868C2
:101190000DF078FA00BF1037BD4680BD80B584B031
:1011A00000AFF860B9607A603B60FB685B69002B58
:1011B00004D0FB685B697968F868984778680CF038
:1011C000C3FD00BF1037BD4680BD000080B586B0AE
:1011D00000AFF860B9607A60FB70FB687B617B6888
:1011E0005B89B3F5FA6F51D87B685B891946B8689B
:1011F0000DF098FB7B691B7A012B35D17B685B89ED
:10120000002B41D07B685B682349184616F005FB2C
:101210000346002B0AD07B685B6803F109007B69F9
:101220000A331A461D4916F0A1F92DE07B685B6868
:101230007B21184616F0D2FA0346002B0DD07B69AD
:101240005B69002B04D07B695B6979687869984792
:10125000B9687869FFF77CFF16E07B691B6819465F
:101260000F4816F0E9F80FE07B691B7A032B0BD1CE
:101270007B695B69002B04D07B695B69796878695D
:10128000984778680CF060FD002301E000BF00BFC4
:1012900018461837BD4680BD00B6110808B61108BB
:1012A0000CB6110890B587B000AFF860B96013466E
:1012B000FB71FB687B617B691B7A012B02D0032BDE
:1012C00023D01BE07B699C697B699B691846FFF70B
:1012D00067F803469AB201232146B86811F0ACF9C9
:1012E0000346FB74B86811F091FF0346FB7497F94D
:1012F0001330002B0BD097F9133016E0B9687869DA
:10130000FFF726FF6FF00F030FE000BF00E000BF04
:101310007B691B69002B03D07B691B69786998473F
:101320000449B8680EF0EAFA002318461C37BD4697
:1013300090BD00BFCD111008B0B586B000AF786089
:1013400000237B6100233B617B681B7A022B03D166
:1013500013F0F0FA786102E00EF0B6FA38611C2062
:101360000BF07CFCF860FB68002B05D03B69002B80
:1013700017D17B69002B14D1FB68002B02D0F868D1
:101380000BF006FB3B69002B02D038690DF07AF9AF
:101390007B69002B02D0786913F08AFA4FF0FF3393
:1013A00027E0FA687B6814461D460FCD0FC495E808
:1013B000070084E807007B681B7A022B0CD1FA68CF
:1013C0000E49786913F054FAFB689B891A460C4958
:1013D000786913F09DF90BE0F96838690EF07CFA32
:1013E000FB68191DFB689A89064B38690DF030FBC4
:1013F000002318461837BD46B0BD00BF9D11100828
:10140000DCF90010A512100880B582B000AF78603A
:10141000084611461A460346FB700B46BB7013463E
:101420007B70FB781A06BB781B041A437B781B027F
:101430001A433B7C13431A06FB781906BB781B043E
:1014400019437B781B0219433B7C0B431B0203F4BB
:101450007F031A43FB781906BB781B0419437B787A
:101460001B0219433B7C0B431B0A03F47F431A43C3
:10147000FB781906BB781B0419437B781B021943C0
:101480003B7C0B431B0E1A437B681A60034816F023
:1014900043F800BF0837BD4680BD00BF44B6110801
:1014A00080B500AF034802F0AFFF12F02DFF00BF80
:1014B00080BD00BFD8F9001090B597B002AF78603A
:1014C000274B5B68FB64264B9B68BB64244BDB6843
:1014D0007B64FB6CD9B2FB6C1B0ADCB2FB6C1B0C93
:1014E000DBB2FA6C120E07F1300001920093234632
:1014F0000A461C4916F018F87B6CD9B27B6C1B0AA3
:10150000DCB27B6C1B0CDBB27A6C120E07F11C0098
:101510000192009323460A46124916F005F8BB6C67
:10152000D9B2BB6C1B0ADCB2BB6C1B0CDBB2BA6C55
:10153000120E07F108000192009323460A4609495A
:1015400015F0F2FF07F1080307F11C0207F1300163
:10155000054815F071FF00BF5437BD4690BD00BF70
:10156000D8F9001054B6110864B6110890B5ADF65C
:10157000140D00AF07F50163A3F60C03186007F51F
:101580000163A3F50163196007F50163A3F5016326
:101590001B685B89002B5FD007F50163A3F6080386
:1015A000184640F602031A46002116F00FF907F517
:1015B0000163A3F501631B68596807F50163A3F58F
:1015C00001631B685A8907F10803184601F0FCFC07
:1015D00007F50163A3F60C031B681B681946214835
:1015E00015F02AFF0023C7F80C382AE007F501633D
:1015F000A3F501631B68586807F10802D7F80C3897
:10160000DB001344194601F0ADFD044607F5016304
:10161000A3F501631B68586807F10802D7F80C3876
:10162000DB001344194601F0C3FD03462246D7F8F8
:101630000C180D4815F000FFD7F80C380133C7F827
:101640000C3807F50163A3F60803B3F800381A460F
:10165000D7F80C389342C9DB0023184607F6140765
:10166000BD4690BD84BB1108A0BB110890B583B0E6
:1016700000AF78607B689C697B689B691846FEF7C1
:101680008FFE0346043B234400221A707B681968CE
:101690007B689B691A46044815F0CEFE0023184665
:1016A0000C37BD4690BD00BFB8BB110880B58EB0E9
:1016B00000AFF860B9607A603B60B868FEF770FE12
:1016C00003469BB201339BB218460BF0C7FA78630E
:1016D0007868FEF765FE03469BB201339BB218465D
:1016E0000BF0BCFA38637B6B002B02D03B6B002BFA
:1016F00012D17B6B002B02D0786B0BF049F93B6B5E
:10170000002B02D0386B0BF043F979681D4815F0B7
:1017100093FE4FF0FF3331E07868FEF741FE034659
:1017200001331A467968386B16F005F9B868FEF788
:1017300037FE034601331A46B968786B16F0FBF89A
:1017400007F1140300221A605A609A60DA601A6185
:101750005A619A613B6B7B61FB68BB6101233B77FC
:1017600050233B84084B7B623B68BB627B6BFB6214
:1017700007F114031846FFF7DFFD0023184638373A
:10178000BD4680BDE0BB11086D16100880B584B061
:1017900000AFF860B9607A60054B7A68B968F8689C
:1017A000FFF784FF00BF18461037BD4680BD00BF5D
:1017B0006D15100880B586B000AF786039603B6861
:1017C0005B6802333B613B685B683A69D28892B2DE
:1017D0001344FB603B6993F8282093F829301B02DF
:1017E0001343FB820023BB8224E0FB8AB3F5166F10
:1017F00006D34FF41661204815F01EFE0023FB822D
:10180000BA8A13465B0013445B001A46FB689818BB
:10181000FA8A1A4913465B0013445B000B440246E4
:101820001168196092889A80BB8A0133BB82FB8A57
:101830000133FB823B69DB8C9BB2BA8A9A42D4D3D8
:101840003B69DB8C9AB20E4B1B8813449AB20C4B4B
:101850001A803B699B8C9BB2FA8A9A4207D13B69FA
:101860009B8C9AB2074B1A80074B01221A7000BF5B
:1018700018461837BD4680BD64BC110878040010B6
:1018800072040010700400107404001090B5ADF6DE
:101890004C1D00AF07F64813A3F64413186007F673
:1018A0004813A3F64813196007F64813A3F6481324
:1018B0001B685B89002B02D16FF00503E3E107F69B
:1018C0004813A3F61403184640F602031A460021F3
:1018D00015F07CFF07F64813A3F648131B685968F8
:1018E00007F64813A3F648131B685A8907F59A733D
:1018F000184601F069FB07F64813A3F644131B686A
:101900001B681946BA4815F097FD0023C7F84439FB
:101910002AE007F64813A3F648131B68586807F532
:101920009A72D7F84439DB001344194601F01AFCC7
:10193000044607F64813A3F648131B68586807F5D2
:101940009A72D7F84439DB001344194601F030FC91
:1019500003462246D7F84419A64815F06DFDD7F87E
:1019600044390133C7F8443907F64813A3F6140382
:10197000B3F800381A46D7F844399342C9DB162029
:101980000BF06CF9C7F83C0907F64813A3F502639E
:10199000994A07CA83E8070007F594731846FEF7CB
:1019A000FFFC03469BB218460BF058F9C7F83809FC
:1019B000D7F83C39002B03D0D7F83839002B1CD18D
:1019C000D7F83C39002B03D0D7F83C090AF0E0FFE8
:1019D000D7F83839002B03D0D7F838090AF0D8FFE8
:1019E00007F64813A3F644131B681B68194683487F
:1019F00015F022FD4FF0FF3345E107F594731846CB
:101A0000FEF7CEFC03465A1C07F594731946D7F827
:101A1000380915F090FF0023A7F842398DE007F64A
:101A20004813A3F648131B685868B7F8423907F5FE
:101A30009A72DB001344194601F094FB0346704987
:101A40001846FEF74DFC0346002B16D107F6481347
:101A5000A3F648131B685868B7F8423907F59A721D
:101A6000DB001344194601F0A3FBD7F83C391233CD
:101A70001A46644915F07AFD5AE007F64813A3F6B2
:101A800048131B685868B7F8423907F59A72DB00AB
:101A90001344194601F066FB03465B491846FEF7FE
:101AA0001FFC0346002B16D107F64813A3F6481374
:101AB0001B685868B7F8423907F59A72DB0013447F
:101AC000194601F075FBD7F83C3901331A464F49E6
:101AD00015F04CFD2CE007F64813A3F648131B68DD
:101AE0005868B7F8423907F59A72DB001344194673
:101AF00001F038FB034646491846FEF7F1FB034662
:101B0000002B15D107F64813A3F648131B68586835
:101B1000B7F8423907F59A72DB001344194601F011
:101B200047FBD7F83C3914331A463A4915F01EFDE5
:101B3000B7F842390133A7F8423907F64813A3F63C
:101B40001403B3F80038B7F842299A42FFF467AF9C
:101B5000D7F83C3901221A70D7F83C391B78012B91
:101B600005D143F23902D7F83C395A8219E0D7F847
:101B70003C395B8A002B14D107F64813A3F64413B3
:101B80001B681B681946244815F056FCD7F83C0919
:101B90000AF0FEFED7F838090AF0FAFE6FF00503E6
:101BA00071E007F64813A3F63C031A4600231360BE
:101BB00053609360D36013615361936107F64813D8
:101BC000A3F63C03D7F838291A6007F64813A3F6A2
:101BD0003C0307F64812A2F64412126852685A6093
:101BE000D7F83C391B78002B18D1032217E000BF2F
:101BF000BCBC1108D8BC1108B4BD1108F0BC110858
:101C000018BD110820BD110824BD11082CBD1108F4
:101C100030BD11083CBD110840BD1108022207F675
:101C20004813A3F63C031A72D7F83C395A8A07F6D0
:101C30004813A3F63C039A8107F64813A3F63C0326
:101C4000134A5A6107F64813A3F63C03D7F83C2918
:101C50009A6107F586731846FFF76EFBD7F83C3993
:101C60005A1C07F10C030B49184615F05DFC07F1EF
:101C70000C0107F64813A3F644131B68064A58687C
:101C8000FFF784FD0023184607F64C17BD4690BDAC
:101C9000B517100874BD1108A8BD1108B0B5ADF591
:101CA0000E7D02AF07F50C73A3F50B731860374B6D
:101CB0005B68C7F82C32D7F82C32D9B2D7F82C325F
:101CC0001B0ADCB2D7F82C321B0CDBB2D7F82C2263
:101CD000120E07F58C700192009323460A462C4998
:101CE00015F022FC43F2390307F58C7207F5967064
:101CF000284915F019FC07F5967107F50C73A3F543
:101D00000B70254B254A0068FFF7D0FC07F50C73D4
:101D1000A3F5A673224A1C4615460FCD0FC40FCD5E
:101D20000FC40FCD0FC42B681A46228002341B0C3F
:101D3000237007F50C73A3F5C4731A4A1C461546A5
:101D40000FCD0FC40FCD0FC40FCD0FC495E8070002
:101D500003C4228007F50C73A3F5EC73124A1846EE
:101D600011464D231A4615F0E6FD07F50C73A3F551
:101D70000A730D4A184611464D231A4615F0DBFD2D
:101D80000023184607F50C77BD46B0BDD8F9001002
:101D9000C0BD1108D0BD11088D18100828BE11084B
:101DA00038BE11086CBE1108A8BE110880B584B0F9
:101DB00000AF87ED030AC7ED020A87ED011AC7EDF0
:101DC000001A97ED017AD7ED037A37EE677AD7EDEF
:101DD000016AD7ED037A76EEE77A27EE277AD7ED18
:101DE000006AD7ED027A76EEE76A97ED006AD7EDE2
:101DF000027A76EE677A66EEA77A77EE277A17EEA2
:101E0000900AFEF739FC02460B4643EC102B12F009
:101E1000DBFD53EC102B10461946FEF77DFF034601
:101E200007EE903AB0EE670A1037BD4680BD80B429
:101E300087B000AF87ED050AC7ED040A87ED031AE6
:101E4000C7ED021A87ED012AC7ED002A97ED057A42
:101E5000D7ED037AB4EEE77AF1EE10FA1CDD97EDD8
:101E6000057AD7ED017AB4EEE77AF1EE10FA13D5E0
:101E700097ED047AD7ED027AB4EEE77AF1EE10FA34
:101E80000ADD97ED047AD7ED007AB4EEE77AF1EE49
:101E900010FA01D5012300E0002303F00103DBB2B7
:101EA00018461C37BD465DF8047B7047B0B487B058
:101EB00000AFF86087ED020AC7ED010A87ED001A4E
:101EC000FB68BA689A62FB687A68DA62FB683A680B
:101ED0001A63FB684FF000025A63FB684FF0000280
:101EE0009A63FB684FF000025A64FB684FF00002EF
:101EF0009A64FB684FF00002DA64FB684FF000025E
:101F00001A65FA68FB6802F59C7403F128050FCD89
:101F10000FC40FCD0FC495E80F0084E80F00002315
:101F2000FB820DE0FA8AF96813465B001344DB007C
:101F30000B4403F5827300221A70FB8A0133FB8283
:101F4000FB8A022BEED900BF00BF1C37BD46B0BCD8
:101F5000704700002DE9F04F93B008AF7861396108
:101F6000BB601346FB817B6993ED0A7A7B69D3EDF5
:101F70004E7A77EE677A7B69C3ED117A7B6993EDD0
:101F80000B7A7B69D3ED4F7A77EE677A7B69C3ED85
:101F9000127A7B6993ED0C7A7B69D3ED507A77EEF8
:101FA000677A7B69C3ED137A7B6993ED117A7B695C
:101FB000D3ED117A27EE277A7B69D3ED126A7B691C
:101FC000D3ED127A66EEA77A77EE277A17EE900AAB
:101FD000FEF752FB02460B4643EC102B12F0F4FCCA
:101FE00053EC102B10461946FEF796FE02467B690D
:101FF0001A657B699B6C1846FEF73EFB04460D464E
:102000007B695B6C1846FEF737FB02460B4643ECD8
:10201000112B45EC104B12F0D5FC53EC102B104655
:102020001946FEF779FE02467B695A65BB6807EEE2
:10203000903AF8EE677A17EE900AFEF71DFB4FF024
:102040000002B34BFEF79AFC02460B4614461D46AF
:102050007B691B6D1846FEF70FFB02460B462046B8
:102060002946FEF761FB02460B4610461946FEF76D
:1020700053FE02467B695A637B6993ED0D7A7B6957
:10208000D3ED517A77EE677A7B69C3ED0F7ABB683F
:1020900007EE903AF8EE677A17EE900AFEF7ECFA40
:1020A0004FF000029A4BFEF769FC02460B461446BD
:1020B0001D467B69DB6C1846FEF7DEFA02460B46CE
:1020C00020462946FEF730FB02460B4610461946CD
:1020D000FEF722FE02467B699A637B6993ED0E7AD6
:1020E0007B69D3ED527A77EE677A7B69C3ED107A1C
:1020F000884815F0A1F90023FB8483E0FA8C796904
:1021000013465B001344DB000B44F83393ED007A75
:102110007B69D3ED147A37EE277A7B69D3ED0F7A9A
:1021200037EE277A7B69D3ED136A7B69D3ED107A9A
:1021300076EEA77AF0EEE77A27EE277A7B69D3ED81
:10214000147A37EE277A7B69D3ED0F7AFA8C77EE23
:10215000277A796913465B001344DB000B4403F5CF
:102160008073C3ED007AFA8C796913465B001344DF
:10217000DB000B4403F5807393ED007A7B69D3EDAC
:102180003A7AF7EE006A77EEA67AFA8C67EE277A4B
:10219000796913465B001344DB000B4403F580733D
:1021A000C3ED007AFA8C796913465B001344DB00B7
:1021B0000B4403F5807393ED007A7B69D3ED3B7A92
:1021C000FA8C77EE277A796913465B001344DB00BB
:1021D0000B4403F58073C3ED007AFA8C79691346DA
:1021E0005B001344DB000B4403F580731B68184647
:1021F000FEF742FA02460B46474815F01DF9FB8CE4
:102200000133FB84FB8C022B7FF678AF0A2015F09C
:1022100025F97A697B6902F59C7403F128050FCDD5
:102220000FC40FCD0FC495E80F0084E80F007B6941
:102230005B6C1846FEF720FAC7E900017B699B6CCE
:102240001846FEF719FA04460D467B691B6D1846C1
:10225000FEF712FA804689467B695B6D1846FEF7E9
:102260000BFA82468B467B69DB6C1846FEF704FA54
:1022700002460B46CDE90623CDE904ABCDE9028940
:10228000CDE90045D7E90023244815F0D5F87B694E
:102290005B6B1846FEF7F0F904460D467B699B6BB5
:1022A0001846FEF7E9F902460B46CDE9002322461F
:1022B0002B461B4815F0C0F80023BB840DE0BA8CF8
:1022C000796913465B001344DB000B4403F582730A
:1022D00000221A70BB8C0133BB84BB8C022BEED95D
:1022E00000237B840CE07A8C13469B0013449B00F4
:1022F0001A463B69134400221A747B8C01337B8499
:102300007A8CFB899A42EED300233B8452E200BFD1
:1023100000408F4060BF11086CBF110874BF1108E6
:10232000B0BF11083A8C13469B0013449B001A4619
:102330003B6913445B681846FEF79EF904460D4658
:102340003A8C13469B0013449B001A463B69134486
:1023500093ED007A7B69D3ED0C7A37EE277A7B69AF
:10236000D3ED137A37EE277A7B69D3ED107A77EEC7
:10237000277A17EE900AFEF77FF902460B4643ECE8
:10238000102B12F04DFB53EC102B20462946FEF784
:10239000CBF902460B4614461D467B699B6A1846DC
:1023A000FEF76AF902460B4620462946FEF706F874
:1023B00002460B4614461D467B695B6C1846FEF7C9
:1023C0005BF902460B4620462946FDF7F7FF024619
:1023D0000B46104619463A8C13469B0013449B004B
:1023E0001A463B699C18FEF797FC0346A3603A8C9B
:1023F00013469B0013449B001A463B6913445B68D9
:102400001846FEF739F904460D463A8C13469B00F0
:1024100013449B001A463B69134493ED007A7B6991
:10242000D3ED0C7A37EE277A7B69D3ED137A37EE4A
:10243000277A7B69D3ED107A77EE277A17EE900A28
:10244000FEF71AF902460B4643EC102B12F03CFB48
:1024500053EC102B20462946FEF766F902460B4640
:1024600014461D467B69DB6A1846FEF705F90246ED
:102470000B4620462946FDF7A1FF02460B461446AF
:102480001D467B699B6C1846FEF7F6F802460B4624
:1024900020462946FDF792FF02460B461046194694
:1024A0003A8C13469B0013449B001A463B699C18C8
:1024B000FEF732FC0346E3600023FB83FAE0FB8B6C
:1024C0007A69DB001344D3ED007AFB8B7A69DB0079
:1024D0001344043393ED007A3A8C13469B00134463
:1024E0009B001A463B691344D3ED026A3A8C1346AB
:1024F0009B0013449B001A463B69134493ED036A07
:10250000F0EE461AB0EE661AF0EE470AB0EE670A31
:10251000FFF74CFCB0EE407AFA8B796913465B000A
:102520001344DB000B4403F58073D3ED007AB4EE63
:10253000E77AF1EE10FA00F2BA80FE8BFB8B7A6933
:10254000DB001344D3ED007AFB8B7A69DB00134484
:10255000043393ED007A3A8C13469B0013449B009E
:102560001A463B691344D3ED026A3A8C13469B002A
:1025700013449B001A463B69134493ED036AF0EE43
:10258000461AB0EE661AF0EE470AB0EE670AFFF799
:102590000DFC10EE103A1846FEF76EF804460D4694
:1025A000FA8B796913465B001344DB000B4403F597
:1025B00080731B681846FEF75FF802460B46CDE9AC
:1025C000002322462B463146804814F035FFFC8B11
:1025D000FB8B7A69DB001344D3ED007AFB8B7A69BD
:1025E000DB001344043393ED007A3A8C13469B00CE
:1025F00013449B001A463B691344D3ED026A3A8C9C
:1026000013469B0013449B001A463B69134493ED09
:10261000036AF0EE461AB0EE661AF0EE470AB0EE24
:10262000670AFFF7C3FB10EE103A1846FEF724F8CE
:1026300002460B462146664814F0FEFE3A8C1346CD
:102640009B0013449B001A463B691344FA8B59685C
:10265000786913465B001344DB000344F8331960C8
:102660003A8C13469B0013449B001A463B69134463
:10267000FA8B1968786913465B001344DB00034446
:10268000FC331960FA8B796913465B001344DB0055
:102690000B4403F5827301221A703A8C13469B0097
:1026A00013449B001A463B69134402221A74FB8BA5
:1026B0000133FB83FB8B022B7FF601AF0023BB832F
:1026C00000237B836FE07A8B13469B0013449B00AF
:1026D0001A463B6913441B7C002B61D17A8B13464D
:1026E0009B0013449B001A463B691344D3ED027AC6
:1026F0007A8B13469B0013449B001A463B69134494
:1027000093ED037A7B69D3ED066A7B6993ED076AE3
:102710007B69D3ED085A7B6993ED095AF0EE452A9F
:10272000B0EE652AF0EE461AB0EE661AF0EE470AF1
:10273000B0EE670AFFF77BFB0346002B30D07A8BA5
:1027400013469B0013449B001A463B691344012225
:102750001A747A8B13469B0013449B001A463B69FC
:102760001344BA8B9968786913465B0013441B01C4
:102770000344583319607A8B13469B0013449B0023
:102780001A463B691344BA8BD968786913465B00D3
:1027900013441B0103445C331960BB8B0133BB83BF
:1027A0007B8B01337B837A8BFB899A428BD33B8C67
:1027B00001333B843A8CFB899A42FFF4B3AD00BFEE
:1027C00000BF2C37BD46BDE8F08F00BFC8BF110861
:1027D000F0BF11080000000080B58EB000AF786136
:1027E00087ED040AC7ED030A87ED021A79607B6959
:1027F000083393ED007A7B69D3ED007A77EE677A40
:1028000077EEA77AC7ED0D7A7B69083393ED017AED
:102810007B69D3ED017A77EE677A77EEA77AC7ED19
:102820000C7AD7ED047A27EEA77AD7ED037A67EE14
:10283000A77A37EE677A7B69D3ED006A7B69D3EDBF
:10284000007A66EEA77A37EE677A7B69D3ED016A84
:102850007B69D3ED017A66EEA77A37EE677A7B69FA
:102860000833D3ED006A7B690833D3ED007A66EE56
:10287000A77A37EE277A7B690833D3ED016A7B6943
:102880000833D3ED017A66EEA77A77EE277AC7EDA3
:102890000B7A7B69103393ED007A7B69D3ED007A74
:1028A00077EE677A77EEA77AC7ED0A7A7B691033FD
:1028B00093ED017A7B69D3ED017A77EE677A77EE53
:1028C000A77AC7ED097AD7ED047A27EEA77AD7ED74
:1028D000027A67EEA77A37EE677A7B69D3ED006AF2
:1028E0007B69D3ED007A66EEA77A37EE677A7B696B
:1028F000D3ED016A7B69D3ED017A66EEA77A37EEF4
:10290000677A7B691033D3ED006A7B691033D3EDAE
:10291000007A66EEA77A37EE277A7B691033D3ED1B
:10292000016A7B691033D3ED017A66EEA77A77EE00
:10293000277AC7ED087A97ED0D7AD7ED097A27EE59
:10294000277AD7ED0C6AD7ED0A7A66EEA77A77EE8A
:10295000677AC7ED077AD7ED077AF0EEE77A17EED8
:10296000900AFDF789FE1DA3D3E90023FEF74EF977
:102970000346002B03D0184814F0CEFD29E097ED54
:102980000B7AD7ED097A27EE277AD7ED0C6AD7EDC7
:10299000087A66EEA77A77EE676A97ED077AC6EE51
:1029A000877A7B68C3ED007A97ED0D7AD7ED087AC8
:1029B00027EE277AD7ED0B6AD7ED0A7A66EEA77A6B
:1029C00077EE676A97ED077AC6EE877A7B68C3ED84
:1029D000017A3837BD4680BD00C011088DEDB5A025
:1029E000F7C6B03E0000000080B52DED028B92B01E
:1029F00000AF78600B467B8013463B807B887A680B
:102A0000DB0013441B687B647B887A68DB0013441B
:102A100004331B683B643B887A68DB0013441B6803
:102A2000FB633B887A68DB00134404331B68BB6399
:102A30007A88796813465B001344DB000B44F83353
:102A40001B687B633A88796813465B001344DB009C
:102A50000B44F8331B683B6397ED0F7AD7ED117A7F
:102A600037EE677AD7ED0F6AD7ED117A76EEE77A0F
:102A700027EE277AD7ED0E6AD7ED107A76EEE76A61
:102A800097ED0E6AD7ED107A76EE677A66EEA77A42
:102A900077EE277A17EE900AFDF7EEFD02460B4619
:102AA00043EC102B11F090FF53EC102B10461946FD
:102AB000FEF732F90346FB6297ED0D7AD7ED0C7AFB
:102AC00077EE277A97ED0B7AB4EEE77AF1EE10FA0B
:102AD0000EDC97ED0D7AD7ED0C7A77EE677AF0EE93
:102AE000E77A97ED0B7AB4EEE77AF1EE10FA03D5B8
:102AF000834814F011FDF8E0D7ED0D7A27EEA77AA0
:102B0000D7ED0C7A67EEA77A37EE677AD7ED0B7AB6
:102B100067EEA77A77EE276AD7ED0B7A37EEA77ABA
:102B2000C6EE877AC7ED0A7AD7ED0D7A27EEA77A37
:102B3000D7ED0A7A67EEA77A77EE677A17EE900AF2
:102B4000FDF79AFD02460B4643EC102B11F03CFFBB
:102B500053EC102B10461946FEF7DEF803467B6255
:102B600097ED0F7AD7ED117A37EE677AD7ED0A7ABB
:102B700067EE276A97ED0B7AC6EE877A97ED117AA2
:102B800077EE277AC7ED087A97ED0E7AD7ED107AAF
:102B900037EE677AD7ED0A7A67EE276A97ED0B7AF8
:102BA000C6EE877A97ED107A77EE277AC7ED077A27
:102BB00097ED0E7AD7ED107A37EE677AD7ED097A6E
:102BC00067EE276A97ED0B7AC6EE877A97ED087A5B
:102BD00077EE277AC7ED067A97ED0F7AD7ED117A5F
:102BE00037EE677AD7ED097A67EE276A97ED0B7AA9
:102BF000C6EE877A97ED077A77EE677AC7ED057AA2
:102C000097ED0E7AD7ED107A37EE677AD7ED097A1D
:102C100067EE276A97ED0B7AC6EE877A97ED087A0A
:102C200077EE677AC7ED047A97ED0F7AD7ED117AD0
:102C300037EE677AD7ED097A67EE276A97ED0B7A58
:102C4000C6EE877A97ED077A77EE277AC7ED037A93
:102C5000D7ED097AF0EEE77A17EE900AFDF70CFD52
:102C600025A3D3E90023FDF7D1FF0346002B06D0AF
:102C70007B68BA699A627B687A69DA6235E07B6858
:102C8000D3ED0A7A7B6893ED0B7AF0EE471AB0EE3B
:102C9000671AD7ED050A97ED060AFFF787F8B0EE39
:102CA000408A7B68D3ED0A7A7B6893ED0B7AF0EE6D
:102CB000471AB0EE671AD7ED030A97ED040AFFF73B
:102CC00075F8F0EE407AB4EEE78AF1EE10FA06D528
:102CD0007B68BA699A627B687A69DA6205E07B6828
:102CE0003A699A627B68FA68DA624837BD46BDEC99
:102CF000028B80BDAFF300808DEDB5A0F7C6B03E6E
:102D000014C01108000000002DE9B0438AB004AFE0
:102D1000F860B9607A60BB6893ED017AFB68D3ED27
:102D2000017A77EE676ABB6893ED007AFB68D3EDB2
:102D3000007A77EE677AF0EE670AB0EE660A11F075
:102D400017FF87ED050A7B68D3ED037A97ED057AC7
:102D500077EE677AFB68C3ED027A12E0FB689B6846
:102D60001846FDF789FC2FA3D3E90023FDF726FBC6
:102D700002460B4610461946FDF7CEFF0246FB6899
:102D80009A60FB689B681846FDF776FC27A3D3E999
:102D90000023FDF73BFF0346002BDFD112E0FB6869
:102DA0009B681846FDF768FC1EA3D3E90023FDF7D6
:102DB00003FB02460B4610461946FDF7ADFF0246DF
:102DC000FB689A60FB689B681846FDF755FC17A3E3
:102DD000D3E90023FDF72EFF0346002BDFD1FB686C
:102DE0009B681846FDF748FC804689467869FDF7E0
:102DF00043FC04460D467B68DB681846FDF73CFC47
:102E000002460B46CDE90223CDE9004542464B463A
:102E1000034814F011FB00BF1837BD46BDE8B0836E
:102E200034C01108182D4454FB211940182D445466
:102E3000FB21094080B586B000AF78600023FB829B
:102E40000023BB8211E0BA8A796813465B00134401
:102E5000DB000B4403F582731B78002B02D0FB8A46
:102E60000133FB82BB8A0133BB82BB8A022BEAD9C6
:102E7000FB8A032B0BD0032B06DC012B02DC002B7F
:102E800062DA01E0022B22D0334814F045FB7A6865
:102E90007B68D3ED3E7A7B6893ED447A7B68D3ED13
:102EA0004A6A7B6828331946B0EE661AF0EE470A84
:102EB000B0EE670A1046FFF78FFC7B6803F128002D
:102EC00079687B68F0331A46FFF71EFF40E04FF643
:102ED000FF737B824FF6FF733B820023FB8118E078
:102EE000FA89796813465B001344DB000B4403F551
:102EF00082731B78002B09D07B8A4FF6FF729342B6
:102F000002D1FB897B8201E0FB893B82FB89013393
:102F1000FB81FB89022BE3D93A8A7B8A19467868C0
:102F2000FFF762FD7B6803F128007B8ADB007A688B
:102F3000D1187A8A13465B001344DB00F0337A68B9
:102F400013441A46FFF7E0FE044814F0E5FA00BF08
:102F500000BF1837BD4680BD5CC0110888C011088D
:102F600080B487B000AFF860B9601346FB801DE005
:102F70000023FB8211E0FB681B881A46BB681344E0
:102F80001A78FB8A0F49CB5C9A4203D1FB8A0D4A1F
:102F9000D35C11E0FB8A0133FB82FB8A052BEAD963
:102FA000FB681B8801339AB2FB681A80FB681B8898
:102FB000FA889A42DCD8002318461C37BD465DF8D3
:102FC000047B70470000001080B586B000AFF86049
:102FD000B9601346FB800023BB82FB680022A3F884
:102FE00000280023FB75FA8807F11403B968184616
:102FF000FFF7B6FF03467B2B00F0AA800023ADE06D
:10300000BB8A01339BB2BB82FA8807F11403B9680B
:103010001846FFF7A5FF03467D2B00F08C807D2B23
:1030200000F393807B2B00F084807B2B00F38D805A
:103030003A2B6AD03A2B00F38880222B02D02C2B1B
:1030400045D082E0FB7D032B3BD801A252F823F050
:1030500061301008753010088F301008A930100842
:10306000BB8AFA68B2F80028013399B2FB6823F8EA
:10307000321028E0BB8AFA68B2F800281046013BFB
:1030800099B2FA68C30013440A465A801BE0BB8A0F
:10309000FA68B2F800281046013399B2FA68C30002
:1030A00013440A469A800EE0BB8AFA68B2F80028F8
:1030B0001046013B99B2FA68C30013440A46DA800D
:1030C00001E001234AE0FB7D0133FB7540E0BB8A50
:1030D000013BBA6813441B78222B0BD0BB8AFA68D9
:1030E000B2F800281046013B99B2FA68C3001344B5
:1030F0000A46DA80FB68B3F8003801339AB2FB68FD
:10310000A3F800280023FB7522E0BB8A0133BA68CC
:1031100013441B78222B1AD0BB8AFA68B2F8002815
:103120001046013399B2FA68C30013440A469A80E4
:103130000DE0012312E0FB68B3F8003801339AB2C6
:10314000FB68A3F80028022308E0012306E000BF83
:10315000BB8AFA889A423FF653AF012318461837C4
:10316000BD4680BD80B582B000AF786039603B68F5
:103170001B881A467B6899183B685B881A463B682F
:103180001B88D31A01331A46084814F0D4FB3B6855
:103190005B881A463B681B88D31A0133034A002117
:1031A000D154024B18460837BD4680BDB83C0010CC
:1031B00080B582B000AF786039603B689B881A4662
:1031C0007B6899183B68DB881A463B689B88D31A52
:1031D00001331A46084814F0AEFB3B68DB881A46F8
:1031E0003B689B88D31A0133034A0021D154024B18
:1031F00018460837BD4680BD383D0010000000006D
:10320000B0B58CB000AFF8607B600B467B81134695
:103210003B810023FB850023BB850023BB62002389
:103220007B6200237B840023FB610023BB6114E0ED
:103230003A89BB69D31A1A4613465B0013445B00F4
:103240001A46FB6813449B889BB2B3F57A7F01D979
:10325000BB69FB61BB690133BB61FB690933BA69B7
:103260009A42E5DDFB697B6104E13A897B6993FB66
:10327000F2F101FB02F29B1A1A4613465B0013445B
:103280005B001A46FB6813449B889BB2B3F57A7FB8
:103290001BD97B69FB853A897B6993FBF2F101FBC2
:1032A00002F29B1A1A4613465B0013445B001A464F
:1032B000FB6813441B68BA6A1344BB627B697A6A71
:1032C00013447B62BB8D0133BB85FB8D7A69D31AB6
:1032D0000A2B40F3CC80BB8D002B00F0C880BB6A6A
:1032E00007EE903AF8EE676ABB8D07EE903AB8EEBB
:1032F000677AC6EE877A7A8C13469B0013449B004C
:103300001A467B6813449FED687A77EE877AC3ED9F
:10331000017A7B6A07EE903AF8EE676ABB8D07EE9A
:10332000903AB8EE677AC6EE877AC7ED047A3869C4
:10333000FDF7A2F956A3D3E90023FDF7F5F90246FC
:103340000B4614461D463B8907EE903AF8EE677A25
:1033500017EE900AFDF790F902460B4620462946E3
:10336000FDF70CFB02460B46104619467A8C1346B5
:103370009B0013449B001A467B689C18FDF7CCFC0D
:103380000346236020E07A8C13469B0013449B0085
:103390001A467B6813441B681846FDF76DF93CA379
:1033A000D3E90023FDF708F802460B4610461946FC
:1033B0007A8C13469B0013449B001A467B689C182A
:1033C000FDF7AAFC034623607A8C13469B00134446
:1033D0009B001A467B6813441B681846FDF74CF99E
:1033E0002DA3D3E90023FDF72FFC0346002BCAD100
:1033F00020E07A8C13469B0013449B001A467B689E
:1034000013441B681846FDF737F921A3D3E90023BD
:10341000FCF7D4FF02460B46104619467A8C134639
:103420009B0013449B001A467B689C18FDF774FCB4
:10343000034623607A8C13469B0013449B001A4674
:103440007B6813441B681846FDF716F914A3D3E9EB
:103450000023FDF7E5FB0346002BCAD17B8C01332B
:103460007B840023BB6200237B620023BB857B69D6
:1034700001337B617A89FB69134409337A699A4283
:103480007FF7F3AE7B8C18463037BD46B0BD00BF2A
:10349000182D4454FB211940182D4454FB21094098
:1034A000182D4454FB2109C00000204280B582B091
:1034B00002AF042300930123A822C0210F48FDF787
:1034C000A3FF0E48FDF7F8FF0C4B1868FEF7E6FB6C
:1034D0000B4BD3ED007A0A4B93ED017A084BD3EDF9
:1034E000026AB0EE661AF0EE470AB0EE670A0548C7
:1034F000FEF7DCFC00BFBD4680BD00BFB83D00103C
:1035000070010010080000102DE9B04F2DED068B62
:1035100092B00AAFFDF7C4FF1B4B1B78002B00F0E5
:10352000518201F025FC7861184B1B881C46184B12
:103530001B881D46174B1B687A69D31A07EE903A11
:10354000F8EE677A17EE900AFDF796F802460B46FA
:103550004FF000001049FDF711FA02460B46CDE985
:1035600000232A4621460D4813F066FF074B1988B1
:10357000074B1A880A4B0B48FFF742FE03467B8233
:103580000023FB83FDE000BF7404001072040010F0
:10359000700400103CF9001000408F402CC111084D
:1035A000BC3D001078040010FA8BB54913469B000F
:1035B00013449B000B4404331B681846FDF75CF86A
:1035C00082468B46FA8BAE4913469B0013449B0000
:1035D0000B441B681846FDF74FF880468946FA8B66
:1035E000A74913469B0013449B000B4404331B68FC
:1035F0001846FDF741F804460D46FA8BA0491346DC
:103600009B0013449B000B441B681846FDF734F8DD
:1036100002460B4643EC102B11F002FA53EC102B30
:1036200020462946FDF780F802460B4643EC192B4D
:10363000FA8B934913469B0013449B000B440433BD
:103640001B681846FDF718F804460D46FA8B8C499E
:1036500013469B0013449B000B441B681846FDF760
:103660000BF802460B4643EC102B11F02DFA53ECED
:10367000102B20462946FDF757F802460B4643EC2F
:103680001A2BFA8B7E4913469B0013449B000B4474
:1036900004331B681846FCF7EFFF04460D46FA8B0F
:1036A000774913469B0013449B000B441B68184644
:1036B000FCF7E2FF02460B4643EC102B11F0B0F989
:1036C00053EC102B20462946FDF72EF802460B46F8
:1036D00014461D466B4B9B6A1846FCF7CDFF02460D
:1036E0000B4620462946FCF769FE02460B4643EC92
:1036F000182BFA8B624913469B0013449B000B4422
:1037000004331B681846FCF7B7FF04460D46FA8BD6
:103710005B4913469B0013449B000B441B681846EF
:10372000FCF7AAFF02460B4643EC102B11F0CCF934
:1037300053EC102B20462946FCF7F6FF02460B46B9
:1037400014461D464F4BDB6A1846FCF795FF0246B0
:103750000B4620462946FCF731FE02460B46CDE9D2
:1037600008238DED068B8DED04AB8DED029BCDE92D
:10377000008952465B46444813F05EFEFB8B0133E2
:10378000FB83FA8B7B8A9A42FFF40EAF7B8A194641
:103790003E4813F051FE3E4B1B687A69D31A7A8A71
:1037A00037493848FEF7D6FB3648FFF743FB354B21
:1037B0009B6A1846FCF760FFC7E90201314BDB6AE0
:1037C0001846FCF759FF04460D462E4B1B6B184656
:1037D000FCF752FF804689462A4B5B6B1846FCF784
:1037E0004BFF82468B46274B9B6B1846FCF744FFEA
:1037F000C7E90001234BDB6C1846FCF73DFF02468E
:103800000B46CDE9082397ED007B8DED067BCDE9D6
:1038100004ABCDE90289CDE90045D7E902231D4873
:1038200013F00AFE1C4813F007FE164B9B6918465E
:10383000FCF722FF82468B46124BDB691846FCF7E9
:103840001BFF04460D460F4B1B6A1846FCF714FF7E
:10385000804689460B4B5B6A1846FCF70DFF024613
:103860000B46CDE90423CDE90289CDE90045524656
:103870005B460A4813F0E0FD0023BB8336E000BF3F
:10388000BC3D0010080000104CC1110890C1110887
:103890003CF90010A0C11108E4C11108ECC11108E5
:1038A000BA8B4C4913469B0013449B000B440833CE
:1038B0001B681846FCF7E0FE04460D46BA8B4549E6
:1038C00013469B0013449B000B440C331B681846A3
:1038D000FCF7D2FE02460B46CDE9002322462B46DA
:1038E0003D4813F0A9FDBB8B0133BB83BA8B7B8AA8
:1038F0009A42D5D3394B9B6A1846FCF7BDFE044665
:103900000D46364BDB6A1846FCF7B6FE02460B4600
:10391000CDE9002322462B462F4813F08DFD304879
:1039200013F0FAFD2D4B1B6B1846FCF7A5FE024663
:103930000B462C4813F080FD284B5B6B1846FCF7B8
:103940009BFE02460B46284813F076FD234B9B6BEB
:103950001846FCF791FE02460B46244813F06CFD16
:1039600000237B8322E07A8B1C4913465B001344BF
:10397000DB000B4403F582731B78002B13D07C8B88
:103980007A8B164913465B001344DB000B4403F5A6
:1039900080731B681846FCF76FFE02460B462146F3
:1039A000134813F049FD7B8B01337B837B8B022B08
:1039B000D9D9104B00221A700F4B00221A800F4ADF
:1039C0007B69136000BF2037BD46BDEC068BBDE8A8
:1039D000B08F00BFBC3D001000C2110808000010ED
:1039E0000CC2110814C2110820C2110830C21108FB
:1039F00040C2110874040010720400103CF9001059
:103A000080B582B000AF0346FB71F91D4FF0FF3364
:103A10000122044805F082F9FB7918460837BD46B3
:103A200080BD00BF40F9001080B582B000AF0346F2
:103A3000FB71F91D4FF0FF330122044805F06EF9C8
:103A4000034618460837BD4680BD00BF40F9001048
:103A500080B582B000AF254BD3F8E030234A43F065
:103A60000073C2F8E030214BD3F8E03003F000736C
:103A70007B607B68012003F023F803F0ADF801229E
:103A80000221002003F02EF8194B1B6803F0F0030D
:103A9000702B08D1174BD3F80431164A43F00103B9
:103AA000C2F8043107E0134BD3F81431114A43F044
:103AB0000103C2F8143101F0B3F84FF4FA6001F0D9
:103AC00063F900F069F800F081F800F03BFA00F0CB
:103AD00017F8094813F020FDFFF7E8FC074813F03A
:103AE0001BFDFFF711FD00BFFBE700BF00440258BC
:103AF00000ED00E00064025850C2110864C21108D1
:103B000080B500AF224B234A1A60214B4FF461224B
:103B10005A601F4B00229A601D4B0022DA601C4B3A
:103B200000221A611A4B0C225A61194B00229A6129
:103B3000174B0022DA61164B00221A62144B002246
:103B40005A62134B00229A62114805F097F8034617
:103B5000002B01D000F072F800210D4806F026F984
:103B60000346002B01D000F069F80021084806F058
:103B70005BF90346002B01D000F060F8044806F022
:103B8000DCF80346002B01D000F058F800BF80BDE0
:103B900040F900100010014080B483B000AF0A4B20
:103BA000D3F8D430084A43F00103C2F8D430064BAE
:103BB000D3F8D43003F001037B607B6800BF0C377F
:103BC000BD465DF8047B70470044025880B485B060
:103BD00000AF194BD3F8E030174A43F04003C2F866
:103BE000E030154BD3F8E03003F04003FB60FB6896
:103BF000114BD3F8E030104A43F00103C2F8E03033
:103C00000D4BD3F8E03003F00103BB60BB680A4BF7
:103C1000D3F8E030084A43F00403C2F8E030064B22
:103C2000D3F8E03003F004037B607B6800BF1437F7
:103C3000BD465DF8047B70470044025880B400AF75
:103C400072B600BF00BFFDE780B483B000AF0A4B7F
:103C5000D3F8F430084A43F00203C2F8F430064BBC
:103C6000D3F8F43003F002037B607B6800BF0C37AD
:103C7000BD465DF8047B70470044025880B5BCB077
:103C800000AF786007F1DC0300221A605A609A6086
:103C9000DA601A6107F11003C8220021184613F0F8
:103CA00095FD7B681B68274A934246D14FF001027D
:103CB0004FF00003C7E904230023C7F8903007F151
:103CC0001003184603F06EF90346002B01D0FFF7EE
:103CD000B5FF1D4BD3F8F0301B4A43F01003C2F878
:103CE000F030194BD3F8F03003F01003FB60FB68A1
:103CF000154BD3F8E030144A43F00103C2F8E0302A
:103D0000114BD3F8E03003F00103BB60BB684FF404
:103D1000C063C7F8DC300223C7F8E0300023C7F8DF
:103D2000E4300023C7F8E8300723C7F8EC3007F188
:103D3000DC031946054802F013FD00BFF037BD460D
:103D400080BD00BF0010014000440258000002582E
:103D500080B400AF00BFFDE780B400AF00BFFDE757
:103D600080B400AF00BFFDE780B400AF00BFFDE747
:103D700080B400AF00BFFDE780B400AF00BFBD4618
:103D80005DF8047B704780B400AF00BFBD465DF8AE
:103D9000047B704780B400AF00BFBD465DF8047B74
:103DA000704780B500AF00F0CFFF00BF80BD80B48A
:103DB00000AF01231846BD465DF8047B7047000044
:103DC00080B483B000AF78603960054B16221A606A
:103DD0004FF0FF3318460C37BD465DF8047B704743
:103DE0009478011080B582B000AF78604FF0FF3159
:103DF0007868FFF7E5FF00BFFDE780B586B000AF4C
:103E0000F860B9607A6000237B610AE0FFF70CFE7E
:103E10000146BB685A1CBA60CAB21A707B6901338A
:103E20007B617A697B689A42F0DB7B6818461837B9
:103E3000BD4680BD80B586B000AFF860B9607A60DD
:103E400000237B6109E0BB685A1CBA601B781846E6
:103E5000FFF7D6FD7B6901337B617A697B689A4203
:103E6000F1DB7B6818461837BD4680BD80B483B04F
:103E700000AF78604FF0FF3318460C37BD465DF851
:103E8000047B704780B483B000AF786039603B68D2
:103E90004FF400525A60002318460C37BD465DF8B7
:103EA000047B704780B483B000AF7860012318466C
:103EB0000C37BD465DF8047B704780B485B000AF19
:103EC000F860B9607A60002318461437BD465DF883
:103ED000047B704780B487B000AF7860144A154BFC
:103EE000D31A7B617B693B61134B1B68002B02D1AA
:103EF000114B124A1A60104B1A687B6813443A69D6
:103F00009A4205D20E4B0C221A604FF0FF3309E0A3
:103F1000094B1B68FB60084B1A687B681344064A10
:103F20001360FB6818461C37BD465DF8047B70477C
:103F30000080041000100000D4F90010A8780110CF
:103F40009478011080B584B004AF874BC0221A70FA
:103F5000854BA8225A70844B01229A70824B0A2208
:103F6000DA70824BFF221A70804BFF225A707F4B0F
:103F7000FF229A707D4B0022DA707D4B00221A706E
:103F80007B4B00225A707A4B00229A70784B0022A9
:103F9000DA7007F097FA744B1B781A06724B5B784D
:103FA0001B041A43704B9B781B0213436E4AD27852
:103FB00013431A066C4B1B7819066B4B5B781B047A
:103FC0001943694B9B781B020B436749C9780B4324
:103FD0001B0203F47F031A43634B1B781906624BE1
:103FE0005B781B041943604B9B781B020B435E49B3
:103FF000C9780B431B0A03F47F431A435A4B1B78BF
:104000001906594B5B781B041943574B9B781B02CD
:104010000B435549C9780B431B0E1343554A136094
:10402000524B1B781A06514B5B781B041A434F4BBB
:104030009B781B0213434D4AD27813431A064B4B0D
:104040001B781906494B5B781B041943474B9B7837
:104050001B020B434549C9780B431B0203F47F0342
:104060001A43424B1B781906404B5B781B041943DB
:104070003E4B9B781B020B433C49C9780B431B0A00
:1040800003F47F431A43394B1B781906374B5B788F
:104090001B041943354B9B781B020B433349C978EA
:1040A0000B431B0E1343344A1360314B1B781A0623
:1040B0002F4B5B781B041A432D4B9B781B02134339
:1040C0002B4AD27813431A06294B1B781906284B22
:1040D0005B781B041943264B9B781B020B43244936
:1040E000C9780B431B0203F47F031A43204B1B7850
:1040F00019061F4B5B781B0419431D4B9B781B0251
:104100000B431B49C9780B431B0A03F47F431A4333
:10411000174B1B781906164B5B781B041943144B7D
:104120009B781B020B431249C9780B431B0E1343A8
:10413000124A1360124B0293124B01930023009317
:104140000E4B0D4A0B49104808F0BAFF0E4809F013
:1041500069F90D4809F076F90C490B4809F074FA31
:1041600000BFBD4680BD00BF18FA00101CFA001049
:1041700020FA00100CFA001010FA001014FA0010C7
:1041800039AE100849441008D8F9001091411008C0
:1041900080B483B000AF786000BF0C37BD465DF8D7
:1041A000047B704780B584B000AF78600023FB7358
:1041B0003F4B404A1A6000233B7280237B72E1230D
:1041C000BB720023FB7200233B7300237B73384ACE
:1041D00007F108035360364B01221A72344B364AFA
:1041E000DA60334B354A1A61314B4FF4C0625A6181
:1041F0002F4800F0F7FE0346FB73382200213048B9
:1042000013F0E4FA2E4B21221A602D4B4FF440326A
:104210005A612B4B00221A612A4808F019FE7B686C
:10422000062283F82C20224B5B681A787B6883F87F
:1042300026201F4B5B685A787B6883F827201C4B2D
:104240005B689A787B6883F82820194B5B68DA787A
:104250007B6883F82920164B5B681A797B6883F8A2
:104260002A20134B5B685A797B6883F82B207B6884
:1042700040F2DC529A847B6893F82D3043F00A03B5
:10428000DAB27B6883F82D200F49104800F04BFB11
:104290000E4800F07AFBFB7B002B03D1786800F01E
:1042A0001DFA01E0FFF7CAFC00BF1037BD4680BD14
:1042B000B043011000800240F4030010940300108A
:1042C0006044011024EF1108A0010010984401106F
:1042D00080B592B000AF7860396000237B64002322
:1042E0003B64002387F83F3007F10C0330220021A4
:1042F000184613F06BFA07F10C0330220021184620
:1043000013F064FA3B683B6445E07B6C032B02D9F5
:104310006FF00B0355E03B6C59687A6C13465B00F9
:1043200013449B0048333B443C3B19603B6C5B8926
:1043300019467A6C13465B0013449B0048333B4498
:10434000383B19607B6C002B11D07B6C5A1E07F137
:104350000C00796C0B465B000B449B00C1181346A4
:104360005B0013449B0048333B44343B19603B6C77
:104370001B68002B09D17A6C13465B0013449B0029
:1043800048333B44343B00221A607B6C01337B642E
:104390003B6C1B683B643B6C002BB6D13B681B89B4
:1043A0001A460A4B5A60094A07F10C039360074A00
:1043B0003B68536314220549054800F0ABFF97F9A9
:1043C0003F3018464837BD4680BD00BF60440110ED
:1043D000B043011080B584B000AF78600023FB606B
:1043E000074B1B78002B05D107F10C031946054834
:1043F00001F027F8FB6818461037BD4680BD00BFA6
:10440000AC430110B043011080B584B000AF7860B8
:104410000023FB607868FFF7DDFFF860FB68002B86
:104420000AD07B681B697968F86898470346002BB7
:1044300002D0F86809F088FCFB68002BEAD100BFC5
:1044400000BF1037BD4680BD80B582B000AF786038
:104450007B68002B06D10E4B40F27B120D490E48B3
:1044600012F0EAFF7B68732283F82E207B687422A7
:1044700083F82F207B68094A5A617B68084A9A6151
:104480007868FFF78FFE002318460837BD4680BDC9
:1044900078C21108C8C21108D8C2110839A810087A
:1044A000D142100880B584B000AF78607B68FB60B3
:1044B000F968074808F0AEFD064B1B78012B02D1C6
:1044C000044B00221A7000BF1037BD4680BD00BFEC
:1044D00024EF1108AC43011080B500AF00F048FC98
:1044E0000346184680BD000080B58EB000AF7860EE
:1044F00007F1240300221A605A609A60DA601A6198
:104500007B681B68494A934240F08B80484BD3F844
:10451000D830474A43F40043C2F8D830444BD3F86C
:10452000D83003F400433B623B6A414BD3F8D830A8
:104530003F4A43F48033C2F8D8303D4BD3F8D830EB
:1045400003F48033FB61FB69394BD3F8D830384A28
:1045500043F40033C2F8D830354BD3F8D83003F4E5
:104560000033BB61BB69324BD3F8E030304A43F0D3
:104570004003C2F8E0302E4BD3F8E03003F04003A4
:104580007B617B692A4BD3F8E030294A43F004036E
:10459000C2F8E030264BD3F8E03003F004033B616F
:1045A0003B69234BD3F8E030214A43F00103C2F8C2
:1045B000E0301F4BD3F8E03003F00103FB60FB68F1
:1045C0004FF460537B620223BB620023FB62002333
:1045D0003B630B237B6307F124031946154802F064
:1045E000BFF832237B620223BB620023FB620023FD
:1045F0003B630B237B6307F1240319460E4802F04B
:10460000AFF886237B620223BB620023FB62002398
:104610003B630B237B6307F124031946074802F031
:104620009FF800BF3837BD4680BD00BF0080024004
:1046300000440258001802580008025800000258AE
:1046400080B500AF024801F0C1FA0023184680BDD2
:10465000B043011080B400AF00231846BD465DF89A
:10466000047B704780B584B000AFF860B9607A60B1
:104670007B68BA68F968074801F011F80346002B17
:1046800002D04FF0FF3300E0002318461037BD463C
:1046900080BD00BFB043011080B584B000AFF860AA
:1046A000B9607A607B68BA68F968074801F04CF82D
:1046B0000346002B02D04FF0FF3300E000231846E2
:1046C0001037BD4680BD00BFB043011080B500AFBC
:1046D00000F04EFB0346184680BD000080B5A0B038
:1046E00000AF786007F10C0364220021184613F034
:1046F0006DF800233B670023FB670023BB670023A3
:104700007B673A4800F0E9F938677B6893F82D3009
:104710009B0803F00103DBB2002B0CD03B6F012B95
:1047200009DC334800F0A6FD786808F0F7FE7868E9
:1047300008F05AFF55E07B6893F82D3003F004032E
:10474000002B4ED13B6F012B4BDD3B6F023B032B0C
:104750002AD801A252F823F0694710087B471008B5
:104760008B4710089B4710084FF400537B674FF4AA
:104770008043BB670123FB6717E000237B674FF48F
:104780008043BB670123FB670FE04FF400537B6757
:104790000023BB670123FB6707E000237B6700233F
:1047A000BB670123FB6700E000BFFB6F002B18D045
:1047B00007F10C0319460E4801F01AF87B6F7B6273
:1047C000BB6F3B6207F10C031946094801F0E4F99D
:1047D000074800F0EDFC786808F034FE786808F0CF
:1047E000CFFE00BF8037BD4680BD00BF984401109A
:1047F000B043011080B586B002AF7860124808F06F
:104800009BFBF860FB68002B14D0FB6803F12002CF
:104810007B681A60FB680D4A1A617B681B684FF45D
:10482000C06201920093FB6841220021002009F040
:10483000D1F805E0064B01221A707B6800221A604D
:1048400000BF1037BD4680BD24EF1108A5441008F5
:10485000AC43011080B489B000AFF860B9607A60F1
:104860007B80FB68BB61BB687B610023FB617B686D
:10487000203BFB61FB6900221A60FB6900221A8160
:10488000FB697A885A81BB691B68002B03D1BB691D
:10489000FA691A6003E07B691B68FA691A607B6930
:1048A000FA691A60BB691B68FB6109E0FB691A8938
:1048B0007B8813449AB2FB691A81FB691B68FB6110
:1048C000FB69002BF2D100BF00BF2437BD465DF865
:1048D000047B7047DFF834D000F086F90C480D49AE
:1048E0000D4A002302E0D458C4500433C4188C424B
:1048F000F9D30A4A0A4C002301E013600432A242B1
:10490000FBD312F0F1FFFFF7A3F87047008004100B
:10491000000000109403001088F7110854040010E0
:10492000A4780110FEE780B483B000AF78603960EE
:104930007B68002B0BD03B68DB68002B07D03B6803
:104940009B68002B03D03B681B69002B02D14FF002
:10495000FF3314E03B681A687B689A603B685A68CA
:104960007B68DA603B68DA687B685A613B689A6802
:104970007B681A613B681A697B689A610023184654
:104980000C37BD465DF8047B704780B586B000AF3C
:1049900078600023FB600023BB6000237B61002361
:1049A0003B617B685B68002B7CD17B689B68002B3C
:1049B00002D07B689B6898477B6820221A6000239E
:1049C0007B611CE07B685B6907F108021221786952
:1049D00098470346002B03DA6FF004033B610BE0BA
:1049E000BB6803F01F037A699A4205D17B687A6934
:1049F0001A6000233B6105E07B6901337B617B69C1
:104A00001F2BDFD97B681B681F2B02D96FF00203B5
:104A10003B613B69002B45D17B681B697A68106854
:104A20004FF40042002198470346002B37DB7B6898
:104A30005B697A68106807F108020021984703460D
:104A4000002B28DB7B689B6998470346FB601CE0D2
:104A50007B689B69984703461A46FB68D31AB3F5EF
:104A6000FA7F0ED87B685B697A68106807F10802E4
:104A7000002198470346002B07DA6FF004033B61DF
:104A800010E06FF001033B610CE0BB6803F40043EE
:104A9000002BDDD106E06FF004033B6102E06FF014
:104AA00003033B613B69002B12D17B689B699847EC
:104AB0000346FB6000BF7B689B69984703461A4624
:104AC000FB68D31AB3F5FA6FF5D97B6801225A60F7
:104AD0003B6918461837BD4680BD80B584B000AF2D
:104AE00078600023FB607B685B697A68106807F177
:104AF0000C02012198470346002B02DA6FF00403F1
:104B00006EE07B685B697A68106807F10C0201212E
:104B100098470346002B02DA6FF0040360E0FB685D
:104B200003F00403002B01D1012359E07B685B698A
:104B30007A68106807F10C02002198470346002BA1
:104B400002DA6FF004034BE0FB6803F48053002BA0
:104B50001BD1FB6803F40053002B06D0FB6803F461
:104B60008073002B01D002233AE0FB6803F400536A
:104B7000002B01D0032333E0FB6803F48073002B88
:104B800001D004232CE005232AE07B685B697A6866
:104B9000106807F10C021F2198470346002B02DA28
:104BA0006FF004031CE0FB6803F48053002B01D179
:104BB000062315E0FB6803F01C03182B01D1022328
:104BC0000EE0FB6803F01C03082B01D1032307E070
:104BD000FB6803F01C03142B01D1042300E0052320
:104BE00018461037BD4680BD80B400AF0B4BD3F8DC
:104BF00088300A4A43F47003C2F88830074B1B69B7
:104C0000064A43F010031361044B4FF001629A60AF
:104C100000BFBD465DF8047B704700BF00ED00E0BB
:104C200080B582B000AF284BD3F8D830264A43F481
:104C30008043C2F8D830244BD3F8D83003F48043F3
:104C40003B603B68214B1B6823F47F2323F4706394
:104C50001E4A43F4014313601C4B1B681B4A43F07C
:104C600001031360032000F079F901F0C3FF02464D
:104C7000154B9B691B0A03F00F031549CB5C03F02E
:104C80001F0322FA03F37B600F4B9B6903F00F03B2
:104C90000F4AD35C03F01F037A6822FA03F30D4A2C
:104CA00013600C4B1B680C4A1360002000F016F8D0
:104CB0000346002B01D0012302E0FEF7C5FF0023CD
:104CC00018460837BD4680BD0044025800440240E3
:104CD00030EF1108B8010010B401001080B582B0A7
:104CE00000AF7860154B1B78002B01D1012321E028
:104CF000134B1A68114B1B7819464FF47A73B3FBA8
:104D0000F1F3B2FBF3F3184600F04DF90346002B24
:104D100001D001230EE07B680F2B0AD800227968AE
:104D20004FF0FF3000F025F9064A7B68136000233E
:104D300000E0012318460837BD4680BDC0010010C1
:104D4000B4010010BC01001080B400AF064B1B780A
:104D50001A46064B1B681344044A136000BFBD4645
:104D60005DF8047B704700BFC0010010B84401101B
:104D700080B400AF034B1B681846BD465DF8047B4A
:104D8000704700BFB844011080B584B000AF7860B0
:104D9000FFF7EEFFB8607B68FB60FB68B3F1FF3F95
:104DA00005D00A4B1B781A46FB681344FB6000BF12
:104DB000FFF7DEFF0246BB68D31AFA689A42F7D8BB
:104DC00000BF00BF1037BD4680BD00BFC00100104E
:104DD00080B483B000AF7860064B5B6823F4600258
:104DE00004497B6813434B6000BF0C37BD465DF838
:104DF000047B70470004005880B485B000AF786031
:104E00007B6803F00703FB600C4BDB68BB60BA6890
:104E10004FF6FF031340BB60FB681A02BB681343E5
:104E200043F0BF6343F40033BB60044ABB68D36004
:104E300000BF1437BD465DF8047B704700ED00E00D
:104E400080B400AF044BDB681B0A03F0070318466D
:104E5000BD465DF8047B704700ED00E080B483B090
:104E600000AF03463960FB80B7F90630002B0ADB40
:104E70003B68DAB20C49B7F906301201D2B20B44E2
:104E800083F800230AE03B68DAB20849FB8803F0A4
:104E90000F03043B1201D2B20B441A7600BF0C3749
:104EA000BD465DF8047B704700E100E000ED00E0E6
:104EB00080B489B000AFF860B9607A60FB6803F035
:104EC0000703FB61FB69C3F10703042B28BF04231D
:104ED000BB61FB690433062B02D9FB69033B00E08D
:104EE00000237B614FF0FF32BB6902FA03F3DA4320
:104EF000BB681A407B699A404FF0FF317B6901FA29
:104F000003F3D9437B680B40134318462437BD464F
:104F10005DF8047B7047000080B582B000AF786018
:104F20007B68013BB3F1807F01D301230FE00A4A84
:104F30007B68013B53600F214FF0FF30FFF78EFF7E
:104F4000054B00229A60044B07221A600023184682
:104F50000837BD4680BD00BF10E000E080B582B0DC
:104F600000AF78607868FFF747FF00BF0837BD469D
:104F700080BD80B586B000AF0346B9607A60FB8122
:104F8000FFF75EFF78617A68B9687869FFF790FF8C
:104F90000246B7F90E3011461846FFF75FFF00BF13
:104FA0001837BD4680BD80B582B000AF78607868A4
:104FB000FFF7B2FF034618460837BD4680BD000024
:104FC00080B400AF064B1B6803F0F003702B01D1D7
:104FD000032300E001231846BD465DF8047B7047BB
:104FE00000ED00E080B584B000AF78607B68002BF6
:104FF00001D10123D1E07B68D3F88430002B06D1A6
:105000007B682322C3F884207868FFF76DFA654B2C
:10501000D3F8F430634A43F00203C2F8F430614B32
:10502000D3F8F43003F00203BB60BB687B681B7AE3
:10503000002B03D10020FFF7CBFE03E04FF400006C
:10504000FFF7C6FE584B5B687B681B6803F580530F
:105050001B687A68126843F0010302F580521360FE
:10506000FFF786FEF86011E0FFF782FE0246FB685C
:10507000D31AB3F5FA7F09D97B680422C3F88820D4
:105080007B68E022C3F88420012386E07B681B68EC
:1050900003F580531B6803F00103002BE4D178680B
:1050A00000F094FD01F020FF0346404AA2FB0323D9
:1050B0009A0C7B681B68013AC3F8DC20786800F022
:1050C0007FFF7B681B6803F58053D3F8003123F41E
:1050D000E0137A68126843F4002302F58052C2F8A4
:1050E00000317B685B6903F00303002B09D07B6808
:1050F0000122C3F888207B68E022C3F884200123C2
:105100004BE07B681B6803F58053D3F8083123F428
:10511000FF4323F07E037A68526951007A6812686F
:105120000B4302F58052C2F80831786800F0E5FFC1
:10513000786801F02BF87B685B6805331B781A02EE
:105140007B685B6804331B7819467B681B680A43DD
:10515000C3F800237B685B6803331B781A067B68FF
:105160005B6802331B781B041A437B685B6801335E
:105170001B781B021A437B685B681B7819467B68A7
:105180001B680A43C3F804237B680022C3F8882005
:105190007B681022C3F88420002318461037BD46D0
:1051A00080BD00BF004402580004005883DE1B434A
:1051B00080B582B000AF78607B68D3F88430102B64
:1051C00053D17B682322C3F884207B680422DA66EB
:1051D000786800F0F6F97B681B681A687B681B68C2
:1051E00042F002021A607B681B681A687B681B68C1
:1051F00042F001021A607B681B68D3F8002D7B68BF
:105200001B6842F00102C3F8002D7B681B6803F5A0
:105210008053D3F804317A68126843F0010302F531
:105220008052C2F804317B681B6803F58053D3F8C1
:1052300008317A68126843F0010302F58052C2F81F
:1052400008317B681B6803F58053D3F860317A68B6
:10525000126843F4817302F58052C2F860317B68B2
:105260002322C3F88420002300E0012318460837D6
:10527000BD4680BD80B483B000AF78607B68D3F852
:105280008430232B3FD17B682322C3F884207B68A2
:105290001B6803F58053D3F804317A68126823F051
:1052A000010302F58052C2F804317B681B6803F5E4
:1052B0008053D3F808317A68126823F0010302F5AD
:1052C0008052C2F808317B681B681A687B681B68CB
:1052D00022F001021A607B681B68D3F8002D7B68FE
:1052E0001B6842F00102C3F8002D7B681B681A6836
:1052F0007B681B6822F002021A607B681022C3F8E8
:105300008420002300E0012318460C37BD465DF8D9
:10531000047B704780B586B000AFF860B9607A60F2
:10532000BB68002B09D1FB68D3F8883043F0010239
:10533000FB68C3F8882001237FE0FB68D3F8843042
:10534000232B79D10022B968F86800F07CFF03466E
:10535000002B09D0FB68D3F8883043F00202FB68C9
:10536000C3F88820012368E0BFF34F8F00BFFB68BC
:105370009A6AFB68063253F822307B61FB689B6AAD
:105380005A1CFB689A62FB689B6A032B04D9FB6872
:105390009B6A1A1FFB689A62FB68996AFB681A6825
:1053A000FB68063153F8213002F58052C2F82031F3
:1053B000FFF7DEFC386139E0FB681B6803F58053BA
:1053C000D3F8603103F48053002B12D0FB68D3F87C
:1053D000883043F00802FB68C3F88820FB681B682C
:1053E00003F58053D3F86021FB68C3F88C200123B8
:1053F00023E07B68B3F1FF3F18D0FFF7B9FC02460A
:105400003B69D31A7A689A4202D37B68002B0DD18C
:10541000FB68D3F8883043F00402FB68C3F88820A7
:105420007B694FF04052DA60012306E07B69DB685C
:10543000002BC1DB002300E0012318461837BD46CE
:1054400080BD80B588B000AF7860396000237B6193
:105450000023FB733B68002B09D17B68D3F88830AD
:1054600043F001027B68C3F888200123A5E07B6834
:10547000D3F88430232B01D001239EE07B68DB6DC1
:10548000FB617B68FA69123253F82230BB617B689A
:10549000DB6EC3F10403BB6067E0BB69DB6803F04C
:1054A0008043002B07D0BB695A687B689A67BB6949
:1054B0001A687B685A67BB69DB6803F00053002BEE
:1054C00003D17B68DB6F002B3DD0BB69DB6803F049
:1054D0000053002B05D07B6800221A667B680022EF
:1054E0005A667B685B693B61BB69DB6803F080538C
:1054F000002B0DD0BB69DB68C3F30E027B685B6ECB
:10550000D31A3B61BB69DA687B681A670123FB73B6
:105510007B6803F17C007B6803F18001BB691B6938
:105520001A463B699BB2FFF795F97B681B6E5A1CC4
:105530007B681A667B685A6E3B691A447B685A66B8
:10554000BB6900221A61FB690133FB61FB69032B14
:1055500002D9FB69043BFB617B68FA69123253F89C
:105560002230BB617B6901337B61BB69DB68002B47
:1055700006DB7A69BB689A4202D2FB7B002B8CD097
:105580007B68DA6E7B691A447B68DA667B68DB6E5F
:10559000002B02D0786800F014F87B68FA69DA65AD
:1055A000FB7B012B08D17B68DA6F3B681A607B6854
:1055B0000022DA67002300E0012318462037BD46A9
:1055C00080BD80B588B000AF78600023FB60012308
:1055D000FB747B689B6EFB617B68FA69123253F83F
:1055E00022307B617B68DB6EBB613BE07B691B69C2
:1055F000002B12D107F10C031846FFF7FBF8FB68EC
:10560000002B02D10023FB7407E0FB681A467B697C
:105610001A61FB681A467B691A60FB7C002B21D05B
:10562000BFF35F8F00BF7B689B6D002B04D07B694D
:105630004FF04142DA6003E07B694FF00142DA60EB
:10564000FB690133FB61FB69032B02D9FB69043B56
:10565000FB617B68FA69123253F822307B61BB69C7
:10566000013BBB61BB69002B02D0FB7C002BBDD191
:105670007B68DB6EBA699A420DD07B681B6803F5C4
:1056800080531A460023C2F828317B68FA699A666B
:105690007B68BA69DA6600BF2037BD4680BD80B539
:1056A00086B000AFF860B9607A603B60FB681B6849
:1056B000D3F8003203F00103002B01D001233EE0B8
:1056C000FB681B68D3F800327B617B6923F078723A
:1056D000BB685B0513437B617B6923F4F8127B682D
:1056E0001B0413437B617B6943F00C037B617B6983
:1056F00043F001037B61FB681B687A69C3F80022F1
:10570000FFF736FB386109E0FFF732FB02463B69E1
:10571000D31AB3F57A7F01D9012310E0FB681B6827
:10572000D3F8003203F00103002BEDD1FB681B68B6
:10573000D3F804329BB21A463B681A60002318461D
:105740001837BD4680BD000080B586B000AFF86058
:10575000B9607A603B60FB681B68D3F8003203F0E5
:105760000103002B01D001233CE0FB681B68D3F848
:1057700000327B617B6923F07872BB685B05134361
:105780007B617B6923F4F8127B681B0413437B6104
:105790007B6923F00C0343F004037B617B6943F0D6
:1057A00001037B613B689AB2104BC3F804220F4A95
:1057B0007B69C2F80032FFF7DBFA386109E0FFF7D6
:1057C000D7FA02463B69D31AB3F57A7F01D9012390
:1057D00008E0FB681B68D3F8003203F00103002BDC
:1057E000EDD1002318461837BD4680BD0080024029
:1057F00080B483B000AF786039603B68002B01D182
:105800000123C3E17B681B681B6803F00C023B6843
:10581000DA627B681B681B6803F01003002B14BF5F
:1058200001230023DBB21A463B6883F828207B68FB
:105830001B681B6803F060023B685A627B681B6848
:105840001B6803F48073002B0CBF01230023DBB221
:105850001A463B6883F820207B681B681B6803F4AA
:105860000073002B14BF01230023DBB21A463B68F0
:10587000DA777B681B681B6803F48063002B0CBF1E
:1058800001230023DBB21A463B689A777B681B68CA
:105890001B6803F40063002B14BF01230023DBB259
:1058A0001A463B685A777B681B681B6803F4805371
:1058B000002B14BF01230023DBB21A463B681A7782
:1058C0007B681B681B6803F400523B689A617B6825
:1058D0001B681B6803F480423B685A617B681B6845
:1058E0001B6803F48033002B14BF01230023DBB2B9
:1058F0001A463B689A747B681B681B6803F4003384
:10590000002B0CBF01230023DBB21A463B685A74FC
:105910007B681B681B6803F40023002B0CBF01236A
:105920000023DBB21A463B681A747B681B681B684D
:1059300003F48013002B14BF01230023DBB21A46AB
:105940003B68DA737B681B681B6803F40013002B49
:1059500014BF01230023DBB21A463B689A737B68AD
:105960001B681B6803F48003002B14BF0123002372
:10597000DBB21A463B685A737B681B681B6803F4EA
:105980000003002B14BF01230023DBB21A463B683F
:105990001A737B681B681B6803F0E0623B689A60BF
:1059A0007B681B681B6803F00063002B14BF012396
:1059B0000023DBB21A463B681A717B681B681B68C0
:1059C00003F0E0423B681A607B681B685B68C3F3C6
:1059D0000D023B685A637B681B685B6803F4803385
:1059E000002B0CBF01230023DBB21A463B6883F86F
:1059F00032207B681B685B6803F40033002B14BF04
:105A000001230023DBB21A463B6883F831207B6810
:105A10001B685B6803F48023002B14BF0123002361
:105A2000DBB21A463B6883F830207B681B685B68F2
:105A300003F08073002B14BF01230023DBB21A464E
:105A40003B6883F838207B681B685B685B0E03F05B
:105A50001F023B68DA637B681B68DB6803F48073B2
:105A6000002B14BF01230023DBB21A463B6883F8E6
:105A700040207B681B68DB6803F00F023B685A64B8
:105A80007B681B681B6F03F00203002B14BF01230C
:105A90000023DBB21A463B6883F854207B681B68FE
:105AA0001B6F03F08003002B0CBF01230023DBB22C
:105AB0001A463B6883F84C207B681B681B6F03F019
:105AC00070023B681A657B681B681B6F1B0C9AB2DF
:105AD0003B689A647B681B68D3F8903003F001033D
